{
  "abi": [
    {
      "inputs": [
        {
          "internalType": "address",
          "name": "_stakingToken",
          "type": "address"
        },
        {
          "internalType": "uint256",
          "name": "lockingPeriod",
          "type": "uint256"
        }
      ],
      "stateMutability": "nonpayable",
      "type": "constructor"
    },
    {
      "inputs": [],
      "name": "_lockingPeriod",
      "outputs": [
        {
          "internalType": "uint256",
          "name": "",
          "type": "uint256"
        }
      ],
      "stateMutability": "view",
      "type": "function"
    },
    {
      "inputs": [],
      "name": "_poolSize",
      "outputs": [
        {
          "internalType": "uint256",
          "name": "",
          "type": "uint256"
        }
      ],
      "stateMutability": "view",
      "type": "function"
    },
    {
      "inputs": [
        {
          "internalType": "uint256",
          "name": "_id",
          "type": "uint256"
        }
      ],
      "name": "claimReward",
      "outputs": [],
      "stateMutability": "nonpayable",
      "type": "function"
    },
    {
      "inputs": [],
      "name": "contractBalance",
      "outputs": [
        {
          "internalType": "uint256",
          "name": "",
          "type": "uint256"
        }
      ],
      "stateMutability": "view",
      "type": "function"
    },
    {
      "inputs": [
        {
          "internalType": "uint256",
          "name": "_amount",
          "type": "uint256"
        }
      ],
      "name": "ownerDeposit",
      "outputs": [],
      "stateMutability": "nonpayable",
      "type": "function"
    },
    {
      "inputs": [
        {
          "internalType": "uint256",
          "name": "_amount",
          "type": "uint256"
        }
      ],
      "name": "ownerWithdraw",
      "outputs": [],
      "stateMutability": "nonpayable",
      "type": "function"
    },
    {
      "inputs": [
        {
          "internalType": "uint256",
          "name": "",
          "type": "uint256"
        }
      ],
      "name": "rewards",
      "outputs": [
        {
          "internalType": "uint256",
          "name": "reward",
          "type": "uint256"
        },
        {
          "internalType": "uint256",
          "name": "start",
          "type": "uint256"
        },
        {
          "internalType": "uint256",
          "name": "end",
          "type": "uint256"
        }
      ],
      "stateMutability": "view",
      "type": "function"
    },
    {
      "inputs": [
        {
          "internalType": "uint256",
          "name": "rate",
          "type": "uint256"
        }
      ],
      "name": "setRewardRate",
      "outputs": [],
      "stateMutability": "nonpayable",
      "type": "function"
    },
    {
      "inputs": [
        {
          "internalType": "uint256",
          "name": "_amount",
          "type": "uint256"
        }
      ],
      "name": "stake",
      "outputs": [
        {
          "internalType": "uint256",
          "name": "",
          "type": "uint256"
        }
      ],
      "stateMutability": "nonpayable",
      "type": "function"
    },
    {
      "inputs": [
        {
          "internalType": "uint256",
          "name": "",
          "type": "uint256"
        }
      ],
      "name": "stakes",
      "outputs": [
        {
          "internalType": "address",
          "name": "user",
          "type": "address"
        },
        {
          "internalType": "uint256",
          "name": "amount",
          "type": "uint256"
        },
        {
          "internalType": "uint256",
          "name": "sinceBlock",
          "type": "uint256"
        },
        {
          "internalType": "uint256",
          "name": "untilBlock",
          "type": "uint256"
        },
        {
          "internalType": "uint256",
          "name": "reward",
          "type": "uint256"
        }
      ],
      "stateMutability": "view",
      "type": "function"
    },
    {
      "inputs": [],
      "name": "stakingToken",
      "outputs": [
        {
          "internalType": "contract ERC20",
          "name": "",
          "type": "address"
        }
      ],
      "stateMutability": "view",
      "type": "function"
    },
    {
      "inputs": [
        {
          "internalType": "uint256",
          "name": "_id",
          "type": "uint256"
        }
      ],
      "name": "unstake",
      "outputs": [],
      "stateMutability": "nonpayable",
      "type": "function"
    },
    {
      "inputs": [
        {
          "internalType": "uint256",
          "name": "_id",
          "type": "uint256"
        }
      ],
      "name": "untilLockingEnd",
      "outputs": [
        {
          "internalType": "uint256",
          "name": "",
          "type": "uint256"
        }
      ],
      "stateMutability": "view",
      "type": "function"
    }
  ],
  "bytecode": "608060405234801561001057600080fd5b506040516116b73803806116b783398101604081905261002f91610103565b600080546001600160a01b039093166001600160a01b031993841617815560048054909316331790925560025560408051606081018252606481524260208201908152918101838152600680546001810182559452905160039093027ff652222313e28459528d920b65115c16c04f3efc82aaedc97be59f3f377c0d3f81019390935590517ff652222313e28459528d920b65115c16c04f3efc82aaedc97be59f3f377c0d40830155517ff652222313e28459528d920b65115c16c04f3efc82aaedc97be59f3f377c0d419091015561013d565b6000806040838503121561011657600080fd5b82516001600160a01b038116811461012d57600080fd5b6020939093015192949293505050565b61156b8061014c6000396000f3fe608060405234801561001057600080fd5b50600436106100cf5760003560e01c80638b7afe2e1161008c578063ade70abc11610066578063ade70abc14610198578063ae169a50146101a1578063d5a44f86146101b4578063f301af42146101f957600080fd5b80638b7afe2e146101695780639e447fc614610172578063a694fc3a1461018557600080fd5b806313a59eb9146100d4578063141833dc146100f05780632e17de781461010557806333f707d114610118578063484b46891461012b57806372f702f31461013e575b600080fd5b6100dd60025481565b6040519081526020015b60405180910390f35b6101036100fe36600461143e565b610227565b005b61010361011336600461143e565b6102d4565b61010361012636600461143e565b61061a565b6100dd61013936600461143e565b6106b9565b600054610151906001600160a01b031681565b6040516001600160a01b0390911681526020016100e7565b6100dd60035481565b61010361018036600461143e565b610725565b6100dd61019336600461143e565b610826565b6100dd60015481565b6101036101af36600461143e565b6109f6565b6101c76101c236600461143e565b610cf0565b604080516001600160a01b0390961686526020860194909452928401919091526060830152608082015260a0016100e7565b61020c61020736600461143e565b610d3b565b604080519384526020840192909252908201526060016100e7565b6004546001600160a01b0316331461023e57600080fd5b6000546040516323b872dd60e01b8152336004820152306024820152604481018390526001600160a01b03909116906323b872dd906064016020604051808303816000875af1158015610295573d6000803e3d6000fd5b505050506040513d601f19601f820116820180604052508101906102b99190611457565b5080600360008282546102cc9190611496565b909155505050565b336001600160a01b0316600582815481106102f1576102f16114ae565b60009182526020909120600590910201546001600160a01b03161461034e5760405162461bcd60e51b815260206004820152600e60248201526d4e6f7420796f7572207374616b6560901b60448201526064015b60405180910390fd5b4260058281548110610362576103626114ae565b906000526020600020906005020160030154106103ad5760405162461bcd60e51b8152602060048201526009602482015268546f6f206561726c7960b81b6044820152606401610345565b6000600582815481106103c2576103c26114ae565b906000526020600020906005020160010154116104165760405162461bcd60e51b81526020600482015260126024820152714e6f7468696e6720746f20756e7374616b6560701b6044820152606401610345565b61041f81610d6e565b600060058281548110610434576104346114ae565b906000526020600020906005020160040154600354101561047b5760058281548110610462576104626114ae565b9060005260206000209060050201600101549050610539565b6005828154811061048e5761048e6114ae565b906000526020600020906005020160040154600583815481106104b3576104b36114ae565b9060005260206000209060050201600101546104cf9190611496565b9050600582815481106104e4576104e46114ae565b9060005260206000209060050201600401546003600082825461050791906114c4565b92505081905550600060058381548110610523576105236114ae565b9060005260206000209060050201600401819055505b6005828154811061054c5761054c6114ae565b9060005260206000209060050201600101546001600082825461056f91906114c4565b9250508190555060006005838154811061058b5761058b6114ae565b60009182526020822060059190910201600101919091555460405163a9059cbb60e01b8152336004820152602481018390526001600160a01b039091169063a9059cbb906044016020604051808303816000875af11580156105f1573d6000803e3d6000fd5b505050506040513d601f19601f820116820180604052508101906106159190611457565b505050565b6004546001600160a01b0316331461063157600080fd5b60005460405163a9059cbb60e01b8152336004820152602481018390526001600160a01b039091169063a9059cbb906044016020604051808303816000875af1158015610682573d6000803e3d6000fd5b505050506040513d601f19601f820116820180604052508101906106a69190611457565b5080600360008282546102cc91906114c4565b600042600583815481106106cf576106cf6114ae565b90600052602060002090600502016003015410156106ef57506000919050565b4260058381548110610703576107036114ae565b90600052602060002090600502016003015461071f91906114c4565b92915050565b6004546001600160a01b0316331461073c57600080fd5b604080516060810182528281524260208201908152600092820183815260068054600180820183559582905293517ff652222313e28459528d920b65115c16c04f3efc82aaedc97be59f3f377c0d3f60039095029485015591517ff652222313e28459528d920b65115c16c04f3efc82aaedc97be59f3f377c0d40840155517ff652222313e28459528d920b65115c16c04f3efc82aaedc97be59f3f377c0d419092019190915554111561082357600680544291906107fd906002906114c4565b8154811061080d5761080d6114ae565b9060005260206000209060030201600201819055505b50565b600080821161086a5760405162461bcd60e51b815260206004820152601060248201526f4e6f7468696e6720746f207374616b6560801b6044820152606401610345565b600080546040516323b872dd60e01b8152336004820152306024820152604481018590526001600160a01b03909116906323b872dd906064016020604051808303816000875af11580156108c2573d6000803e3d6000fd5b505050506040513d601f19601f820116820180604052508101906108e69190611457565b90506001811515146109315760405162461bcd60e51b815260206004820152601460248201527322b93937b9103bb434b632903a3930b739b332b960611b6044820152606401610345565b82600160008282546109439190611496565b9250508190555060056040518060a00160405280336001600160a01b03168152602001858152602001428152602001600254426109809190611496565b815260006020918201819052835460018082018655948252908290208351600592830290910180546001600160a01b0319166001600160a01b0390921691909117815591830151938201939093556040820151600282015560608201516003820155608090910151600490910155549392505050565b336001600160a01b031660058281548110610a1357610a136114ae565b60009182526020909120600590910201546001600160a01b031614610a6c5760405162461bcd60e51b815260206004820152600f60248201526e139bdd081e5bdd5c881c995dd85c99608a1b6044820152606401610345565b4260058281548110610a8057610a806114ae565b90600052602060002090600502016003015410610acb5760405162461bcd60e51b8152602060048201526009602482015268546f6f206561726c7960b81b6044820152606401610345565b60035460058281548110610ae157610ae16114ae565b9060005260206000209060050201600401541115610b415760405162461bcd60e51b815260206004820152601a60248201527f4e6f7420656e6f7567682066756e647320746f207061796f75740000000000006044820152606401610345565b600060058281548110610b5657610b566114ae565b90600052602060002090600502016004015411610ba95760405162461bcd60e51b8152602060048201526011602482015270139bdd1a1a5b99c81d1bc81c185e5bdd5d607a1b6044820152606401610345565b60058181548110610bbc57610bbc6114ae565b906000526020600020906005020160010154600014610c0b5760405162461bcd60e51b815260206004820152600b60248201526a55736520756e7374616b6560a81b6044820152606401610345565b600060058281548110610c2057610c206114ae565b9060005260206000209060050201600401549050600060058381548110610c4957610c496114ae565b6000918252602082206004600592909202018101929092555460405163a9059cbb60e01b81523392810192909252602482018390526001600160a01b03169063a9059cbb906044016020604051808303816000875af1158015610cb0573d6000803e3d6000fd5b505050506040513d601f19601f82011682018060405250810190610cd49190611457565b508060036000828254610ce791906114c4565b90915550505050565b60058181548110610d0057600080fd5b6000918252602090912060059091020180546001820154600283015460038401546004909401546001600160a01b0390931694509092909185565b60068181548110610d4b57600080fd5b600091825260209091206003909102018054600182015460029092015490925083565b600060058281548110610d8357610d836114ae565b906000526020600020906005020160040181905550600080640757b12c00905060058381548110610db657610db66114ae565b906000526020600020906005020160030154915060005b6006548110156114385760058481548110610dea57610dea6114ae565b90600052602060002090600502016002015460068281548110610e0f57610e0f6114ae565b90600052602060002090600302016001015411158015610e53575060068181548110610e3d57610e3d6114ae565b9060005260206000209060030201600201546000145b15610f2f578160058581548110610e6c57610e6c6114ae565b90600052602060002090600502016001015460068381548110610e9157610e916114ae565b90600052602060002090600302016000015460058781548110610eb657610eb66114ae565b90600052602060002090600502016002015486610ed391906114c4565b610edd91906114db565b610ee791906114db565b610ef191906114fa565b60058581548110610f0457610f046114ae565b90600052602060002090600502016004016000828254610f249190611496565b909155506114269050565b60058481548110610f4257610f426114ae565b90600052602060002090600502016002015460068281548110610f6757610f676114ae565b90600052602060002090600302016001015411158015610fcf575060058481548110610f9557610f956114ae565b90600052602060002090600502016002015460068281548110610fba57610fba6114ae565b90600052602060002090600302016002015410155b8015611000575060068181548110610fe957610fe96114ae565b906000526020600020906003020160020154600014155b156111825760006005858154811061101a5761101a6114ae565b9060005260206000209060050201600301546006838154811061103f5761103f6114ae565b906000526020600020906003020160020154106110825760058581548110611069576110696114ae565b90600052602060002090600502016003015490506110aa565b60068281548110611095576110956114ae565b90600052602060002090600302016002015490505b82600586815481106110be576110be6114ae565b906000526020600020906005020160010154600684815481106110e3576110e36114ae565b90600052602060002090600302016000015460058881548110611108576111086114ae565b9060005260206000209060050201600201548461112591906114c4565b61112f91906114db565b61113991906114db565b61114391906114fa565b60058681548110611156576111566114ae565b906000526020600020906005020160040160008282546111769190611496565b90915550611426915050565b60058481548110611195576111956114ae565b906000526020600020906005020160020154600682815481106111ba576111ba6114ae565b906000526020600020906003020160010154101580156111fe575082600682815481106111e9576111e96114ae565b90600052602060002090600302016002015411155b801561122f575060068181548110611218576112186114ae565b906000526020600020906003020160020154600014155b156112d3578160058581548110611248576112486114ae565b9060005260206000209060050201600101546006838154811061126d5761126d6114ae565b90600052602060002090600302016000015460068481548110611292576112926114ae565b906000526020600020906003020160010154600685815481106112b7576112b76114ae565b906000526020600020906003020160020154610ed391906114c4565b82600682815481106112e7576112e76114ae565b9060005260206000209060030201600101541115801561134f575060058481548110611315576113156114ae565b9060005260206000209060050201600201546006828154811061133a5761133a6114ae565b90600052602060002090600302016001015410155b15611426578160058581548110611368576113686114ae565b9060005260206000209060050201600101546006838154811061138d5761138d6114ae565b906000526020600020906003020160000154600684815481106113b2576113b26114ae565b906000526020600020906003020160010154866113cf91906114c4565b6113d991906114db565b6113e391906114db565b6113ed91906114fa565b60058581548110611400576114006114ae565b906000526020600020906005020160040160008282546114209190611496565b90915550505b806114308161151c565b915050610dcd565b50505050565b60006020828403121561145057600080fd5b5035919050565b60006020828403121561146957600080fd5b8151801515811461147957600080fd5b9392505050565b634e487b7160e01b600052601160045260246000fd5b600082198211156114a9576114a9611480565b500190565b634e487b7160e01b600052603260045260246000fd5b6000828210156114d6576114d6611480565b500390565b60008160001904831182151516156114f5576114f5611480565b500290565b60008261151757634e487b7160e01b600052601260045260246000fd5b500490565b60006001820161152e5761152e611480565b506001019056fea26469706673582212207a7da37532dc2ce4d519dbfe59437f2df1d03d0eafbd021db421e510d09dba7c64736f6c634300080d0033",
  "bytecodeSha1": "339d570771962b296638560d11c904c6fc16b162",
  "compiler": {
    "evm_version": "istanbul",
    "optimizer": {
      "enabled": true,
      "runs": 200
    },
    "version": "0.8.13+commit.abaa5c0e"
  },
  "contractName": "StakingRewards",
  "language": "Solidity",
  "natspec": {
    "kind": "dev",
    "methods": {},
    "version": 1
  },
  "opcodes": "PUSH1 0x80 PUSH1 0x40 MSTORE CALLVALUE DUP1 ISZERO PUSH2 0x10 JUMPI PUSH1 0x0 DUP1 REVERT JUMPDEST POP PUSH1 0x4 CALLDATASIZE LT PUSH2 0xCF JUMPI PUSH1 0x0 CALLDATALOAD PUSH1 0xE0 SHR DUP1 PUSH4 0x8B7AFE2E GT PUSH2 0x8C JUMPI DUP1 PUSH4 0xADE70ABC GT PUSH2 0x66 JUMPI DUP1 PUSH4 0xADE70ABC EQ PUSH2 0x198 JUMPI DUP1 PUSH4 0xAE169A50 EQ PUSH2 0x1A1 JUMPI DUP1 PUSH4 0xD5A44F86 EQ PUSH2 0x1B4 JUMPI DUP1 PUSH4 0xF301AF42 EQ PUSH2 0x1F9 JUMPI PUSH1 0x0 DUP1 REVERT JUMPDEST DUP1 PUSH4 0x8B7AFE2E EQ PUSH2 0x169 JUMPI DUP1 PUSH4 0x9E447FC6 EQ PUSH2 0x172 JUMPI DUP1 PUSH4 0xA694FC3A EQ PUSH2 0x185 JUMPI PUSH1 0x0 DUP1 REVERT JUMPDEST DUP1 PUSH4 0x13A59EB9 EQ PUSH2 0xD4 JUMPI DUP1 PUSH4 0x141833DC EQ PUSH2 0xF0 JUMPI DUP1 PUSH4 0x2E17DE78 EQ PUSH2 0x105 JUMPI DUP1 PUSH4 0x33F707D1 EQ PUSH2 0x118 JUMPI DUP1 PUSH4 0x484B4689 EQ PUSH2 0x12B JUMPI DUP1 PUSH4 0x72F702F3 EQ PUSH2 0x13E JUMPI JUMPDEST PUSH1 0x0 DUP1 REVERT JUMPDEST PUSH2 0xDD PUSH1 0x2 SLOAD DUP2 JUMP JUMPDEST PUSH1 0x40 MLOAD SWAP1 DUP2 MSTORE PUSH1 0x20 ADD JUMPDEST PUSH1 0x40 MLOAD DUP1 SWAP2 SUB SWAP1 RETURN JUMPDEST PUSH2 0x103 PUSH2 0xFE CALLDATASIZE PUSH1 0x4 PUSH2 0x143E JUMP JUMPDEST PUSH2 0x227 JUMP JUMPDEST STOP JUMPDEST PUSH2 0x103 PUSH2 0x113 CALLDATASIZE PUSH1 0x4 PUSH2 0x143E JUMP JUMPDEST PUSH2 0x2D4 JUMP JUMPDEST PUSH2 0x103 PUSH2 0x126 CALLDATASIZE PUSH1 0x4 PUSH2 0x143E JUMP JUMPDEST PUSH2 0x61A JUMP JUMPDEST PUSH2 0xDD PUSH2 0x139 CALLDATASIZE PUSH1 0x4 PUSH2 0x143E JUMP JUMPDEST PUSH2 0x6B9 JUMP JUMPDEST PUSH1 0x0 SLOAD PUSH2 0x151 SWAP1 PUSH1 0x1 PUSH1 0x1 PUSH1 0xA0 SHL SUB AND DUP2 JUMP JUMPDEST PUSH1 0x40 MLOAD PUSH1 0x1 PUSH1 0x1 PUSH1 0xA0 SHL SUB SWAP1 SWAP2 AND DUP2 MSTORE PUSH1 0x20 ADD PUSH2 0xE7 JUMP JUMPDEST PUSH2 0xDD PUSH1 0x3 SLOAD DUP2 JUMP JUMPDEST PUSH2 0x103 PUSH2 0x180 CALLDATASIZE PUSH1 0x4 PUSH2 0x143E JUMP JUMPDEST PUSH2 0x725 JUMP JUMPDEST PUSH2 0xDD PUSH2 0x193 CALLDATASIZE PUSH1 0x4 PUSH2 0x143E JUMP JUMPDEST PUSH2 0x826 JUMP JUMPDEST PUSH2 0xDD PUSH1 0x1 SLOAD DUP2 JUMP JUMPDEST PUSH2 0x103 PUSH2 0x1AF CALLDATASIZE PUSH1 0x4 PUSH2 0x143E JUMP JUMPDEST PUSH2 0x9F6 JUMP JUMPDEST PUSH2 0x1C7 PUSH2 0x1C2 CALLDATASIZE PUSH1 0x4 PUSH2 0x143E JUMP JUMPDEST PUSH2 0xCF0 JUMP JUMPDEST PUSH1 0x40 DUP1 MLOAD PUSH1 0x1 PUSH1 0x1 PUSH1 0xA0 SHL SUB SWAP1 SWAP7 AND DUP7 MSTORE PUSH1 0x20 DUP7 ADD SWAP5 SWAP1 SWAP5 MSTORE SWAP3 DUP5 ADD SWAP2 SWAP1 SWAP2 MSTORE PUSH1 0x60 DUP4 ADD MSTORE PUSH1 0x80 DUP3 ADD MSTORE PUSH1 0xA0 ADD PUSH2 0xE7 JUMP JUMPDEST PUSH2 0x20C PUSH2 0x207 CALLDATASIZE PUSH1 0x4 PUSH2 0x143E JUMP JUMPDEST PUSH2 0xD3B JUMP JUMPDEST PUSH1 0x40 DUP1 MLOAD SWAP4 DUP5 MSTORE PUSH1 0x20 DUP5 ADD SWAP3 SWAP1 SWAP3 MSTORE SWAP1 DUP3 ADD MSTORE PUSH1 0x60 ADD PUSH2 0xE7 JUMP JUMPDEST PUSH1 0x4 SLOAD PUSH1 0x1 PUSH1 0x1 PUSH1 0xA0 SHL SUB AND CALLER EQ PUSH2 0x23E JUMPI PUSH1 0x0 DUP1 REVERT JUMPDEST PUSH1 0x0 SLOAD PUSH1 0x40 MLOAD PUSH4 0x23B872DD PUSH1 0xE0 SHL DUP2 MSTORE CALLER PUSH1 0x4 DUP3 ADD MSTORE ADDRESS PUSH1 0x24 DUP3 ADD MSTORE PUSH1 0x44 DUP2 ADD DUP4 SWAP1 MSTORE PUSH1 0x1 PUSH1 0x1 PUSH1 0xA0 SHL SUB SWAP1 SWAP2 AND SWAP1 PUSH4 0x23B872DD SWAP1 PUSH1 0x64 ADD PUSH1 0x20 PUSH1 0x40 MLOAD DUP1 DUP4 SUB DUP2 PUSH1 0x0 DUP8 GAS CALL ISZERO DUP1 ISZERO PUSH2 0x295 JUMPI RETURNDATASIZE PUSH1 0x0 DUP1 RETURNDATACOPY RETURNDATASIZE PUSH1 0x0 REVERT JUMPDEST POP POP POP POP PUSH1 0x40 MLOAD RETURNDATASIZE PUSH1 0x1F NOT PUSH1 0x1F DUP3 ADD AND DUP3 ADD DUP1 PUSH1 0x40 MSTORE POP DUP2 ADD SWAP1 PUSH2 0x2B9 SWAP2 SWAP1 PUSH2 0x1457 JUMP JUMPDEST POP DUP1 PUSH1 0x3 PUSH1 0x0 DUP3 DUP3 SLOAD PUSH2 0x2CC SWAP2 SWAP1 PUSH2 0x1496 JUMP JUMPDEST SWAP1 SWAP2 SSTORE POP POP POP JUMP JUMPDEST CALLER PUSH1 0x1 PUSH1 0x1 PUSH1 0xA0 SHL SUB AND PUSH1 0x5 DUP3 DUP2 SLOAD DUP2 LT PUSH2 0x2F1 JUMPI PUSH2 0x2F1 PUSH2 0x14AE JUMP JUMPDEST PUSH1 0x0 SWAP2 DUP3 MSTORE PUSH1 0x20 SWAP1 SWAP2 KECCAK256 PUSH1 0x5 SWAP1 SWAP2 MUL ADD SLOAD PUSH1 0x1 PUSH1 0x1 PUSH1 0xA0 SHL SUB AND EQ PUSH2 0x34E JUMPI PUSH1 0x40 MLOAD PUSH3 0x461BCD PUSH1 0xE5 SHL DUP2 MSTORE PUSH1 0x20 PUSH1 0x4 DUP3 ADD MSTORE PUSH1 0xE PUSH1 0x24 DUP3 ADD MSTORE PUSH14 0x4E6F7420796F7572207374616B65 PUSH1 0x90 SHL PUSH1 0x44 DUP3 ADD MSTORE PUSH1 0x64 ADD JUMPDEST PUSH1 0x40 MLOAD DUP1 SWAP2 SUB SWAP1 REVERT JUMPDEST TIMESTAMP PUSH1 0x5 DUP3 DUP2 SLOAD DUP2 LT PUSH2 0x362 JUMPI PUSH2 0x362 PUSH2 0x14AE JUMP JUMPDEST SWAP1 PUSH1 0x0 MSTORE PUSH1 0x20 PUSH1 0x0 KECCAK256 SWAP1 PUSH1 0x5 MUL ADD PUSH1 0x3 ADD SLOAD LT PUSH2 0x3AD JUMPI PUSH1 0x40 MLOAD PUSH3 0x461BCD PUSH1 0xE5 SHL DUP2 MSTORE PUSH1 0x20 PUSH1 0x4 DUP3 ADD MSTORE PUSH1 0x9 PUSH1 0x24 DUP3 ADD MSTORE PUSH9 0x546F6F206561726C79 PUSH1 0xB8 SHL PUSH1 0x44 DUP3 ADD MSTORE PUSH1 0x64 ADD PUSH2 0x345 JUMP JUMPDEST PUSH1 0x0 PUSH1 0x5 DUP3 DUP2 SLOAD DUP2 LT PUSH2 0x3C2 JUMPI PUSH2 0x3C2 PUSH2 0x14AE JUMP JUMPDEST SWAP1 PUSH1 0x0 MSTORE PUSH1 0x20 PUSH1 0x0 KECCAK256 SWAP1 PUSH1 0x5 MUL ADD PUSH1 0x1 ADD SLOAD GT PUSH2 0x416 JUMPI PUSH1 0x40 MLOAD PUSH3 0x461BCD PUSH1 0xE5 SHL DUP2 MSTORE PUSH1 0x20 PUSH1 0x4 DUP3 ADD MSTORE PUSH1 0x12 PUSH1 0x24 DUP3 ADD MSTORE PUSH18 0x4E6F7468696E6720746F20756E7374616B65 PUSH1 0x70 SHL PUSH1 0x44 DUP3 ADD MSTORE PUSH1 0x64 ADD PUSH2 0x345 JUMP JUMPDEST PUSH2 0x41F DUP2 PUSH2 0xD6E JUMP JUMPDEST PUSH1 0x0 PUSH1 0x5 DUP3 DUP2 SLOAD DUP2 LT PUSH2 0x434 JUMPI PUSH2 0x434 PUSH2 0x14AE JUMP JUMPDEST SWAP1 PUSH1 0x0 MSTORE PUSH1 0x20 PUSH1 0x0 KECCAK256 SWAP1 PUSH1 0x5 MUL ADD PUSH1 0x4 ADD SLOAD PUSH1 0x3 SLOAD LT ISZERO PUSH2 0x47B JUMPI PUSH1 0x5 DUP3 DUP2 SLOAD DUP2 LT PUSH2 0x462 JUMPI PUSH2 0x462 PUSH2 0x14AE JUMP JUMPDEST SWAP1 PUSH1 0x0 MSTORE PUSH1 0x20 PUSH1 0x0 KECCAK256 SWAP1 PUSH1 0x5 MUL ADD PUSH1 0x1 ADD SLOAD SWAP1 POP PUSH2 0x539 JUMP JUMPDEST PUSH1 0x5 DUP3 DUP2 SLOAD DUP2 LT PUSH2 0x48E JUMPI PUSH2 0x48E PUSH2 0x14AE JUMP JUMPDEST SWAP1 PUSH1 0x0 MSTORE PUSH1 0x20 PUSH1 0x0 KECCAK256 SWAP1 PUSH1 0x5 MUL ADD PUSH1 0x4 ADD SLOAD PUSH1 0x5 DUP4 DUP2 SLOAD DUP2 LT PUSH2 0x4B3 JUMPI PUSH2 0x4B3 PUSH2 0x14AE JUMP JUMPDEST SWAP1 PUSH1 0x0 MSTORE PUSH1 0x20 PUSH1 0x0 KECCAK256 SWAP1 PUSH1 0x5 MUL ADD PUSH1 0x1 ADD SLOAD PUSH2 0x4CF SWAP2 SWAP1 PUSH2 0x1496 JUMP JUMPDEST SWAP1 POP PUSH1 0x5 DUP3 DUP2 SLOAD DUP2 LT PUSH2 0x4E4 JUMPI PUSH2 0x4E4 PUSH2 0x14AE JUMP JUMPDEST SWAP1 PUSH1 0x0 MSTORE PUSH1 0x20 PUSH1 0x0 KECCAK256 SWAP1 PUSH1 0x5 MUL ADD PUSH1 0x4 ADD SLOAD PUSH1 0x3 PUSH1 0x0 DUP3 DUP3 SLOAD PUSH2 0x507 SWAP2 SWAP1 PUSH2 0x14C4 JUMP JUMPDEST SWAP3 POP POP DUP2 SWAP1 SSTORE POP PUSH1 0x0 PUSH1 0x5 DUP4 DUP2 SLOAD DUP2 LT PUSH2 0x523 JUMPI PUSH2 0x523 PUSH2 0x14AE JUMP JUMPDEST SWAP1 PUSH1 0x0 MSTORE PUSH1 0x20 PUSH1 0x0 KECCAK256 SWAP1 PUSH1 0x5 MUL ADD PUSH1 0x4 ADD DUP2 SWAP1 SSTORE POP JUMPDEST PUSH1 0x5 DUP3 DUP2 SLOAD DUP2 LT PUSH2 0x54C JUMPI PUSH2 0x54C PUSH2 0x14AE JUMP JUMPDEST SWAP1 PUSH1 0x0 MSTORE PUSH1 0x20 PUSH1 0x0 KECCAK256 SWAP1 PUSH1 0x5 MUL ADD PUSH1 0x1 ADD SLOAD PUSH1 0x1 PUSH1 0x0 DUP3 DUP3 SLOAD PUSH2 0x56F SWAP2 SWAP1 PUSH2 0x14C4 JUMP JUMPDEST SWAP3 POP POP DUP2 SWAP1 SSTORE POP PUSH1 0x0 PUSH1 0x5 DUP4 DUP2 SLOAD DUP2 LT PUSH2 0x58B JUMPI PUSH2 0x58B PUSH2 0x14AE JUMP JUMPDEST PUSH1 0x0 SWAP2 DUP3 MSTORE PUSH1 0x20 DUP3 KECCAK256 PUSH1 0x5 SWAP2 SWAP1 SWAP2 MUL ADD PUSH1 0x1 ADD SWAP2 SWAP1 SWAP2 SSTORE SLOAD PUSH1 0x40 MLOAD PUSH4 0xA9059CBB PUSH1 0xE0 SHL DUP2 MSTORE CALLER PUSH1 0x4 DUP3 ADD MSTORE PUSH1 0x24 DUP2 ADD DUP4 SWAP1 MSTORE PUSH1 0x1 PUSH1 0x1 PUSH1 0xA0 SHL SUB SWAP1 SWAP2 AND SWAP1 PUSH4 0xA9059CBB SWAP1 PUSH1 0x44 ADD PUSH1 0x20 PUSH1 0x40 MLOAD DUP1 DUP4 SUB DUP2 PUSH1 0x0 DUP8 GAS CALL ISZERO DUP1 ISZERO PUSH2 0x5F1 JUMPI RETURNDATASIZE PUSH1 0x0 DUP1 RETURNDATACOPY RETURNDATASIZE PUSH1 0x0 REVERT JUMPDEST POP POP POP POP PUSH1 0x40 MLOAD RETURNDATASIZE PUSH1 0x1F NOT PUSH1 0x1F DUP3 ADD AND DUP3 ADD DUP1 PUSH1 0x40 MSTORE POP DUP2 ADD SWAP1 PUSH2 0x615 SWAP2 SWAP1 PUSH2 0x1457 JUMP JUMPDEST POP POP POP JUMP JUMPDEST PUSH1 0x4 SLOAD PUSH1 0x1 PUSH1 0x1 PUSH1 0xA0 SHL SUB AND CALLER EQ PUSH2 0x631 JUMPI PUSH1 0x0 DUP1 REVERT JUMPDEST PUSH1 0x0 SLOAD PUSH1 0x40 MLOAD PUSH4 0xA9059CBB PUSH1 0xE0 SHL DUP2 MSTORE CALLER PUSH1 0x4 DUP3 ADD MSTORE PUSH1 0x24 DUP2 ADD DUP4 SWAP1 MSTORE PUSH1 0x1 PUSH1 0x1 PUSH1 0xA0 SHL SUB SWAP1 SWAP2 AND SWAP1 PUSH4 0xA9059CBB SWAP1 PUSH1 0x44 ADD PUSH1 0x20 PUSH1 0x40 MLOAD DUP1 DUP4 SUB DUP2 PUSH1 0x0 DUP8 GAS CALL ISZERO DUP1 ISZERO PUSH2 0x682 JUMPI RETURNDATASIZE PUSH1 0x0 DUP1 RETURNDATACOPY RETURNDATASIZE PUSH1 0x0 REVERT JUMPDEST POP POP POP POP PUSH1 0x40 MLOAD RETURNDATASIZE PUSH1 0x1F NOT PUSH1 0x1F DUP3 ADD AND DUP3 ADD DUP1 PUSH1 0x40 MSTORE POP DUP2 ADD SWAP1 PUSH2 0x6A6 SWAP2 SWAP1 PUSH2 0x1457 JUMP JUMPDEST POP DUP1 PUSH1 0x3 PUSH1 0x0 DUP3 DUP3 SLOAD PUSH2 0x2CC SWAP2 SWAP1 PUSH2 0x14C4 JUMP JUMPDEST PUSH1 0x0 TIMESTAMP PUSH1 0x5 DUP4 DUP2 SLOAD DUP2 LT PUSH2 0x6CF JUMPI PUSH2 0x6CF PUSH2 0x14AE JUMP JUMPDEST SWAP1 PUSH1 0x0 MSTORE PUSH1 0x20 PUSH1 0x0 KECCAK256 SWAP1 PUSH1 0x5 MUL ADD PUSH1 0x3 ADD SLOAD LT ISZERO PUSH2 0x6EF JUMPI POP PUSH1 0x0 SWAP2 SWAP1 POP JUMP JUMPDEST TIMESTAMP PUSH1 0x5 DUP4 DUP2 SLOAD DUP2 LT PUSH2 0x703 JUMPI PUSH2 0x703 PUSH2 0x14AE JUMP JUMPDEST SWAP1 PUSH1 0x0 MSTORE PUSH1 0x20 PUSH1 0x0 KECCAK256 SWAP1 PUSH1 0x5 MUL ADD PUSH1 0x3 ADD SLOAD PUSH2 0x71F SWAP2 SWAP1 PUSH2 0x14C4 JUMP JUMPDEST SWAP3 SWAP2 POP POP JUMP JUMPDEST PUSH1 0x4 SLOAD PUSH1 0x1 PUSH1 0x1 PUSH1 0xA0 SHL SUB AND CALLER EQ PUSH2 0x73C JUMPI PUSH1 0x0 DUP1 REVERT JUMPDEST PUSH1 0x40 DUP1 MLOAD PUSH1 0x60 DUP2 ADD DUP3 MSTORE DUP3 DUP2 MSTORE TIMESTAMP PUSH1 0x20 DUP3 ADD SWAP1 DUP2 MSTORE PUSH1 0x0 SWAP3 DUP3 ADD DUP4 DUP2 MSTORE PUSH1 0x6 DUP1 SLOAD PUSH1 0x1 DUP1 DUP3 ADD DUP4 SSTORE SWAP6 DUP3 SWAP1 MSTORE SWAP4 MLOAD PUSH32 0xF652222313E28459528D920B65115C16C04F3EFC82AAEDC97BE59F3F377C0D3F PUSH1 0x3 SWAP1 SWAP6 MUL SWAP5 DUP6 ADD SSTORE SWAP2 MLOAD PUSH32 0xF652222313E28459528D920B65115C16C04F3EFC82AAEDC97BE59F3F377C0D40 DUP5 ADD SSTORE MLOAD PUSH32 0xF652222313E28459528D920B65115C16C04F3EFC82AAEDC97BE59F3F377C0D41 SWAP1 SWAP3 ADD SWAP2 SWAP1 SWAP2 SSTORE SLOAD GT ISZERO PUSH2 0x823 JUMPI PUSH1 0x6 DUP1 SLOAD TIMESTAMP SWAP2 SWAP1 PUSH2 0x7FD SWAP1 PUSH1 0x2 SWAP1 PUSH2 0x14C4 JUMP JUMPDEST DUP2 SLOAD DUP2 LT PUSH2 0x80D JUMPI PUSH2 0x80D PUSH2 0x14AE JUMP JUMPDEST SWAP1 PUSH1 0x0 MSTORE PUSH1 0x20 PUSH1 0x0 KECCAK256 SWAP1 PUSH1 0x3 MUL ADD PUSH1 0x2 ADD DUP2 SWAP1 SSTORE POP JUMPDEST POP JUMP JUMPDEST PUSH1 0x0 DUP1 DUP3 GT PUSH2 0x86A JUMPI PUSH1 0x40 MLOAD PUSH3 0x461BCD PUSH1 0xE5 SHL DUP2 MSTORE PUSH1 0x20 PUSH1 0x4 DUP3 ADD MSTORE PUSH1 0x10 PUSH1 0x24 DUP3 ADD MSTORE PUSH16 0x4E6F7468696E6720746F207374616B65 PUSH1 0x80 SHL PUSH1 0x44 DUP3 ADD MSTORE PUSH1 0x64 ADD PUSH2 0x345 JUMP JUMPDEST PUSH1 0x0 DUP1 SLOAD PUSH1 0x40 MLOAD PUSH4 0x23B872DD PUSH1 0xE0 SHL DUP2 MSTORE CALLER PUSH1 0x4 DUP3 ADD MSTORE ADDRESS PUSH1 0x24 DUP3 ADD MSTORE PUSH1 0x44 DUP2 ADD DUP6 SWAP1 MSTORE PUSH1 0x1 PUSH1 0x1 PUSH1 0xA0 SHL SUB SWAP1 SWAP2 AND SWAP1 PUSH4 0x23B872DD SWAP1 PUSH1 0x64 ADD PUSH1 0x20 PUSH1 0x40 MLOAD DUP1 DUP4 SUB DUP2 PUSH1 0x0 DUP8 GAS CALL ISZERO DUP1 ISZERO PUSH2 0x8C2 JUMPI RETURNDATASIZE PUSH1 0x0 DUP1 RETURNDATACOPY RETURNDATASIZE PUSH1 0x0 REVERT JUMPDEST POP POP POP POP PUSH1 0x40 MLOAD RETURNDATASIZE PUSH1 0x1F NOT PUSH1 0x1F DUP3 ADD AND DUP3 ADD DUP1 PUSH1 0x40 MSTORE POP DUP2 ADD SWAP1 PUSH2 0x8E6 SWAP2 SWAP1 PUSH2 0x1457 JUMP JUMPDEST SWAP1 POP PUSH1 0x1 DUP2 ISZERO ISZERO EQ PUSH2 0x931 JUMPI PUSH1 0x40 MLOAD PUSH3 0x461BCD PUSH1 0xE5 SHL DUP2 MSTORE PUSH1 0x20 PUSH1 0x4 DUP3 ADD MSTORE PUSH1 0x14 PUSH1 0x24 DUP3 ADD MSTORE PUSH20 0x22B93937B9103BB434B632903A3930B739B332B9 PUSH1 0x61 SHL PUSH1 0x44 DUP3 ADD MSTORE PUSH1 0x64 ADD PUSH2 0x345 JUMP JUMPDEST DUP3 PUSH1 0x1 PUSH1 0x0 DUP3 DUP3 SLOAD PUSH2 0x943 SWAP2 SWAP1 PUSH2 0x1496 JUMP JUMPDEST SWAP3 POP POP DUP2 SWAP1 SSTORE POP PUSH1 0x5 PUSH1 0x40 MLOAD DUP1 PUSH1 0xA0 ADD PUSH1 0x40 MSTORE DUP1 CALLER PUSH1 0x1 PUSH1 0x1 PUSH1 0xA0 SHL SUB AND DUP2 MSTORE PUSH1 0x20 ADD DUP6 DUP2 MSTORE PUSH1 0x20 ADD TIMESTAMP DUP2 MSTORE PUSH1 0x20 ADD PUSH1 0x2 SLOAD TIMESTAMP PUSH2 0x980 SWAP2 SWAP1 PUSH2 0x1496 JUMP JUMPDEST DUP2 MSTORE PUSH1 0x0 PUSH1 0x20 SWAP2 DUP3 ADD DUP2 SWAP1 MSTORE DUP4 SLOAD PUSH1 0x1 DUP1 DUP3 ADD DUP7 SSTORE SWAP5 DUP3 MSTORE SWAP1 DUP3 SWAP1 KECCAK256 DUP4 MLOAD PUSH1 0x5 SWAP3 DUP4 MUL SWAP1 SWAP2 ADD DUP1 SLOAD PUSH1 0x1 PUSH1 0x1 PUSH1 0xA0 SHL SUB NOT AND PUSH1 0x1 PUSH1 0x1 PUSH1 0xA0 SHL SUB SWAP1 SWAP3 AND SWAP2 SWAP1 SWAP2 OR DUP2 SSTORE SWAP2 DUP4 ADD MLOAD SWAP4 DUP3 ADD SWAP4 SWAP1 SWAP4 SSTORE PUSH1 0x40 DUP3 ADD MLOAD PUSH1 0x2 DUP3 ADD SSTORE PUSH1 0x60 DUP3 ADD MLOAD PUSH1 0x3 DUP3 ADD SSTORE PUSH1 0x80 SWAP1 SWAP2 ADD MLOAD PUSH1 0x4 SWAP1 SWAP2 ADD SSTORE SLOAD SWAP4 SWAP3 POP POP POP JUMP JUMPDEST CALLER PUSH1 0x1 PUSH1 0x1 PUSH1 0xA0 SHL SUB AND PUSH1 0x5 DUP3 DUP2 SLOAD DUP2 LT PUSH2 0xA13 JUMPI PUSH2 0xA13 PUSH2 0x14AE JUMP JUMPDEST PUSH1 0x0 SWAP2 DUP3 MSTORE PUSH1 0x20 SWAP1 SWAP2 KECCAK256 PUSH1 0x5 SWAP1 SWAP2 MUL ADD SLOAD PUSH1 0x1 PUSH1 0x1 PUSH1 0xA0 SHL SUB AND EQ PUSH2 0xA6C JUMPI PUSH1 0x40 MLOAD PUSH3 0x461BCD PUSH1 0xE5 SHL DUP2 MSTORE PUSH1 0x20 PUSH1 0x4 DUP3 ADD MSTORE PUSH1 0xF PUSH1 0x24 DUP3 ADD MSTORE PUSH15 0x139BDD081E5BDD5C881C995DD85C99 PUSH1 0x8A SHL PUSH1 0x44 DUP3 ADD MSTORE PUSH1 0x64 ADD PUSH2 0x345 JUMP JUMPDEST TIMESTAMP PUSH1 0x5 DUP3 DUP2 SLOAD DUP2 LT PUSH2 0xA80 JUMPI PUSH2 0xA80 PUSH2 0x14AE JUMP JUMPDEST SWAP1 PUSH1 0x0 MSTORE PUSH1 0x20 PUSH1 0x0 KECCAK256 SWAP1 PUSH1 0x5 MUL ADD PUSH1 0x3 ADD SLOAD LT PUSH2 0xACB JUMPI PUSH1 0x40 MLOAD PUSH3 0x461BCD PUSH1 0xE5 SHL DUP2 MSTORE PUSH1 0x20 PUSH1 0x4 DUP3 ADD MSTORE PUSH1 0x9 PUSH1 0x24 DUP3 ADD MSTORE PUSH9 0x546F6F206561726C79 PUSH1 0xB8 SHL PUSH1 0x44 DUP3 ADD MSTORE PUSH1 0x64 ADD PUSH2 0x345 JUMP JUMPDEST PUSH1 0x3 SLOAD PUSH1 0x5 DUP3 DUP2 SLOAD DUP2 LT PUSH2 0xAE1 JUMPI PUSH2 0xAE1 PUSH2 0x14AE JUMP JUMPDEST SWAP1 PUSH1 0x0 MSTORE PUSH1 0x20 PUSH1 0x0 KECCAK256 SWAP1 PUSH1 0x5 MUL ADD PUSH1 0x4 ADD SLOAD GT ISZERO PUSH2 0xB41 JUMPI PUSH1 0x40 MLOAD PUSH3 0x461BCD PUSH1 0xE5 SHL DUP2 MSTORE PUSH1 0x20 PUSH1 0x4 DUP3 ADD MSTORE PUSH1 0x1A PUSH1 0x24 DUP3 ADD MSTORE PUSH32 0x4E6F7420656E6F7567682066756E647320746F207061796F7574000000000000 PUSH1 0x44 DUP3 ADD MSTORE PUSH1 0x64 ADD PUSH2 0x345 JUMP JUMPDEST PUSH1 0x0 PUSH1 0x5 DUP3 DUP2 SLOAD DUP2 LT PUSH2 0xB56 JUMPI PUSH2 0xB56 PUSH2 0x14AE JUMP JUMPDEST SWAP1 PUSH1 0x0 MSTORE PUSH1 0x20 PUSH1 0x0 KECCAK256 SWAP1 PUSH1 0x5 MUL ADD PUSH1 0x4 ADD SLOAD GT PUSH2 0xBA9 JUMPI PUSH1 0x40 MLOAD PUSH3 0x461BCD PUSH1 0xE5 SHL DUP2 MSTORE PUSH1 0x20 PUSH1 0x4 DUP3 ADD MSTORE PUSH1 0x11 PUSH1 0x24 DUP3 ADD MSTORE PUSH17 0x139BDD1A1A5B99C81D1BC81C185E5BDD5D PUSH1 0x7A SHL PUSH1 0x44 DUP3 ADD MSTORE PUSH1 0x64 ADD PUSH2 0x345 JUMP JUMPDEST PUSH1 0x5 DUP2 DUP2 SLOAD DUP2 LT PUSH2 0xBBC JUMPI PUSH2 0xBBC PUSH2 0x14AE JUMP JUMPDEST SWAP1 PUSH1 0x0 MSTORE PUSH1 0x20 PUSH1 0x0 KECCAK256 SWAP1 PUSH1 0x5 MUL ADD PUSH1 0x1 ADD SLOAD PUSH1 0x0 EQ PUSH2 0xC0B JUMPI PUSH1 0x40 MLOAD PUSH3 0x461BCD PUSH1 0xE5 SHL DUP2 MSTORE PUSH1 0x20 PUSH1 0x4 DUP3 ADD MSTORE PUSH1 0xB PUSH1 0x24 DUP3 ADD MSTORE PUSH11 0x55736520756E7374616B65 PUSH1 0xA8 SHL PUSH1 0x44 DUP3 ADD MSTORE PUSH1 0x64 ADD PUSH2 0x345 JUMP JUMPDEST PUSH1 0x0 PUSH1 0x5 DUP3 DUP2 SLOAD DUP2 LT PUSH2 0xC20 JUMPI PUSH2 0xC20 PUSH2 0x14AE JUMP JUMPDEST SWAP1 PUSH1 0x0 MSTORE PUSH1 0x20 PUSH1 0x0 KECCAK256 SWAP1 PUSH1 0x5 MUL ADD PUSH1 0x4 ADD SLOAD SWAP1 POP PUSH1 0x0 PUSH1 0x5 DUP4 DUP2 SLOAD DUP2 LT PUSH2 0xC49 JUMPI PUSH2 0xC49 PUSH2 0x14AE JUMP JUMPDEST PUSH1 0x0 SWAP2 DUP3 MSTORE PUSH1 0x20 DUP3 KECCAK256 PUSH1 0x4 PUSH1 0x5 SWAP3 SWAP1 SWAP3 MUL ADD DUP2 ADD SWAP3 SWAP1 SWAP3 SSTORE SLOAD PUSH1 0x40 MLOAD PUSH4 0xA9059CBB PUSH1 0xE0 SHL DUP2 MSTORE CALLER SWAP3 DUP2 ADD SWAP3 SWAP1 SWAP3 MSTORE PUSH1 0x24 DUP3 ADD DUP4 SWAP1 MSTORE PUSH1 0x1 PUSH1 0x1 PUSH1 0xA0 SHL SUB AND SWAP1 PUSH4 0xA9059CBB SWAP1 PUSH1 0x44 ADD PUSH1 0x20 PUSH1 0x40 MLOAD DUP1 DUP4 SUB DUP2 PUSH1 0x0 DUP8 GAS CALL ISZERO DUP1 ISZERO PUSH2 0xCB0 JUMPI RETURNDATASIZE PUSH1 0x0 DUP1 RETURNDATACOPY RETURNDATASIZE PUSH1 0x0 REVERT JUMPDEST POP POP POP POP PUSH1 0x40 MLOAD RETURNDATASIZE PUSH1 0x1F NOT PUSH1 0x1F DUP3 ADD AND DUP3 ADD DUP1 PUSH1 0x40 MSTORE POP DUP2 ADD SWAP1 PUSH2 0xCD4 SWAP2 SWAP1 PUSH2 0x1457 JUMP JUMPDEST POP DUP1 PUSH1 0x3 PUSH1 0x0 DUP3 DUP3 SLOAD PUSH2 0xCE7 SWAP2 SWAP1 PUSH2 0x14C4 JUMP JUMPDEST SWAP1 SWAP2 SSTORE POP POP POP POP JUMP JUMPDEST PUSH1 0x5 DUP2 DUP2 SLOAD DUP2 LT PUSH2 0xD00 JUMPI PUSH1 0x0 DUP1 REVERT JUMPDEST PUSH1 0x0 SWAP2 DUP3 MSTORE PUSH1 0x20 SWAP1 SWAP2 KECCAK256 PUSH1 0x5 SWAP1 SWAP2 MUL ADD DUP1 SLOAD PUSH1 0x1 DUP3 ADD SLOAD PUSH1 0x2 DUP4 ADD SLOAD PUSH1 0x3 DUP5 ADD SLOAD PUSH1 0x4 SWAP1 SWAP5 ADD SLOAD PUSH1 0x1 PUSH1 0x1 PUSH1 0xA0 SHL SUB SWAP1 SWAP4 AND SWAP5 POP SWAP1 SWAP3 SWAP1 SWAP2 DUP6 JUMP JUMPDEST PUSH1 0x6 DUP2 DUP2 SLOAD DUP2 LT PUSH2 0xD4B JUMPI PUSH1 0x0 DUP1 REVERT JUMPDEST PUSH1 0x0 SWAP2 DUP3 MSTORE PUSH1 0x20 SWAP1 SWAP2 KECCAK256 PUSH1 0x3 SWAP1 SWAP2 MUL ADD DUP1 SLOAD PUSH1 0x1 DUP3 ADD SLOAD PUSH1 0x2 SWAP1 SWAP3 ADD SLOAD SWAP1 SWAP3 POP DUP4 JUMP JUMPDEST PUSH1 0x0 PUSH1 0x5 DUP3 DUP2 SLOAD DUP2 LT PUSH2 0xD83 JUMPI PUSH2 0xD83 PUSH2 0x14AE JUMP JUMPDEST SWAP1 PUSH1 0x0 MSTORE PUSH1 0x20 PUSH1 0x0 KECCAK256 SWAP1 PUSH1 0x5 MUL ADD PUSH1 0x4 ADD DUP2 SWAP1 SSTORE POP PUSH1 0x0 DUP1 PUSH5 0x757B12C00 SWAP1 POP PUSH1 0x5 DUP4 DUP2 SLOAD DUP2 LT PUSH2 0xDB6 JUMPI PUSH2 0xDB6 PUSH2 0x14AE JUMP JUMPDEST SWAP1 PUSH1 0x0 MSTORE PUSH1 0x20 PUSH1 0x0 KECCAK256 SWAP1 PUSH1 0x5 MUL ADD PUSH1 0x3 ADD SLOAD SWAP2 POP PUSH1 0x0 JUMPDEST PUSH1 0x6 SLOAD DUP2 LT ISZERO PUSH2 0x1438 JUMPI PUSH1 0x5 DUP5 DUP2 SLOAD DUP2 LT PUSH2 0xDEA JUMPI PUSH2 0xDEA PUSH2 0x14AE JUMP JUMPDEST SWAP1 PUSH1 0x0 MSTORE PUSH1 0x20 PUSH1 0x0 KECCAK256 SWAP1 PUSH1 0x5 MUL ADD PUSH1 0x2 ADD SLOAD PUSH1 0x6 DUP3 DUP2 SLOAD DUP2 LT PUSH2 0xE0F JUMPI PUSH2 0xE0F PUSH2 0x14AE JUMP JUMPDEST SWAP1 PUSH1 0x0 MSTORE PUSH1 0x20 PUSH1 0x0 KECCAK256 SWAP1 PUSH1 0x3 MUL ADD PUSH1 0x1 ADD SLOAD GT ISZERO DUP1 ISZERO PUSH2 0xE53 JUMPI POP PUSH1 0x6 DUP2 DUP2 SLOAD DUP2 LT PUSH2 0xE3D JUMPI PUSH2 0xE3D PUSH2 0x14AE JUMP JUMPDEST SWAP1 PUSH1 0x0 MSTORE PUSH1 0x20 PUSH1 0x0 KECCAK256 SWAP1 PUSH1 0x3 MUL ADD PUSH1 0x2 ADD SLOAD PUSH1 0x0 EQ JUMPDEST ISZERO PUSH2 0xF2F JUMPI DUP2 PUSH1 0x5 DUP6 DUP2 SLOAD DUP2 LT PUSH2 0xE6C JUMPI PUSH2 0xE6C PUSH2 0x14AE JUMP JUMPDEST SWAP1 PUSH1 0x0 MSTORE PUSH1 0x20 PUSH1 0x0 KECCAK256 SWAP1 PUSH1 0x5 MUL ADD PUSH1 0x1 ADD SLOAD PUSH1 0x6 DUP4 DUP2 SLOAD DUP2 LT PUSH2 0xE91 JUMPI PUSH2 0xE91 PUSH2 0x14AE JUMP JUMPDEST SWAP1 PUSH1 0x0 MSTORE PUSH1 0x20 PUSH1 0x0 KECCAK256 SWAP1 PUSH1 0x3 MUL ADD PUSH1 0x0 ADD SLOAD PUSH1 0x5 DUP8 DUP2 SLOAD DUP2 LT PUSH2 0xEB6 JUMPI PUSH2 0xEB6 PUSH2 0x14AE JUMP JUMPDEST SWAP1 PUSH1 0x0 MSTORE PUSH1 0x20 PUSH1 0x0 KECCAK256 SWAP1 PUSH1 0x5 MUL ADD PUSH1 0x2 ADD SLOAD DUP7 PUSH2 0xED3 SWAP2 SWAP1 PUSH2 0x14C4 JUMP JUMPDEST PUSH2 0xEDD SWAP2 SWAP1 PUSH2 0x14DB JUMP JUMPDEST PUSH2 0xEE7 SWAP2 SWAP1 PUSH2 0x14DB JUMP JUMPDEST PUSH2 0xEF1 SWAP2 SWAP1 PUSH2 0x14FA JUMP JUMPDEST PUSH1 0x5 DUP6 DUP2 SLOAD DUP2 LT PUSH2 0xF04 JUMPI PUSH2 0xF04 PUSH2 0x14AE JUMP JUMPDEST SWAP1 PUSH1 0x0 MSTORE PUSH1 0x20 PUSH1 0x0 KECCAK256 SWAP1 PUSH1 0x5 MUL ADD PUSH1 0x4 ADD PUSH1 0x0 DUP3 DUP3 SLOAD PUSH2 0xF24 SWAP2 SWAP1 PUSH2 0x1496 JUMP JUMPDEST SWAP1 SWAP2 SSTORE POP PUSH2 0x1426 SWAP1 POP JUMP JUMPDEST PUSH1 0x5 DUP5 DUP2 SLOAD DUP2 LT PUSH2 0xF42 JUMPI PUSH2 0xF42 PUSH2 0x14AE JUMP JUMPDEST SWAP1 PUSH1 0x0 MSTORE PUSH1 0x20 PUSH1 0x0 KECCAK256 SWAP1 PUSH1 0x5 MUL ADD PUSH1 0x2 ADD SLOAD PUSH1 0x6 DUP3 DUP2 SLOAD DUP2 LT PUSH2 0xF67 JUMPI PUSH2 0xF67 PUSH2 0x14AE JUMP JUMPDEST SWAP1 PUSH1 0x0 MSTORE PUSH1 0x20 PUSH1 0x0 KECCAK256 SWAP1 PUSH1 0x3 MUL ADD PUSH1 0x1 ADD SLOAD GT ISZERO DUP1 ISZERO PUSH2 0xFCF JUMPI POP PUSH1 0x5 DUP5 DUP2 SLOAD DUP2 LT PUSH2 0xF95 JUMPI PUSH2 0xF95 PUSH2 0x14AE JUMP JUMPDEST SWAP1 PUSH1 0x0 MSTORE PUSH1 0x20 PUSH1 0x0 KECCAK256 SWAP1 PUSH1 0x5 MUL ADD PUSH1 0x2 ADD SLOAD PUSH1 0x6 DUP3 DUP2 SLOAD DUP2 LT PUSH2 0xFBA JUMPI PUSH2 0xFBA PUSH2 0x14AE JUMP JUMPDEST SWAP1 PUSH1 0x0 MSTORE PUSH1 0x20 PUSH1 0x0 KECCAK256 SWAP1 PUSH1 0x3 MUL ADD PUSH1 0x2 ADD SLOAD LT ISZERO JUMPDEST DUP1 ISZERO PUSH2 0x1000 JUMPI POP PUSH1 0x6 DUP2 DUP2 SLOAD DUP2 LT PUSH2 0xFE9 JUMPI PUSH2 0xFE9 PUSH2 0x14AE JUMP JUMPDEST SWAP1 PUSH1 0x0 MSTORE PUSH1 0x20 PUSH1 0x0 KECCAK256 SWAP1 PUSH1 0x3 MUL ADD PUSH1 0x2 ADD SLOAD PUSH1 0x0 EQ ISZERO JUMPDEST ISZERO PUSH2 0x1182 JUMPI PUSH1 0x0 PUSH1 0x5 DUP6 DUP2 SLOAD DUP2 LT PUSH2 0x101A JUMPI PUSH2 0x101A PUSH2 0x14AE JUMP JUMPDEST SWAP1 PUSH1 0x0 MSTORE PUSH1 0x20 PUSH1 0x0 KECCAK256 SWAP1 PUSH1 0x5 MUL ADD PUSH1 0x3 ADD SLOAD PUSH1 0x6 DUP4 DUP2 SLOAD DUP2 LT PUSH2 0x103F JUMPI PUSH2 0x103F PUSH2 0x14AE JUMP JUMPDEST SWAP1 PUSH1 0x0 MSTORE PUSH1 0x20 PUSH1 0x0 KECCAK256 SWAP1 PUSH1 0x3 MUL ADD PUSH1 0x2 ADD SLOAD LT PUSH2 0x1082 JUMPI PUSH1 0x5 DUP6 DUP2 SLOAD DUP2 LT PUSH2 0x1069 JUMPI PUSH2 0x1069 PUSH2 0x14AE JUMP JUMPDEST SWAP1 PUSH1 0x0 MSTORE PUSH1 0x20 PUSH1 0x0 KECCAK256 SWAP1 PUSH1 0x5 MUL ADD PUSH1 0x3 ADD SLOAD SWAP1 POP PUSH2 0x10AA JUMP JUMPDEST PUSH1 0x6 DUP3 DUP2 SLOAD DUP2 LT PUSH2 0x1095 JUMPI PUSH2 0x1095 PUSH2 0x14AE JUMP JUMPDEST SWAP1 PUSH1 0x0 MSTORE PUSH1 0x20 PUSH1 0x0 KECCAK256 SWAP1 PUSH1 0x3 MUL ADD PUSH1 0x2 ADD SLOAD SWAP1 POP JUMPDEST DUP3 PUSH1 0x5 DUP7 DUP2 SLOAD DUP2 LT PUSH2 0x10BE JUMPI PUSH2 0x10BE PUSH2 0x14AE JUMP JUMPDEST SWAP1 PUSH1 0x0 MSTORE PUSH1 0x20 PUSH1 0x0 KECCAK256 SWAP1 PUSH1 0x5 MUL ADD PUSH1 0x1 ADD SLOAD PUSH1 0x6 DUP5 DUP2 SLOAD DUP2 LT PUSH2 0x10E3 JUMPI PUSH2 0x10E3 PUSH2 0x14AE JUMP JUMPDEST SWAP1 PUSH1 0x0 MSTORE PUSH1 0x20 PUSH1 0x0 KECCAK256 SWAP1 PUSH1 0x3 MUL ADD PUSH1 0x0 ADD SLOAD PUSH1 0x5 DUP9 DUP2 SLOAD DUP2 LT PUSH2 0x1108 JUMPI PUSH2 0x1108 PUSH2 0x14AE JUMP JUMPDEST SWAP1 PUSH1 0x0 MSTORE PUSH1 0x20 PUSH1 0x0 KECCAK256 SWAP1 PUSH1 0x5 MUL ADD PUSH1 0x2 ADD SLOAD DUP5 PUSH2 0x1125 SWAP2 SWAP1 PUSH2 0x14C4 JUMP JUMPDEST PUSH2 0x112F SWAP2 SWAP1 PUSH2 0x14DB JUMP JUMPDEST PUSH2 0x1139 SWAP2 SWAP1 PUSH2 0x14DB JUMP JUMPDEST PUSH2 0x1143 SWAP2 SWAP1 PUSH2 0x14FA JUMP JUMPDEST PUSH1 0x5 DUP7 DUP2 SLOAD DUP2 LT PUSH2 0x1156 JUMPI PUSH2 0x1156 PUSH2 0x14AE JUMP JUMPDEST SWAP1 PUSH1 0x0 MSTORE PUSH1 0x20 PUSH1 0x0 KECCAK256 SWAP1 PUSH1 0x5 MUL ADD PUSH1 0x4 ADD PUSH1 0x0 DUP3 DUP3 SLOAD PUSH2 0x1176 SWAP2 SWAP1 PUSH2 0x1496 JUMP JUMPDEST SWAP1 SWAP2 SSTORE POP PUSH2 0x1426 SWAP2 POP POP JUMP JUMPDEST PUSH1 0x5 DUP5 DUP2 SLOAD DUP2 LT PUSH2 0x1195 JUMPI PUSH2 0x1195 PUSH2 0x14AE JUMP JUMPDEST SWAP1 PUSH1 0x0 MSTORE PUSH1 0x20 PUSH1 0x0 KECCAK256 SWAP1 PUSH1 0x5 MUL ADD PUSH1 0x2 ADD SLOAD PUSH1 0x6 DUP3 DUP2 SLOAD DUP2 LT PUSH2 0x11BA JUMPI PUSH2 0x11BA PUSH2 0x14AE JUMP JUMPDEST SWAP1 PUSH1 0x0 MSTORE PUSH1 0x20 PUSH1 0x0 KECCAK256 SWAP1 PUSH1 0x3 MUL ADD PUSH1 0x1 ADD SLOAD LT ISZERO DUP1 ISZERO PUSH2 0x11FE JUMPI POP DUP3 PUSH1 0x6 DUP3 DUP2 SLOAD DUP2 LT PUSH2 0x11E9 JUMPI PUSH2 0x11E9 PUSH2 0x14AE JUMP JUMPDEST SWAP1 PUSH1 0x0 MSTORE PUSH1 0x20 PUSH1 0x0 KECCAK256 SWAP1 PUSH1 0x3 MUL ADD PUSH1 0x2 ADD SLOAD GT ISZERO JUMPDEST DUP1 ISZERO PUSH2 0x122F JUMPI POP PUSH1 0x6 DUP2 DUP2 SLOAD DUP2 LT PUSH2 0x1218 JUMPI PUSH2 0x1218 PUSH2 0x14AE JUMP JUMPDEST SWAP1 PUSH1 0x0 MSTORE PUSH1 0x20 PUSH1 0x0 KECCAK256 SWAP1 PUSH1 0x3 MUL ADD PUSH1 0x2 ADD SLOAD PUSH1 0x0 EQ ISZERO JUMPDEST ISZERO PUSH2 0x12D3 JUMPI DUP2 PUSH1 0x5 DUP6 DUP2 SLOAD DUP2 LT PUSH2 0x1248 JUMPI PUSH2 0x1248 PUSH2 0x14AE JUMP JUMPDEST SWAP1 PUSH1 0x0 MSTORE PUSH1 0x20 PUSH1 0x0 KECCAK256 SWAP1 PUSH1 0x5 MUL ADD PUSH1 0x1 ADD SLOAD PUSH1 0x6 DUP4 DUP2 SLOAD DUP2 LT PUSH2 0x126D JUMPI PUSH2 0x126D PUSH2 0x14AE JUMP JUMPDEST SWAP1 PUSH1 0x0 MSTORE PUSH1 0x20 PUSH1 0x0 KECCAK256 SWAP1 PUSH1 0x3 MUL ADD PUSH1 0x0 ADD SLOAD PUSH1 0x6 DUP5 DUP2 SLOAD DUP2 LT PUSH2 0x1292 JUMPI PUSH2 0x1292 PUSH2 0x14AE JUMP JUMPDEST SWAP1 PUSH1 0x0 MSTORE PUSH1 0x20 PUSH1 0x0 KECCAK256 SWAP1 PUSH1 0x3 MUL ADD PUSH1 0x1 ADD SLOAD PUSH1 0x6 DUP6 DUP2 SLOAD DUP2 LT PUSH2 0x12B7 JUMPI PUSH2 0x12B7 PUSH2 0x14AE JUMP JUMPDEST SWAP1 PUSH1 0x0 MSTORE PUSH1 0x20 PUSH1 0x0 KECCAK256 SWAP1 PUSH1 0x3 MUL ADD PUSH1 0x2 ADD SLOAD PUSH2 0xED3 SWAP2 SWAP1 PUSH2 0x14C4 JUMP JUMPDEST DUP3 PUSH1 0x6 DUP3 DUP2 SLOAD DUP2 LT PUSH2 0x12E7 JUMPI PUSH2 0x12E7 PUSH2 0x14AE JUMP JUMPDEST SWAP1 PUSH1 0x0 MSTORE PUSH1 0x20 PUSH1 0x0 KECCAK256 SWAP1 PUSH1 0x3 MUL ADD PUSH1 0x1 ADD SLOAD GT ISZERO DUP1 ISZERO PUSH2 0x134F JUMPI POP PUSH1 0x5 DUP5 DUP2 SLOAD DUP2 LT PUSH2 0x1315 JUMPI PUSH2 0x1315 PUSH2 0x14AE JUMP JUMPDEST SWAP1 PUSH1 0x0 MSTORE PUSH1 0x20 PUSH1 0x0 KECCAK256 SWAP1 PUSH1 0x5 MUL ADD PUSH1 0x2 ADD SLOAD PUSH1 0x6 DUP3 DUP2 SLOAD DUP2 LT PUSH2 0x133A JUMPI PUSH2 0x133A PUSH2 0x14AE JUMP JUMPDEST SWAP1 PUSH1 0x0 MSTORE PUSH1 0x20 PUSH1 0x0 KECCAK256 SWAP1 PUSH1 0x3 MUL ADD PUSH1 0x1 ADD SLOAD LT ISZERO JUMPDEST ISZERO PUSH2 0x1426 JUMPI DUP2 PUSH1 0x5 DUP6 DUP2 SLOAD DUP2 LT PUSH2 0x1368 JUMPI PUSH2 0x1368 PUSH2 0x14AE JUMP JUMPDEST SWAP1 PUSH1 0x0 MSTORE PUSH1 0x20 PUSH1 0x0 KECCAK256 SWAP1 PUSH1 0x5 MUL ADD PUSH1 0x1 ADD SLOAD PUSH1 0x6 DUP4 DUP2 SLOAD DUP2 LT PUSH2 0x138D JUMPI PUSH2 0x138D PUSH2 0x14AE JUMP JUMPDEST SWAP1 PUSH1 0x0 MSTORE PUSH1 0x20 PUSH1 0x0 KECCAK256 SWAP1 PUSH1 0x3 MUL ADD PUSH1 0x0 ADD SLOAD PUSH1 0x6 DUP5 DUP2 SLOAD DUP2 LT PUSH2 0x13B2 JUMPI PUSH2 0x13B2 PUSH2 0x14AE JUMP JUMPDEST SWAP1 PUSH1 0x0 MSTORE PUSH1 0x20 PUSH1 0x0 KECCAK256 SWAP1 PUSH1 0x3 MUL ADD PUSH1 0x1 ADD SLOAD DUP7 PUSH2 0x13CF SWAP2 SWAP1 PUSH2 0x14C4 JUMP JUMPDEST PUSH2 0x13D9 SWAP2 SWAP1 PUSH2 0x14DB JUMP JUMPDEST PUSH2 0x13E3 SWAP2 SWAP1 PUSH2 0x14DB JUMP JUMPDEST PUSH2 0x13ED SWAP2 SWAP1 PUSH2 0x14FA JUMP JUMPDEST PUSH1 0x5 DUP6 DUP2 SLOAD DUP2 LT PUSH2 0x1400 JUMPI PUSH2 0x1400 PUSH2 0x14AE JUMP JUMPDEST SWAP1 PUSH1 0x0 MSTORE PUSH1 0x20 PUSH1 0x0 KECCAK256 SWAP1 PUSH1 0x5 MUL ADD PUSH1 0x4 ADD PUSH1 0x0 DUP3 DUP3 SLOAD PUSH2 0x1420 SWAP2 SWAP1 PUSH2 0x1496 JUMP JUMPDEST SWAP1 SWAP2 SSTORE POP POP JUMPDEST DUP1 PUSH2 0x1430 DUP2 PUSH2 0x151C JUMP JUMPDEST SWAP2 POP POP PUSH2 0xDCD JUMP JUMPDEST POP POP POP POP JUMP JUMPDEST PUSH1 0x0 PUSH1 0x20 DUP3 DUP5 SUB SLT ISZERO PUSH2 0x1450 JUMPI PUSH1 0x0 DUP1 REVERT JUMPDEST POP CALLDATALOAD SWAP2 SWAP1 POP JUMP JUMPDEST PUSH1 0x0 PUSH1 0x20 DUP3 DUP5 SUB SLT ISZERO PUSH2 0x1469 JUMPI PUSH1 0x0 DUP1 REVERT JUMPDEST DUP2 MLOAD DUP1 ISZERO ISZERO DUP2 EQ PUSH2 0x1479 JUMPI PUSH1 0x0 DUP1 REVERT JUMPDEST SWAP4 SWAP3 POP POP POP JUMP JUMPDEST PUSH4 0x4E487B71 PUSH1 0xE0 SHL PUSH1 0x0 MSTORE PUSH1 0x11 PUSH1 0x4 MSTORE PUSH1 0x24 PUSH1 0x0 REVERT JUMPDEST PUSH1 0x0 DUP3 NOT DUP3 GT ISZERO PUSH2 0x14A9 JUMPI PUSH2 0x14A9 PUSH2 0x1480 JUMP JUMPDEST POP ADD SWAP1 JUMP JUMPDEST PUSH4 0x4E487B71 PUSH1 0xE0 SHL PUSH1 0x0 MSTORE PUSH1 0x32 PUSH1 0x4 MSTORE PUSH1 0x24 PUSH1 0x0 REVERT JUMPDEST PUSH1 0x0 DUP3 DUP3 LT ISZERO PUSH2 0x14D6 JUMPI PUSH2 0x14D6 PUSH2 0x1480 JUMP JUMPDEST POP SUB SWAP1 JUMP JUMPDEST PUSH1 0x0 DUP2 PUSH1 0x0 NOT DIV DUP4 GT DUP3 ISZERO ISZERO AND ISZERO PUSH2 0x14F5 JUMPI PUSH2 0x14F5 PUSH2 0x1480 JUMP JUMPDEST POP MUL SWAP1 JUMP JUMPDEST PUSH1 0x0 DUP3 PUSH2 0x1517 JUMPI PUSH4 0x4E487B71 PUSH1 0xE0 SHL PUSH1 0x0 MSTORE PUSH1 0x12 PUSH1 0x4 MSTORE PUSH1 0x24 PUSH1 0x0 REVERT JUMPDEST POP DIV SWAP1 JUMP JUMPDEST PUSH1 0x0 PUSH1 0x1 DUP3 ADD PUSH2 0x152E JUMPI PUSH2 0x152E PUSH2 0x1480 JUMP JUMPDEST POP PUSH1 0x1 ADD SWAP1 JUMP INVALID LOG2 PUSH5 0x6970667358 0x22 SLT KECCAK256 PUSH27 0x7DA37532DC2CE4D519DBFE59437F2DF1D03D0EAFBD021DB421E510 0xD0 SWAP14 0xBA PUSH29 0x64736F6C634300080D0033000000000000000000000000000000000000 ",
  "sha1": "86950b0cb498a93af6dbcb31120720657335d5f4",
  "source": "// SPDX-License-Identifier: MIT\npragma solidity ^0.8;\n\n\n\ncontract StakingRewards {\n    ERC20 public stakingToken;\n\n\n    uint public _poolSize; //all stakes together\n    uint public _lockingPeriod; // time period in which each individual stake is locked in the contract\n    uint public contractBalance; // balance of the contract from which the rewards are payed\n    \n    address private owner;\n\n    struct Stake {\n        address user;\n        uint amount;\n        uint sinceBlock; // start of staking\n        uint untilBlock; // end of staking\n        uint reward;\n         }\n\n    struct Reward{\n        uint reward; // reward in promille\n        uint start; // start of reward period\n        uint end; // end of reward period\n    }\n\n    Stake[] public stakes;\n    Reward[] public rewards;\n   \n\n    constructor(address _stakingToken, uint lockingPeriod) {\n        stakingToken = ERC20(_stakingToken);\n        owner = msg.sender;\n        _lockingPeriod = lockingPeriod;\n        rewards.push(Reward(uint(100), uint(block.timestamp), uint(0))); //set first reward rate as 100\n    }\n\n    modifier _ownerOnly(){\n      require(msg.sender == owner);\n      _;\n    }\n\n    //function to deposit funds to the contract. Funds are used to pay the staking rewards\n    function ownerDeposit(uint _amount) external _ownerOnly{\n        stakingToken.transferFrom(msg.sender, address(this), _amount);\n        contractBalance += _amount;\n    }\n\n    //function to withdraw from the Contract\n    function ownerWithdraw(uint _amount) external _ownerOnly{\n        stakingToken.transfer(msg.sender, _amount);\n        contractBalance -= _amount;\n    }\n\n    //function to create an individual stake\n    function stake(uint _amount) external returns(uint) {\n        require(_amount > 0, 'Nothing to stake'); //check that you stake something\n\n        bool isTransfered = stakingToken.transferFrom(msg.sender, address(this), _amount);\n\n        require(isTransfered == true, \"Error while transfer\"); // breaks if an error occoured during transfer\n\n        _poolSize += _amount;\n        stakes.push(Stake(msg.sender, _amount, uint(block.timestamp), uint(block.timestamp + _lockingPeriod ), 0));\n        return stakes.length;\n                \n    }\n\n    //function to withdraw your funds\n    function unstake (uint _id) external  {\n        require(stakes[_id].user == msg.sender, 'Not your stake'); //check if its your stake\n        require(stakes[_id].untilBlock < uint(block.timestamp), 'Too early'); //check if locking period is over\n        require(stakes[_id].amount > 0, 'Nothing to unstake');\n        \n        calculateReward(_id); // Calculate Reward of the Stake\n        uint _amount;\n\n        if(contractBalance < stakes[_id].reward){ // if there is not enough balance to pay the reward, just pay the stake back. Prevent locked funds.\n            _amount = stakes[_id].amount;\n        }\n\n        else{\n            _amount = stakes[_id].amount + stakes[_id].reward; //add reward to the payout amount\n            contractBalance -= stakes[_id].reward; // reduce the contractBalance by the amount of the Reward\n            stakes[_id].reward =0; // empty the reward\n\n        }\n\n        _poolSize-= stakes[_id].amount; \n        stakes[_id].amount= 0;\n        stakingToken.transfer(msg.sender, _amount); //transfer the payout\n        \n        \n    }\n\n    function claimReward(uint _id) external {\n         require(stakes[_id].user == msg.sender, 'Not your reward');\n         require(stakes[_id].untilBlock < uint(block.timestamp), 'Too early');\n         require(stakes[_id].reward <= contractBalance, 'Not enough funds to payout' );\n         require(stakes[_id].reward > 0, 'Nothing to payout' );\n         require(stakes[_id].amount == 0, 'Use unstake' );\n\n         \n         uint _amount= stakes[_id].reward;\n         stakes[_id].reward = 0; //empty rewards.\n         stakingToken.transfer(msg.sender, _amount ); //transfer the payout\n         contractBalance -= _amount; // reduce the contract balance \n         \n      \n    }\n\n    //function to calculate the reward of each individual stake\n    function calculateReward(uint _id) internal {\n        stakes[_id].reward = 0; //set reward to 0 to prevent adding it everytime\n        uint end;\n        uint divisor = 31536000000; // 24*60*60(Days) * 365(year) * 1000 (promille)\n\n        end = stakes[_id].untilBlock;\n        \n         for (uint i=0; i<rewards.length; i++){\n             \n            if ((rewards[i].start <= stakes[_id].sinceBlock)  && (rewards[i].end == 0)){\n                stakes[_id].reward +=((end - stakes[_id].sinceBlock) * rewards[i].reward * stakes[_id].amount)/divisor; // if staking starts and ends without reward change\n            }\n\n            else if((rewards[i].start <= stakes[_id].sinceBlock) && (rewards[i].end >= stakes[_id].sinceBlock) && (rewards[i].end != 0)){\n                uint endOfBlock;\n                \n                if(rewards[i].end >= stakes[_id].untilBlock){\n                    endOfBlock = stakes[_id].untilBlock;\n                }\n                else{\n                    endOfBlock = rewards[i].end;\n                }\n\n                stakes[_id].reward += ((endOfBlock - stakes[_id].sinceBlock) * rewards[i].reward * stakes[_id].amount)/divisor; //first reward rate of the stake\n            }\n\n            else if ((rewards[i].start >= stakes[_id].sinceBlock) && (rewards[i].end <= end) && (rewards[i].end != 0)  ){\n                stakes[_id].reward += ((rewards[i].end - rewards[i].start) * rewards[i].reward * stakes[_id].amount)/divisor; //reward rate during staking\n            }\n\n            else if ((rewards[i].start <= end) && (rewards[i].start >= stakes[_id].sinceBlock)){\n                stakes[_id].reward += ((end - rewards[i].start) * rewards[i].reward * stakes[_id].amount)/divisor; //last reward rate of the stake\n            }\n\n        }\n\n\n    }\n\n    //function to set reward rate for current timeperiod\n    function setRewardRate(uint rate) public _ownerOnly {    \n        rewards.push(Reward(rate, uint(block.timestamp), uint(0))); // last reward rate has 0 as end as identifier. \n        if(rewards.length>1){\n            rewards[rewards.length -2].end = uint(block.timestamp); //set end of the previous reward rate to actual time\n        }\n        \n    }  \n\n    //function to check how long your funds are stil locked\n    function untilLockingEnd(uint _id) public view returns(uint) {\n        if(stakes[_id].untilBlock < block.timestamp){\n            return 0;\n        }\n        else{\n            return stakes[_id].untilBlock - uint(block.timestamp);\n\n        }\n    }\n\n}\n\ninterface ERC20 {\n\n    function balanceOf(address account) external view returns (uint);\n\n    function transfer(address recipient, uint amount) external returns (bool);\n\n    function allowance(address owner, address spender) external view returns (uint);\n\n    function approve(address spender, uint amount) external returns (bool);\n\n    function transferFrom(\n        address sender,\n        address recipient,\n        uint amount\n    ) external returns (bool);\n\n    event Transfer(address indexed from, address indexed to, uint value);\n    event Approval(address indexed owner, address indexed spender, uint value);\n}",
  "sourcePath": "contracts/stakingRewards.sol",
  "type": "contract"
}