{
  "contractName": "StakingRewards",
  "abi": [
    {
      "inputs": [
        {
          "internalType": "address",
          "name": "_stakingToken",
          "type": "address"
        }
      ],
      "stateMutability": "nonpayable",
      "type": "constructor"
    },
    {
      "inputs": [],
      "name": "_poolSize",
      "outputs": [
        {
          "internalType": "uint256",
          "name": "",
          "type": "uint256"
        }
      ],
      "stateMutability": "view",
      "type": "function",
      "constant": true
    },
    {
      "inputs": [],
      "name": "contractBalance",
      "outputs": [
        {
          "internalType": "uint256",
          "name": "",
          "type": "uint256"
        }
      ],
      "stateMutability": "view",
      "type": "function",
      "constant": true
    },
    {
      "inputs": [],
      "name": "lastUpdateTime",
      "outputs": [
        {
          "internalType": "uint256",
          "name": "",
          "type": "uint256"
        }
      ],
      "stateMutability": "view",
      "type": "function",
      "constant": true
    },
    {
      "inputs": [],
      "name": "rewardPerTokenStored",
      "outputs": [
        {
          "internalType": "uint256",
          "name": "",
          "type": "uint256"
        }
      ],
      "stateMutability": "view",
      "type": "function",
      "constant": true
    },
    {
      "inputs": [],
      "name": "rewardRate",
      "outputs": [
        {
          "internalType": "uint256",
          "name": "",
          "type": "uint256"
        }
      ],
      "stateMutability": "view",
      "type": "function",
      "constant": true
    },
    {
      "inputs": [
        {
          "internalType": "address",
          "name": "",
          "type": "address"
        }
      ],
      "name": "rewards",
      "outputs": [
        {
          "internalType": "uint256",
          "name": "",
          "type": "uint256"
        }
      ],
      "stateMutability": "view",
      "type": "function",
      "constant": true
    },
    {
      "inputs": [],
      "name": "stakingToken",
      "outputs": [
        {
          "internalType": "contract ERC20",
          "name": "",
          "type": "address"
        }
      ],
      "stateMutability": "view",
      "type": "function",
      "constant": true
    },
    {
      "inputs": [
        {
          "internalType": "address",
          "name": "",
          "type": "address"
        }
      ],
      "name": "userRewardPerTokenPaid",
      "outputs": [
        {
          "internalType": "uint256",
          "name": "",
          "type": "uint256"
        }
      ],
      "stateMutability": "view",
      "type": "function",
      "constant": true
    },
    {
      "inputs": [
        {
          "internalType": "uint256",
          "name": "_amount",
          "type": "uint256"
        }
      ],
      "name": "ownerDeposit",
      "outputs": [],
      "stateMutability": "nonpayable",
      "type": "function"
    },
    {
      "inputs": [
        {
          "internalType": "uint256",
          "name": "_amount",
          "type": "uint256"
        }
      ],
      "name": "ownerWithdraw",
      "outputs": [],
      "stateMutability": "nonpayable",
      "type": "function"
    },
    {
      "inputs": [
        {
          "internalType": "uint256",
          "name": "rate",
          "type": "uint256"
        }
      ],
      "name": "setRewardRate",
      "outputs": [],
      "stateMutability": "nonpayable",
      "type": "function"
    },
    {
      "inputs": [],
      "name": "rewardPerToken",
      "outputs": [
        {
          "internalType": "uint256",
          "name": "",
          "type": "uint256"
        }
      ],
      "stateMutability": "view",
      "type": "function",
      "constant": true
    },
    {
      "inputs": [
        {
          "internalType": "address",
          "name": "account",
          "type": "address"
        }
      ],
      "name": "earned",
      "outputs": [
        {
          "internalType": "uint256",
          "name": "",
          "type": "uint256"
        }
      ],
      "stateMutability": "view",
      "type": "function",
      "constant": true
    },
    {
      "inputs": [
        {
          "internalType": "uint256",
          "name": "_amount",
          "type": "uint256"
        }
      ],
      "name": "stake",
      "outputs": [],
      "stateMutability": "nonpayable",
      "type": "function"
    },
    {
      "inputs": [
        {
          "internalType": "uint256",
          "name": "_amount",
          "type": "uint256"
        }
      ],
      "name": "withdraw",
      "outputs": [],
      "stateMutability": "nonpayable",
      "type": "function"
    },
    {
      "inputs": [],
      "name": "getReward",
      "outputs": [],
      "stateMutability": "nonpayable",
      "type": "function"
    }
  ],
  "bytecode": "0x60806040523480156200001157600080fd5b506040516200125938038062001259833981810160405281019062000037919062000129565b806000806101000a81548173ffffffffffffffffffffffffffffffffffffffff021916908373ffffffffffffffffffffffffffffffffffffffff16021790555033600160006101000a81548173ffffffffffffffffffffffffffffffffffffffff021916908373ffffffffffffffffffffffffffffffffffffffff160217905550506200015b565b600080fd5b600073ffffffffffffffffffffffffffffffffffffffff82169050919050565b6000620000f182620000c4565b9050919050565b6200010381620000e4565b81146200010f57600080fd5b50565b6000815190506200012381620000f8565b92915050565b600060208284031215620001425762000141620000bf565b5b6000620001528482850162000112565b91505092915050565b6110ee806200016b6000396000f3fe608060405234801561001057600080fd5b50600436106100ff5760003560e01c80638b7afe2e11610097578063ade70abc11610066578063ade70abc14610284578063c8f33c91146102a2578063cd3daf9d146102c0578063df136d65146102de576100ff565b80638b7afe2e146101fe5780638b8763471461021c5780639e447fc61461024c578063a694fc3a14610268576100ff565b806333f707d1116100d357806333f707d11461019c5780633d18b912146101b857806372f702f3146101c25780637b0a47ee146101e0576100ff565b80628cc262146101045780630700037d14610134578063141833dc146101645780632e1a7d4d14610180575b600080fd5b61011e60048036038101906101199190610d3d565b6102fc565b60405161012b9190610d83565b60405180910390f35b61014e60048036038101906101499190610d3d565b6103fe565b60405161015b9190610d83565b60405180910390f35b61017e60048036038101906101799190610dca565b610416565b005b61019a60048036038101906101959190610dca565b61052d565b005b6101b660048036038101906101b19190610dca565b6106e7565b005b6101c06107fc565b005b6101ca6109e9565b6040516101d79190610e56565b60405180910390f35b6101e8610a0d565b6040516101f59190610d83565b60405180910390f35b610206610a13565b6040516102139190610d83565b60405180910390f35b61023660048036038101906102319190610d3d565b610a19565b6040516102439190610d83565b60405180910390f35b61026660048036038101906102619190610dca565b610a31565b005b610282600480360381019061027d9190610dca565b610a95565b005b61028c610c51565b6040516102999190610d83565b60405180910390f35b6102aa610c57565b6040516102b79190610d83565b60405180910390f35b6102c8610c5d565b6040516102d59190610d83565b60405180910390f35b6102e6610cd4565b6040516102f39190610d83565b60405180910390f35b6000600860008373ffffffffffffffffffffffffffffffffffffffff1673ffffffffffffffffffffffffffffffffffffffff16815260200190815260200160002054670de0b6b3a7640000600760008573ffffffffffffffffffffffffffffffffffffffff1673ffffffffffffffffffffffffffffffffffffffff1681526020019081526020016000205461038f610c5d565b6103999190610ea0565b600960008673ffffffffffffffffffffffffffffffffffffffff1673ffffffffffffffffffffffffffffffffffffffff168152602001908152602001600020546103e39190610ed4565b6103ed9190610f5d565b6103f79190610f8e565b9050919050565b60086020528060005260406000206000915090505481565b600160009054906101000a900473ffffffffffffffffffffffffffffffffffffffff1673ffffffffffffffffffffffffffffffffffffffff163373ffffffffffffffffffffffffffffffffffffffff161461047057600080fd5b60008054906101000a900473ffffffffffffffffffffffffffffffffffffffff1673ffffffffffffffffffffffffffffffffffffffff166323b872dd3330846040518463ffffffff1660e01b81526004016104cd93929190610ff3565b6020604051808303816000875af11580156104ec573d6000803e3d6000fd5b505050506040513d601f19601f820116820180604052508101906105109190611062565b5080600460008282546105239190610f8e565b9250508190555050565b33610536610c5d565b6003819055504260028190555061054c816102fc565b600860008373ffffffffffffffffffffffffffffffffffffffff1673ffffffffffffffffffffffffffffffffffffffff16815260200190815260200160002081905550600354600760008373ffffffffffffffffffffffffffffffffffffffff1673ffffffffffffffffffffffffffffffffffffffff1681526020019081526020016000208190555081600560008282546105e79190610ea0565b9250508190555081600960003373ffffffffffffffffffffffffffffffffffffffff1673ffffffffffffffffffffffffffffffffffffffff168152602001908152602001600020600082825461063d9190610ea0565b9250508190555060008054906101000a900473ffffffffffffffffffffffffffffffffffffffff1673ffffffffffffffffffffffffffffffffffffffff1663a9059cbb33846040518363ffffffff1660e01b815260040161069f92919061108f565b6020604051808303816000875af11580156106be573d6000803e3d6000fd5b505050506040513d601f19601f820116820180604052508101906106e29190611062565b505050565b600160009054906101000a900473ffffffffffffffffffffffffffffffffffffffff1673ffffffffffffffffffffffffffffffffffffffff163373ffffffffffffffffffffffffffffffffffffffff161461074157600080fd5b60008054906101000a900473ffffffffffffffffffffffffffffffffffffffff1673ffffffffffffffffffffffffffffffffffffffff1663a9059cbb33836040518363ffffffff1660e01b815260040161079c92919061108f565b6020604051808303816000875af11580156107bb573d6000803e3d6000fd5b505050506040513d601f19601f820116820180604052508101906107df9190611062565b5080600460008282546107f29190610ea0565b9250508190555050565b33610805610c5d565b6003819055504260028190555061081b816102fc565b600860008373ffffffffffffffffffffffffffffffffffffffff1673ffffffffffffffffffffffffffffffffffffffff16815260200190815260200160002081905550600354600760008373ffffffffffffffffffffffffffffffffffffffff1673ffffffffffffffffffffffffffffffffffffffff168152602001908152602001600020819055506000600860003373ffffffffffffffffffffffffffffffffffffffff1673ffffffffffffffffffffffffffffffffffffffff1681526020019081526020016000205490506000600860003373ffffffffffffffffffffffffffffffffffffffff1673ffffffffffffffffffffffffffffffffffffffff1681526020019081526020016000208190555060008054906101000a900473ffffffffffffffffffffffffffffffffffffffff1673ffffffffffffffffffffffffffffffffffffffff1663a9059cbb33836040518363ffffffff1660e01b815260040161098892919061108f565b6020604051808303816000875af11580156109a7573d6000803e3d6000fd5b505050506040513d601f19601f820116820180604052508101906109cb9190611062565b5080600460008282546109de9190610ea0565b925050819055505050565b60008054906101000a900473ffffffffffffffffffffffffffffffffffffffff1681565b60065481565b60045481565b60076020528060005260406000206000915090505481565b600160009054906101000a900473ffffffffffffffffffffffffffffffffffffffff1673ffffffffffffffffffffffffffffffffffffffff163373ffffffffffffffffffffffffffffffffffffffff1614610a8b57600080fd5b8060068190555050565b33610a9e610c5d565b60038190555042600281905550610ab4816102fc565b600860008373ffffffffffffffffffffffffffffffffffffffff1673ffffffffffffffffffffffffffffffffffffffff16815260200190815260200160002081905550600354600760008373ffffffffffffffffffffffffffffffffffffffff1673ffffffffffffffffffffffffffffffffffffffff168152602001908152602001600020819055508160056000828254610b4f9190610f8e565b9250508190555081600960003373ffffffffffffffffffffffffffffffffffffffff1673ffffffffffffffffffffffffffffffffffffffff1681526020019081526020016000206000828254610ba59190610f8e565b9250508190555060008054906101000a900473ffffffffffffffffffffffffffffffffffffffff1673ffffffffffffffffffffffffffffffffffffffff166323b872dd3330856040518463ffffffff1660e01b8152600401610c0993929190610ff3565b6020604051808303816000875af1158015610c28573d6000803e3d6000fd5b505050506040513d601f19601f82011682018060405250810190610c4c9190611062565b505050565b60055481565b60025481565b6000806004541415610c725760009050610cd1565b60006005541415610c865760009050610cd1565b600554670de0b6b3a764000060065460025442610ca39190610ea0565b610cad9190610ed4565b610cb79190610ed4565b610cc19190610f5d565b600354610cce9190610f8e565b90505b90565b60035481565b600080fd5b600073ffffffffffffffffffffffffffffffffffffffff82169050919050565b6000610d0a82610cdf565b9050919050565b610d1a81610cff565b8114610d2557600080fd5b50565b600081359050610d3781610d11565b92915050565b600060208284031215610d5357610d52610cda565b5b6000610d6184828501610d28565b91505092915050565b6000819050919050565b610d7d81610d6a565b82525050565b6000602082019050610d986000830184610d74565b92915050565b610da781610d6a565b8114610db257600080fd5b50565b600081359050610dc481610d9e565b92915050565b600060208284031215610de057610ddf610cda565b5b6000610dee84828501610db5565b91505092915050565b6000819050919050565b6000610e1c610e17610e1284610cdf565b610df7565b610cdf565b9050919050565b6000610e2e82610e01565b9050919050565b6000610e4082610e23565b9050919050565b610e5081610e35565b82525050565b6000602082019050610e6b6000830184610e47565b92915050565b7f4e487b7100000000000000000000000000000000000000000000000000000000600052601160045260246000fd5b6000610eab82610d6a565b9150610eb683610d6a565b925082821015610ec957610ec8610e71565b5b828203905092915050565b6000610edf82610d6a565b9150610eea83610d6a565b9250817fffffffffffffffffffffffffffffffffffffffffffffffffffffffffffffffff0483118215151615610f2357610f22610e71565b5b828202905092915050565b7f4e487b7100000000000000000000000000000000000000000000000000000000600052601260045260246000fd5b6000610f6882610d6a565b9150610f7383610d6a565b925082610f8357610f82610f2e565b5b828204905092915050565b6000610f9982610d6a565b9150610fa483610d6a565b9250827fffffffffffffffffffffffffffffffffffffffffffffffffffffffffffffffff03821115610fd957610fd8610e71565b5b828201905092915050565b610fed81610cff565b82525050565b60006060820190506110086000830186610fe4565b6110156020830185610fe4565b6110226040830184610d74565b949350505050565b60008115159050919050565b61103f8161102a565b811461104a57600080fd5b50565b60008151905061105c81611036565b92915050565b60006020828403121561107857611077610cda565b5b60006110868482850161104d565b91505092915050565b60006040820190506110a46000830185610fe4565b6110b16020830184610d74565b939250505056fea2646970667358221220c04d2b875b4ade7ee9ec452a520bf6997cc9b6690d10e7ac135845fd81640ddd64736f6c634300080a0033",
  "immutableReferences": {},
  "source": "\r\n// SPDX-License-Identifier: MIT\r\npragma solidity ^0.8.10;\r\n\r\ncontract StakingRewards {\r\n\r\n    ERC20 public stakingToken;\r\n\r\n    address private owner;\r\n\r\n\r\n    uint public lastUpdateTime;\r\n    uint public rewardPerTokenStored;\r\n    uint public contractBalance;\r\n    uint public _poolSize;\r\n    uint public rewardRate;\r\n\r\n    mapping(address => uint) public userRewardPerTokenPaid;\r\n    mapping(address => uint) public rewards;\r\n\r\n\r\n\r\n    mapping(address => uint) private _balances;\r\n\r\n    constructor(address _stakingToken) {\r\n        stakingToken = ERC20(_stakingToken);\r\n        owner = msg.sender;\r\n    }\r\n\r\n    modifier _ownerOnly(){\r\n      require(msg.sender == owner);\r\n      _;\r\n    }\r\n\r\n    function ownerDeposit(uint _amount) public _ownerOnly{\r\n        stakingToken.transferFrom(msg.sender, address(this), _amount);\r\n        contractBalance += _amount;\r\n    }\r\n\r\n        function ownerWithdraw(uint _amount) public _ownerOnly{\r\n        stakingToken.transfer(msg.sender, _amount);\r\n        contractBalance -= _amount;\r\n    }\r\n\r\n\r\n    function setRewardRate(uint rate) public _ownerOnly {\r\n\r\n        rewardRate = rate;\r\n    }\r\n\r\n    function rewardPerToken() public view returns (uint) {\r\n        \r\n        if (contractBalance== 0) {\r\n            return 0;\r\n        }\r\n        if(_poolSize== 0) {\r\n            return 0;\r\n        }\r\n        return\r\n            rewardPerTokenStored +\r\n            (((block.timestamp - lastUpdateTime) * rewardRate * 1e18) / _poolSize);\r\n    }\r\n\r\n    function earned(address account) public view returns (uint) {\r\n        return\r\n            ((_balances[account] *\r\n                (rewardPerToken() - userRewardPerTokenPaid[account])) / 1e18) +\r\n            rewards[account];\r\n    }\r\n\r\n    modifier updateReward(address account) {\r\n        rewardPerTokenStored = rewardPerToken();\r\n        lastUpdateTime = block.timestamp;\r\n\r\n        rewards[account] = earned(account);\r\n        userRewardPerTokenPaid[account] = rewardPerTokenStored;\r\n        _;\r\n    }\r\n\r\n    function stake(uint _amount) external updateReward(msg.sender) {\r\n        _poolSize += _amount;\r\n        _balances[msg.sender] += _amount;\r\n        stakingToken.transferFrom(msg.sender, address(this), _amount);\r\n    }\r\n\r\n    function withdraw(uint _amount) external updateReward(msg.sender) {\r\n        _poolSize-= _amount;\r\n        _balances[msg.sender] -= _amount;\r\n        stakingToken.transfer(msg.sender, _amount);\r\n    }\r\n\r\n    function getReward() external updateReward(msg.sender) {\r\n        uint reward = rewards[msg.sender];\r\n        rewards[msg.sender] = 0;\r\n        stakingToken.transfer(msg.sender, reward);\r\n        contractBalance -= reward;\r\n    }\r\n}\r\n\r\ninterface ERC20 {\r\n\r\n    function balanceOf(address account) external view returns (uint);\r\n\r\n    function transfer(address recipient, uint amount) external returns (bool);\r\n\r\n    function allowance(address owner, address spender) external view returns (uint);\r\n\r\n    function approve(address spender, uint amount) external returns (bool);\r\n\r\n    function transferFrom(\r\n        address sender,\r\n        address recipient,\r\n        uint amount\r\n    ) external returns (bool);\r\n\r\n    event Transfer(address indexed from, address indexed to, uint value);\r\n    event Approval(address indexed owner, address indexed spender, uint value);\r\n}\r\n",
  "sourcePath": "C:\\Users\\WernerLiechti\\Documents\\GitHub\\StakingContract\\contracts\\stakingRewards.sol",
  "compiler": {
    "name": "solc",
    "version": "0.8.10+commit.fc410830.Emscripten.clang"
  },
  "schemaVersion": "3.4.3",
  "updatedAt": "2022-01-14T10:22:53.295Z",
  "networkType": "ethereum",
  "devdoc": {
    "kind": "dev",
    "methods": {},
    "version": 1
  },
  "userdoc": {
    "kind": "user",
    "methods": {},
    "version": 1
  }
}