{
  "contractName": "StakingRewards",
  "abi": [
    {
      "inputs": [
        {
          "internalType": "address",
          "name": "_stakingToken",
          "type": "address"
        }
      ],
      "stateMutability": "nonpayable",
      "type": "constructor"
    },
    {
      "inputs": [],
      "name": "_poolSize",
      "outputs": [
        {
          "internalType": "uint256",
          "name": "",
          "type": "uint256"
        }
      ],
      "stateMutability": "view",
      "type": "function",
      "constant": true
    },
    {
      "inputs": [
        {
          "internalType": "address",
          "name": "",
          "type": "address"
        }
      ],
      "name": "_releaseTime",
      "outputs": [
        {
          "internalType": "uint256",
          "name": "",
          "type": "uint256"
        }
      ],
      "stateMutability": "view",
      "type": "function",
      "constant": true
    },
    {
      "inputs": [],
      "name": "contractBalance",
      "outputs": [
        {
          "internalType": "uint256",
          "name": "",
          "type": "uint256"
        }
      ],
      "stateMutability": "view",
      "type": "function",
      "constant": true
    },
    {
      "inputs": [],
      "name": "lastUpdateTime",
      "outputs": [
        {
          "internalType": "uint256",
          "name": "",
          "type": "uint256"
        }
      ],
      "stateMutability": "view",
      "type": "function",
      "constant": true
    },
    {
      "inputs": [],
      "name": "rewardPerTokenStored",
      "outputs": [
        {
          "internalType": "uint256",
          "name": "",
          "type": "uint256"
        }
      ],
      "stateMutability": "view",
      "type": "function",
      "constant": true
    },
    {
      "inputs": [],
      "name": "rewardRate",
      "outputs": [
        {
          "internalType": "uint256",
          "name": "",
          "type": "uint256"
        }
      ],
      "stateMutability": "view",
      "type": "function",
      "constant": true
    },
    {
      "inputs": [
        {
          "internalType": "address",
          "name": "",
          "type": "address"
        }
      ],
      "name": "rewards",
      "outputs": [
        {
          "internalType": "uint256",
          "name": "",
          "type": "uint256"
        }
      ],
      "stateMutability": "view",
      "type": "function",
      "constant": true
    },
    {
      "inputs": [],
      "name": "stakingToken",
      "outputs": [
        {
          "internalType": "contract ERC20",
          "name": "",
          "type": "address"
        }
      ],
      "stateMutability": "view",
      "type": "function",
      "constant": true
    },
    {
      "inputs": [
        {
          "internalType": "address",
          "name": "",
          "type": "address"
        }
      ],
      "name": "userRewardPerTokenPaid",
      "outputs": [
        {
          "internalType": "uint256",
          "name": "",
          "type": "uint256"
        }
      ],
      "stateMutability": "view",
      "type": "function",
      "constant": true
    },
    {
      "inputs": [
        {
          "internalType": "address",
          "name": "account",
          "type": "address"
        }
      ],
      "name": "releaseTime",
      "outputs": [
        {
          "internalType": "uint256",
          "name": "",
          "type": "uint256"
        }
      ],
      "stateMutability": "view",
      "type": "function",
      "constant": true
    },
    {
      "inputs": [
        {
          "internalType": "address",
          "name": "account",
          "type": "address"
        }
      ],
      "name": "untilRelease",
      "outputs": [
        {
          "internalType": "uint256",
          "name": "",
          "type": "uint256"
        }
      ],
      "stateMutability": "view",
      "type": "function",
      "constant": true
    },
    {
      "inputs": [
        {
          "internalType": "uint256",
          "name": "_amount",
          "type": "uint256"
        }
      ],
      "name": "ownerDeposit",
      "outputs": [],
      "stateMutability": "nonpayable",
      "type": "function"
    },
    {
      "inputs": [
        {
          "internalType": "uint256",
          "name": "_amount",
          "type": "uint256"
        }
      ],
      "name": "ownerWithdraw",
      "outputs": [],
      "stateMutability": "nonpayable",
      "type": "function"
    },
    {
      "inputs": [
        {
          "internalType": "uint256",
          "name": "rate",
          "type": "uint256"
        }
      ],
      "name": "setRewardRate",
      "outputs": [],
      "stateMutability": "nonpayable",
      "type": "function"
    },
    {
      "inputs": [],
      "name": "rewardPerToken",
      "outputs": [
        {
          "internalType": "uint256",
          "name": "",
          "type": "uint256"
        }
      ],
      "stateMutability": "view",
      "type": "function",
      "constant": true
    },
    {
      "inputs": [
        {
          "internalType": "address",
          "name": "account",
          "type": "address"
        }
      ],
      "name": "earned",
      "outputs": [
        {
          "internalType": "uint256",
          "name": "",
          "type": "uint256"
        }
      ],
      "stateMutability": "view",
      "type": "function",
      "constant": true
    },
    {
      "inputs": [
        {
          "internalType": "uint256",
          "name": "_amount",
          "type": "uint256"
        }
      ],
      "name": "stake",
      "outputs": [],
      "stateMutability": "nonpayable",
      "type": "function"
    },
    {
      "inputs": [
        {
          "internalType": "uint256",
          "name": "_amount",
          "type": "uint256"
        }
      ],
      "name": "withdraw",
      "outputs": [],
      "stateMutability": "nonpayable",
      "type": "function"
    },
    {
      "inputs": [],
      "name": "getReward",
      "outputs": [],
      "stateMutability": "nonpayable",
      "type": "function"
    }
  ],
  "bytecode": "0x60806040523480156200001157600080fd5b506040516200154a3803806200154a833981810160405281019062000037919062000129565b806000806101000a81548173ffffffffffffffffffffffffffffffffffffffff021916908373ffffffffffffffffffffffffffffffffffffffff16021790555033600160006101000a81548173ffffffffffffffffffffffffffffffffffffffff021916908373ffffffffffffffffffffffffffffffffffffffff160217905550506200015b565b600080fd5b600073ffffffffffffffffffffffffffffffffffffffff82169050919050565b6000620000f182620000c4565b9050919050565b6200010381620000e4565b81146200010f57600080fd5b50565b6000815190506200012381620000f8565b92915050565b600060208284031215620001425762000141620000bf565b5b6000620001528482850162000112565b91505092915050565b6113df806200016b6000396000f3fe608060405234801561001057600080fd5b50600436106101205760003560e01c80637b0a47ee116100ad578063a694fc3a11610071578063a694fc3a14610319578063ade70abc14610335578063c8f33c9114610353578063cd3daf9d14610371578063df136d651461038f57610120565b80637b0a47ee146102615780638b7afe2e1461027f5780638b8763471461029d5780639e447fc6146102cd578063a49319b5146102e957610120565b806333f707d1116100f457806333f707d1146101bd57806334265c48146101d957806335f73ad4146102095780633d18b9121461023957806372f702f31461024357610120565b80628cc262146101255780630700037d14610155578063141833dc146101855780632e1a7d4d146101a1575b600080fd5b61013f600480360381019061013a9190610f8b565b6103ad565b60405161014c9190610fd1565b60405180910390f35b61016f600480360381019061016a9190610f8b565b6104af565b60405161017c9190610fd1565b60405180910390f35b61019f600480360381019061019a9190611018565b6104c7565b005b6101bb60048036038101906101b69190611018565b6105de565b005b6101d760048036038101906101d29190611018565b6107e3565b005b6101f360048036038101906101ee9190610f8b565b6108f8565b6040516102009190610fd1565b60405180910390f35b610223600480360381019061021e9190610f8b565b610941565b6040516102309190610fd1565b60405180910390f35b610241610959565b005b61024b610b91565b60405161025891906110a4565b60405180910390f35b610269610bb5565b6040516102769190610fd1565b60405180910390f35b610287610bbb565b6040516102949190610fd1565b60405180910390f35b6102b760048036038101906102b29190610f8b565b610bc1565b6040516102c49190610fd1565b60405180910390f35b6102e760048036038101906102e29190611018565b610bd9565b005b61030360048036038101906102fe9190610f8b565b610c3d565b6040516103109190610fd1565b60405180910390f35b610333600480360381019061032e9190611018565b610c91565b005b61033d610e9f565b60405161034a9190610fd1565b60405180910390f35b61035b610ea5565b6040516103689190610fd1565b60405180910390f35b610379610eab565b6040516103869190610fd1565b60405180910390f35b610397610f22565b6040516103a49190610fd1565b60405180910390f35b6000600860008373ffffffffffffffffffffffffffffffffffffffff1673ffffffffffffffffffffffffffffffffffffffff16815260200190815260200160002054670de0b6b3a7640000600760008573ffffffffffffffffffffffffffffffffffffffff1673ffffffffffffffffffffffffffffffffffffffff16815260200190815260200160002054610440610eab565b61044a91906110ee565b600a60008673ffffffffffffffffffffffffffffffffffffffff1673ffffffffffffffffffffffffffffffffffffffff168152602001908152602001600020546104949190611122565b61049e91906111ab565b6104a891906111dc565b9050919050565b60086020528060005260406000206000915090505481565b600160009054906101000a900473ffffffffffffffffffffffffffffffffffffffff1673ffffffffffffffffffffffffffffffffffffffff163373ffffffffffffffffffffffffffffffffffffffff161461052157600080fd5b60008054906101000a900473ffffffffffffffffffffffffffffffffffffffff1673ffffffffffffffffffffffffffffffffffffffff166323b872dd3330846040518463ffffffff1660e01b815260040161057e93929190611241565b6020604051808303816000875af115801561059d573d6000803e3d6000fd5b505050506040513d601f19601f820116820180604052508101906105c191906112b0565b5080600460008282546105d491906111dc565b9250508190555050565b336105e7610eab565b600381905550426002819055506105fd816103ad565b600860008373ffffffffffffffffffffffffffffffffffffffff1673ffffffffffffffffffffffffffffffffffffffff16815260200190815260200160002081905550600354600760008373ffffffffffffffffffffffffffffffffffffffff1673ffffffffffffffffffffffffffffffffffffffff1681526020019081526020016000208190555061068f336108f8565b4210156106d1576040517f08c379a00000000000000000000000000000000000000000000000000000000081526004016106c890611360565b60405180910390fd5b81600560008282546106e391906110ee565b9250508190555081600a60003373ffffffffffffffffffffffffffffffffffffffff1673ffffffffffffffffffffffffffffffffffffffff168152602001908152602001600020600082825461073991906110ee565b9250508190555060008054906101000a900473ffffffffffffffffffffffffffffffffffffffff1673ffffffffffffffffffffffffffffffffffffffff1663a9059cbb33846040518363ffffffff1660e01b815260040161079b929190611380565b6020604051808303816000875af11580156107ba573d6000803e3d6000fd5b505050506040513d601f19601f820116820180604052508101906107de91906112b0565b505050565b600160009054906101000a900473ffffffffffffffffffffffffffffffffffffffff1673ffffffffffffffffffffffffffffffffffffffff163373ffffffffffffffffffffffffffffffffffffffff161461083d57600080fd5b60008054906101000a900473ffffffffffffffffffffffffffffffffffffffff1673ffffffffffffffffffffffffffffffffffffffff1663a9059cbb33836040518363ffffffff1660e01b8152600401610898929190611380565b6020604051808303816000875af11580156108b7573d6000803e3d6000fd5b505050506040513d601f19601f820116820180604052508101906108db91906112b0565b5080600460008282546108ee91906110ee565b9250508190555050565b6000600960008373ffffffffffffffffffffffffffffffffffffffff1673ffffffffffffffffffffffffffffffffffffffff168152602001908152602001600020549050919050565b60096020528060005260406000206000915090505481565b33610962610eab565b60038190555042600281905550610978816103ad565b600860008373ffffffffffffffffffffffffffffffffffffffff1673ffffffffffffffffffffffffffffffffffffffff16815260200190815260200160002081905550600354600760008373ffffffffffffffffffffffffffffffffffffffff1673ffffffffffffffffffffffffffffffffffffffff16815260200190815260200160002081905550610a0a336108f8565b421015610a4c576040517f08c379a0000000000000000000000000000000000000000000000000000000008152600401610a4390611360565b60405180910390fd5b6000600860003373ffffffffffffffffffffffffffffffffffffffff1673ffffffffffffffffffffffffffffffffffffffff1681526020019081526020016000205490506000600860003373ffffffffffffffffffffffffffffffffffffffff1673ffffffffffffffffffffffffffffffffffffffff1681526020019081526020016000208190555060008054906101000a900473ffffffffffffffffffffffffffffffffffffffff1673ffffffffffffffffffffffffffffffffffffffff1663a9059cbb33836040518363ffffffff1660e01b8152600401610b30929190611380565b6020604051808303816000875af1158015610b4f573d6000803e3d6000fd5b505050506040513d601f19601f82011682018060405250810190610b7391906112b0565b508060046000828254610b8691906110ee565b925050819055505050565b60008054906101000a900473ffffffffffffffffffffffffffffffffffffffff1681565b60065481565b60045481565b60076020528060005260406000206000915090505481565b600160009054906101000a900473ffffffffffffffffffffffffffffffffffffffff1673ffffffffffffffffffffffffffffffffffffffff163373ffffffffffffffffffffffffffffffffffffffff1614610c3357600080fd5b8060068190555050565b600042600960008473ffffffffffffffffffffffffffffffffffffffff1673ffffffffffffffffffffffffffffffffffffffff16815260200190815260200160002054610c8a91906110ee565b9050919050565b33610c9a610eab565b60038190555042600281905550610cb0816103ad565b600860008373ffffffffffffffffffffffffffffffffffffffff1673ffffffffffffffffffffffffffffffffffffffff16815260200190815260200160002081905550600354600760008373ffffffffffffffffffffffffffffffffffffffff1673ffffffffffffffffffffffffffffffffffffffff168152602001908152602001600020819055506276a70042610d4891906111dc565b600960003373ffffffffffffffffffffffffffffffffffffffff1673ffffffffffffffffffffffffffffffffffffffff168152602001908152602001600020819055508160056000828254610d9d91906111dc565b9250508190555081600a60003373ffffffffffffffffffffffffffffffffffffffff1673ffffffffffffffffffffffffffffffffffffffff1681526020019081526020016000206000828254610df391906111dc565b9250508190555060008054906101000a900473ffffffffffffffffffffffffffffffffffffffff1673ffffffffffffffffffffffffffffffffffffffff166323b872dd3330856040518463ffffffff1660e01b8152600401610e5793929190611241565b6020604051808303816000875af1158015610e76573d6000803e3d6000fd5b505050506040513d601f19601f82011682018060405250810190610e9a91906112b0565b505050565b60055481565b60025481565b6000806004541415610ec05760009050610f1f565b60006005541415610ed45760009050610f1f565b600554670de0b6b3a764000060065460025442610ef191906110ee565b610efb9190611122565b610f059190611122565b610f0f91906111ab565b600354610f1c91906111dc565b90505b90565b60035481565b600080fd5b600073ffffffffffffffffffffffffffffffffffffffff82169050919050565b6000610f5882610f2d565b9050919050565b610f6881610f4d565b8114610f7357600080fd5b50565b600081359050610f8581610f5f565b92915050565b600060208284031215610fa157610fa0610f28565b5b6000610faf84828501610f76565b91505092915050565b6000819050919050565b610fcb81610fb8565b82525050565b6000602082019050610fe66000830184610fc2565b92915050565b610ff581610fb8565b811461100057600080fd5b50565b60008135905061101281610fec565b92915050565b60006020828403121561102e5761102d610f28565b5b600061103c84828501611003565b91505092915050565b6000819050919050565b600061106a61106561106084610f2d565b611045565b610f2d565b9050919050565b600061107c8261104f565b9050919050565b600061108e82611071565b9050919050565b61109e81611083565b82525050565b60006020820190506110b96000830184611095565b92915050565b7f4e487b7100000000000000000000000000000000000000000000000000000000600052601160045260246000fd5b60006110f982610fb8565b915061110483610fb8565b925082821015611117576111166110bf565b5b828203905092915050565b600061112d82610fb8565b915061113883610fb8565b9250817fffffffffffffffffffffffffffffffffffffffffffffffffffffffffffffffff0483118215151615611171576111706110bf565b5b828202905092915050565b7f4e487b7100000000000000000000000000000000000000000000000000000000600052601260045260246000fd5b60006111b682610fb8565b91506111c183610fb8565b9250826111d1576111d061117c565b5b828204905092915050565b60006111e782610fb8565b91506111f283610fb8565b9250827fffffffffffffffffffffffffffffffffffffffffffffffffffffffffffffffff03821115611227576112266110bf565b5b828201905092915050565b61123b81610f4d565b82525050565b60006060820190506112566000830186611232565b6112636020830185611232565b6112706040830184610fc2565b949350505050565b60008115159050919050565b61128d81611278565b811461129857600080fd5b50565b6000815190506112aa81611284565b92915050565b6000602082840312156112c6576112c5610f28565b5b60006112d48482850161129b565b91505092915050565b600082825260208201905092915050565b7f546f6b656e54696d656c6f636b3a2063757272656e742074696d65206973206260008201527f65666f72652072656c656173652074696d650000000000000000000000000000602082015250565b600061134a6032836112dd565b9150611355826112ee565b604082019050919050565b600060208201905081810360008301526113798161133d565b9050919050565b60006040820190506113956000830185611232565b6113a26020830184610fc2565b939250505056fea2646970667358221220c7ab7fbbcea5a0e4c6263faf07ad471258daa32c6d3163ac4ffdec6a9a57119e64736f6c634300080a0033",
  "immutableReferences": {},
  "source": "\r\n// SPDX-License-Identifier: MIT\r\npragma solidity ^0.8.10;\r\n\r\n\r\n\r\ncontract StakingRewards {\r\n\r\n    ERC20 public stakingToken;\r\n\r\n    address private owner;\r\n\r\n\r\n    uint public lastUpdateTime;\r\n    uint public rewardPerTokenStored;\r\n    uint public contractBalance;\r\n    uint public _poolSize;\r\n    uint public rewardRate;\r\n\r\n    mapping(address => uint) public userRewardPerTokenPaid;\r\n    mapping(address => uint) public rewards;\r\n    mapping(address => uint) public _releaseTime;\r\n\r\n    mapping(address => uint) private _balances;\r\n\r\n    constructor(address _stakingToken) {\r\n        stakingToken = ERC20(_stakingToken);\r\n        owner = msg.sender;\r\n    }\r\n\r\n    modifier _ownerOnly(){\r\n      require(msg.sender == owner);\r\n      _;\r\n    }\r\n\r\n    function releaseTime(address account) public view virtual returns (uint256) {\r\n        return _releaseTime[account];\r\n    }\r\n\r\n    function untilRelease(address account) public view virtual returns (uint256) {\r\n        return _releaseTime[account]-block.timestamp;\r\n    }\r\n\r\n    function ownerDeposit(uint _amount) public _ownerOnly{\r\n        stakingToken.transferFrom(msg.sender, address(this), _amount);\r\n        contractBalance += _amount;\r\n    }\r\n\r\n        function ownerWithdraw(uint _amount) public _ownerOnly{\r\n        stakingToken.transfer(msg.sender, _amount);\r\n        contractBalance -= _amount;\r\n    }\r\n\r\n\r\n    function setRewardRate(uint rate) public _ownerOnly {\r\n\r\n        rewardRate = rate;\r\n    }\r\n\r\n    function rewardPerToken() public view returns (uint) {\r\n        \r\n        if (contractBalance== 0) {\r\n            return 0;\r\n        }\r\n        if(_poolSize== 0) {\r\n            return 0;\r\n        }\r\n        return\r\n            rewardPerTokenStored +\r\n            (((block.timestamp - lastUpdateTime) * rewardRate * 1e18) / _poolSize);\r\n    }\r\n\r\n    function earned(address account) public view returns (uint) {\r\n        return\r\n            ((_balances[account] *\r\n                (rewardPerToken() - userRewardPerTokenPaid[account])) / 1e18) +\r\n            rewards[account];\r\n    }\r\n\r\n    modifier updateReward(address account) {\r\n        rewardPerTokenStored = rewardPerToken();\r\n        lastUpdateTime = block.timestamp;\r\n\r\n        rewards[account] = earned(account);\r\n        userRewardPerTokenPaid[account] = rewardPerTokenStored;\r\n        _;\r\n    }\r\n\r\n    function stake(uint _amount) external updateReward(msg.sender) {\r\n        _releaseTime[msg.sender] = block.timestamp+90*1 days; //lock funds for 90 days\r\n        _poolSize += _amount;\r\n        _balances[msg.sender] += _amount;\r\n        stakingToken.transferFrom(msg.sender, address(this), _amount);\r\n    }\r\n\r\n    function withdraw(uint _amount) external updateReward(msg.sender) {\r\n        require(block.timestamp >= releaseTime(msg.sender), \"TokenTimelock: current time is before release time\");\r\n\r\n        _poolSize-= _amount;\r\n        _balances[msg.sender] -= _amount;\r\n        stakingToken.transfer(msg.sender, _amount);\r\n    }\r\n\r\n    function getReward() external updateReward(msg.sender) {\r\n        require(block.timestamp >= releaseTime(msg.sender), \"TokenTimelock: current time is before release time\");\r\n        uint reward = rewards[msg.sender];\r\n        rewards[msg.sender] = 0;\r\n        stakingToken.transfer(msg.sender, reward);\r\n        contractBalance -= reward;\r\n    }\r\n}\r\n\r\ninterface ERC20 {\r\n\r\n    function balanceOf(address account) external view returns (uint);\r\n\r\n    function transfer(address recipient, uint amount) external returns (bool);\r\n\r\n    function allowance(address owner, address spender) external view returns (uint);\r\n\r\n    function approve(address spender, uint amount) external returns (bool);\r\n\r\n    function transferFrom(\r\n        address sender,\r\n        address recipient,\r\n        uint amount\r\n    ) external returns (bool);\r\n\r\n    event Transfer(address indexed from, address indexed to, uint value);\r\n    event Approval(address indexed owner, address indexed spender, uint value);\r\n}\r\n",
  "sourcePath": "C:\\Users\\WernerLiechti\\Documents\\GitHub\\StakingContract\\contracts\\stakingRewards.sol",
  "compiler": {
    "name": "solc",
    "version": "0.8.10+commit.fc410830.Emscripten.clang"
  },
  "schemaVersion": "3.4.3",
  "updatedAt": "2022-01-16T15:31:37.535Z",
  "networkType": "ethereum",
  "devdoc": {
    "kind": "dev",
    "methods": {},
    "version": 1
  },
  "userdoc": {
    "kind": "user",
    "methods": {},
    "version": 1
  }
}