{
  "contractName": "StakingRewards",
  "abi": [
    {
      "inputs": [
        {
          "internalType": "address",
          "name": "_stakingToken",
          "type": "address"
        }
      ],
      "stateMutability": "nonpayable",
      "type": "constructor"
    },
    {
      "inputs": [],
      "name": "_lockingPeriod",
      "outputs": [
        {
          "internalType": "uint256",
          "name": "",
          "type": "uint256"
        }
      ],
      "stateMutability": "view",
      "type": "function",
      "constant": true
    },
    {
      "inputs": [],
      "name": "_poolSize",
      "outputs": [
        {
          "internalType": "uint256",
          "name": "",
          "type": "uint256"
        }
      ],
      "stateMutability": "view",
      "type": "function",
      "constant": true
    },
    {
      "inputs": [],
      "name": "contractBalance",
      "outputs": [
        {
          "internalType": "uint256",
          "name": "",
          "type": "uint256"
        }
      ],
      "stateMutability": "view",
      "type": "function",
      "constant": true
    },
    {
      "inputs": [
        {
          "internalType": "uint256",
          "name": "",
          "type": "uint256"
        }
      ],
      "name": "rewards",
      "outputs": [
        {
          "internalType": "uint256",
          "name": "reward",
          "type": "uint256"
        },
        {
          "internalType": "uint256",
          "name": "start",
          "type": "uint256"
        },
        {
          "internalType": "uint256",
          "name": "end",
          "type": "uint256"
        }
      ],
      "stateMutability": "view",
      "type": "function",
      "constant": true
    },
    {
      "inputs": [
        {
          "internalType": "uint256",
          "name": "",
          "type": "uint256"
        }
      ],
      "name": "stakes",
      "outputs": [
        {
          "internalType": "address",
          "name": "user",
          "type": "address"
        },
        {
          "internalType": "uint256",
          "name": "amount",
          "type": "uint256"
        },
        {
          "internalType": "uint256",
          "name": "sinceBlock",
          "type": "uint256"
        },
        {
          "internalType": "uint256",
          "name": "untilBlock",
          "type": "uint256"
        },
        {
          "internalType": "uint256",
          "name": "reward",
          "type": "uint256"
        }
      ],
      "stateMutability": "view",
      "type": "function",
      "constant": true
    },
    {
      "inputs": [],
      "name": "stakingToken",
      "outputs": [
        {
          "internalType": "contract ERC20",
          "name": "",
          "type": "address"
        }
      ],
      "stateMutability": "view",
      "type": "function",
      "constant": true
    },
    {
      "inputs": [
        {
          "internalType": "uint256",
          "name": "_amount",
          "type": "uint256"
        }
      ],
      "name": "ownerDeposit",
      "outputs": [],
      "stateMutability": "nonpayable",
      "type": "function"
    },
    {
      "inputs": [
        {
          "internalType": "uint256",
          "name": "_amount",
          "type": "uint256"
        }
      ],
      "name": "ownerWithdraw",
      "outputs": [],
      "stateMutability": "nonpayable",
      "type": "function"
    },
    {
      "inputs": [
        {
          "internalType": "uint256",
          "name": "_amount",
          "type": "uint256"
        }
      ],
      "name": "stake",
      "outputs": [],
      "stateMutability": "nonpayable",
      "type": "function"
    },
    {
      "inputs": [
        {
          "internalType": "uint256",
          "name": "_id",
          "type": "uint256"
        }
      ],
      "name": "unstake",
      "outputs": [],
      "stateMutability": "nonpayable",
      "type": "function"
    },
    {
      "inputs": [
        {
          "internalType": "uint256",
          "name": "_id",
          "type": "uint256"
        }
      ],
      "name": "calculateReward",
      "outputs": [],
      "stateMutability": "nonpayable",
      "type": "function"
    },
    {
      "inputs": [
        {
          "internalType": "uint256",
          "name": "_id",
          "type": "uint256"
        }
      ],
      "name": "getReward",
      "outputs": [],
      "stateMutability": "nonpayable",
      "type": "function"
    },
    {
      "inputs": [
        {
          "internalType": "uint256",
          "name": "rate",
          "type": "uint256"
        }
      ],
      "name": "setRewardRate",
      "outputs": [],
      "stateMutability": "nonpayable",
      "type": "function"
    },
    {
      "inputs": [
        {
          "internalType": "uint256",
          "name": "lockingPeriod",
          "type": "uint256"
        }
      ],
      "name": "setLockingPeriod",
      "outputs": [],
      "stateMutability": "nonpayable",
      "type": "function"
    },
    {
      "inputs": [
        {
          "internalType": "uint256",
          "name": "_id",
          "type": "uint256"
        }
      ],
      "name": "untilLockingEnd",
      "outputs": [
        {
          "internalType": "uint256",
          "name": "",
          "type": "uint256"
        }
      ],
      "stateMutability": "view",
      "type": "function",
      "constant": true
    }
  ],
  "bytecode": "0x60806040523480156200001157600080fd5b5060405162001d7738038062001d77833981810160405281019062000037919062000129565b806000806101000a81548173ffffffffffffffffffffffffffffffffffffffff021916908373ffffffffffffffffffffffffffffffffffffffff16021790555033600460006101000a81548173ffffffffffffffffffffffffffffffffffffffff021916908373ffffffffffffffffffffffffffffffffffffffff160217905550506200015b565b600080fd5b600073ffffffffffffffffffffffffffffffffffffffff82169050919050565b6000620000f182620000c4565b9050919050565b6200010381620000e4565b81146200010f57600080fd5b50565b6000815190506200012381620000f8565b92915050565b600060208284031215620001425762000141620000bf565b5b6000620001528482850162000112565b91505092915050565b611c0c806200016b6000396000f3fe608060405234801561001057600080fd5b50600436106100f55760003560e01c806372f702f311610097578063ade70abc11610066578063ade70abc14610248578063d2d7231f14610266578063d5a44f8614610282578063f301af42146102b6576100f5565b806372f702f3146101d45780638b7afe2e146101f25780639e447fc614610210578063a694fc3a1461022c576100f5565b806326b321d1116100d357806326b321d1146101505780632e17de781461016c57806333f707d114610188578063484b4689146101a4576100f5565b806313a59eb9146100fa578063141833dc146101185780631c4b774b14610134575b600080fd5b6101026102e8565b60405161010f919061159b565b60405180910390f35b610132600480360381019061012d91906115e7565b6102ee565b005b61014e600480360381019061014991906115e7565b610405565b005b61016a600480360381019061016591906115e7565b61067b565b005b610186600480360381019061018191906115e7565b6106df565b005b6101a2600480360381019061019d91906115e7565b6109ae565b005b6101be60048036038101906101b991906115e7565b610ac3565b6040516101cb919061159b565b60405180910390f35b6101dc610afd565b6040516101e99190611693565b60405180910390f35b6101fa610b21565b604051610207919061159b565b60405180910390f35b61022a600480360381019061022591906115e7565b610b27565b005b610246600480360381019061024191906115e7565b610c35565b005b610250610dd9565b60405161025d919061159b565b60405180910390f35b610280600480360381019061027b91906115e7565b610ddf565b005b61029c600480360381019061029791906115e7565b6114e2565b6040516102ad9594939291906116cf565b60405180910390f35b6102d060048036038101906102cb91906115e7565b611548565b6040516102df93929190611722565b60405180910390f35b60025481565b600460009054906101000a900473ffffffffffffffffffffffffffffffffffffffff1673ffffffffffffffffffffffffffffffffffffffff163373ffffffffffffffffffffffffffffffffffffffff161461034857600080fd5b60008054906101000a900473ffffffffffffffffffffffffffffffffffffffff1673ffffffffffffffffffffffffffffffffffffffff166323b872dd3330846040518463ffffffff1660e01b81526004016103a593929190611759565b6020604051808303816000875af11580156103c4573d6000803e3d6000fd5b505050506040513d601f19601f820116820180604052508101906103e891906117c8565b5080600360008282546103fb9190611824565b9250508190555050565b3373ffffffffffffffffffffffffffffffffffffffff16600582815481106104305761042f61187a565b5b906000526020600020906005020160000160009054906101000a900473ffffffffffffffffffffffffffffffffffffffff1673ffffffffffffffffffffffffffffffffffffffff16146104b8576040517f08c379a00000000000000000000000000000000000000000000000000000000081526004016104af90611906565b60405180910390fd5b6000600582815481106104ce576104cd61187a565b5b90600052602060002090600502016004015411610520576040517f08c379a000000000000000000000000000000000000000000000000000000000815260040161051790611972565b60405180910390fd5b600354600582815481106105375761053661187a565b5b90600052602060002090600502016004015410610589576040517f08c379a0000000000000000000000000000000000000000000000000000000008152600401610580906119de565b60405180910390fd5b60006005828154811061059f5761059e61187a565b5b90600052602060002090600502016004018190555060008054906101000a900473ffffffffffffffffffffffffffffffffffffffff1673ffffffffffffffffffffffffffffffffffffffff1663a9059cbb33600584815481106106055761060461187a565b5b9060005260206000209060050201600401546040518363ffffffff1660e01b81526004016106349291906119fe565b6020604051808303816000875af1158015610653573d6000803e3d6000fd5b505050506040513d601f19601f8201168201806040525081019061067791906117c8565b5050565b600460009054906101000a900473ffffffffffffffffffffffffffffffffffffffff1673ffffffffffffffffffffffffffffffffffffffff163373ffffffffffffffffffffffffffffffffffffffff16146106d557600080fd5b8060028190555050565b3373ffffffffffffffffffffffffffffffffffffffff166005828154811061070a5761070961187a565b5b906000526020600020906005020160000160009054906101000a900473ffffffffffffffffffffffffffffffffffffffff1673ffffffffffffffffffffffffffffffffffffffff1614610792576040517f08c379a000000000000000000000000000000000000000000000000000000000815260040161078990611a73565b60405180910390fd5b6000600582815481106107a8576107a761187a565b5b906000526020600020906005020160010154116107fa576040517f08c379a00000000000000000000000000000000000000000000000000000000081526004016107f190611972565b60405180910390fd5b426005828154811061080f5761080e61187a565b5b90600052602060002090600502016003015410610861576040517f08c379a000000000000000000000000000000000000000000000000000000000815260040161085890611adf565b60405180910390fd5b6000600582815481106108775761087661187a565b5b906000526020600020906005020160010154905042600583815481106108a05761089f61187a565b5b9060005260206000209060050201600301819055506108be82610ddf565b6000600583815481106108d4576108d361187a565b5b90600052602060002090600502016001018190555080600160008282546108fb9190611aff565b9250508190555060008054906101000a900473ffffffffffffffffffffffffffffffffffffffff1673ffffffffffffffffffffffffffffffffffffffff1663a9059cbb33836040518363ffffffff1660e01b815260040161095d9291906119fe565b6020604051808303816000875af115801561097c573d6000803e3d6000fd5b505050506040513d601f19601f820116820180604052508101906109a091906117c8565b506109aa82610405565b5050565b600460009054906101000a900473ffffffffffffffffffffffffffffffffffffffff1673ffffffffffffffffffffffffffffffffffffffff163373ffffffffffffffffffffffffffffffffffffffff1614610a0857600080fd5b60008054906101000a900473ffffffffffffffffffffffffffffffffffffffff1673ffffffffffffffffffffffffffffffffffffffff1663a9059cbb33836040518363ffffffff1660e01b8152600401610a639291906119fe565b6020604051808303816000875af1158015610a82573d6000803e3d6000fd5b505050506040513d601f19601f82011682018060405250810190610aa691906117c8565b508060036000828254610ab99190611aff565b9250508190555050565b60004260058381548110610ada57610ad961187a565b5b906000526020600020906005020160030154610af69190611aff565b9050919050565b60008054906101000a900473ffffffffffffffffffffffffffffffffffffffff1681565b60035481565b600460009054906101000a900473ffffffffffffffffffffffffffffffffffffffff1673ffffffffffffffffffffffffffffffffffffffff163373ffffffffffffffffffffffffffffffffffffffff1614610b8157600080fd5b6006604051806060016040528083815260200142815260200160008152509080600181540180825580915050600190039060005260206000209060030201600090919091909150600082015181600001556020820151816001015560408201518160020155505060016006805490501115610c32574260066002600680549050610c0b9190611aff565b81548110610c1c57610c1b61187a565b5b9060005260206000209060030201600201819055505b50565b8060016000828254610c479190611824565b9250508190555060008054906101000a900473ffffffffffffffffffffffffffffffffffffffff1673ffffffffffffffffffffffffffffffffffffffff166323b872dd3330846040518463ffffffff1660e01b8152600401610cab93929190611759565b6020604051808303816000875af1158015610cca573d6000803e3d6000fd5b505050506040513d601f19601f82011682018060405250810190610cee91906117c8565b5060056040518060a001604052803373ffffffffffffffffffffffffffffffffffffffff16815260200183815260200142815260200160025442610d329190611824565b81526020016000815250908060018154018082558091505060019003906000526020600020906005020160009091909190915060008201518160000160006101000a81548173ffffffffffffffffffffffffffffffffffffffff021916908373ffffffffffffffffffffffffffffffffffffffff16021790555060208201518160010155604082015181600201556060820151816003015560808201518160040155505050565b60015481565b600060058281548110610df557610df461187a565b5b90600052602060002090600502016004018190555060004260058381548110610e2157610e2061187a565b5b9060005260206000209060050201600301541115610e4157429050610e6a565b60058281548110610e5557610e5461187a565b5b90600052602060002090600502016003015490505b60005b6006805490508110156114dd5760058381548110610e8e57610e8d61187a565b5b90600052602060002090600502016002015460068281548110610eb457610eb361187a565b5b906000526020600020906003020160010154108015610ef85750600060068281548110610ee457610ee361187a565b5b906000526020600020906003020160020154145b15610fce5760058381548110610f1157610f1061187a565b5b90600052602060002090600502016001015460068281548110610f3757610f3661187a565b5b90600052602060002090600302016000015460058581548110610f5d57610f5c61187a565b5b90600052602060002090600502016002015484610f7a9190611aff565b610f849190611b33565b610f8e9190611b33565b60058481548110610fa257610fa161187a565b5b90600052602060002090600502016004016000828254610fc29190611824565b925050819055506114ca565b60058381548110610fe257610fe161187a565b5b906000526020600020906005020160020154600682815481106110085761100761187a565b5b9060005260206000209060030201600101541080156110705750600583815481106110365761103561187a565b5b9060005260206000209060050201600201546006828154811061105c5761105b61187a565b5b906000526020600020906003020160020154115b80156110a2575060006006828154811061108d5761108c61187a565b5b90600052602060002090600302016002015414155b1561119d57600583815481106110bb576110ba61187a565b5b906000526020600020906005020160010154600682815481106110e1576110e061187a565b5b906000526020600020906003020160000154600585815481106111075761110661187a565b5b9060005260206000209060050201600201546006848154811061112d5761112c61187a565b5b9060005260206000209060030201600201546111499190611aff565b6111539190611b33565b61115d9190611b33565b600584815481106111715761117061187a565b5b906000526020600020906005020160040160008282546111919190611824565b925050819055506114c9565b600583815481106111b1576111b061187a565b5b906000526020600020906005020160020154600682815481106111d7576111d661187a565b5b90600052602060002090600302016001015411801561121a575081600682815481106112065761120561187a565b5b906000526020600020906003020160020154105b801561124c57506000600682815481106112375761123661187a565b5b90600052602060002090600302016002015414155b1561134757600583815481106112655761126461187a565b5b9060005260206000209060050201600101546006828154811061128b5761128a61187a565b5b906000526020600020906003020160000154600683815481106112b1576112b061187a565b5b906000526020600020906003020160010154600684815481106112d7576112d661187a565b5b9060005260206000209060030201600201546112f39190611aff565b6112fd9190611b33565b6113079190611b33565b6005848154811061131b5761131a61187a565b5b9060005260206000209060050201600401600082825461133b9190611824565b925050819055506114c8565b816006828154811061135c5761135b61187a565b5b9060005260206000209060030201600101541080156113c457506005838154811061138a5761138961187a565b5b906000526020600020906005020160020154600682815481106113b0576113af61187a565b5b906000526020600020906003020160010154115b80156113f557506000600682815481106113e1576113e061187a565b5b906000526020600020906003020160020154145b156114c7576005838154811061140e5761140d61187a565b5b906000526020600020906005020160010154600682815481106114345761143361187a565b5b9060005260206000209060030201600001546006838154811061145a5761145961187a565b5b906000526020600020906003020160010154846114779190611aff565b6114819190611b33565b61148b9190611b33565b6005848154811061149f5761149e61187a565b5b906000526020600020906005020160040160008282546114bf9190611824565b925050819055505b5b5b5b80806114d590611b8d565b915050610e6d565b505050565b600581815481106114f257600080fd5b90600052602060002090600502016000915090508060000160009054906101000a900473ffffffffffffffffffffffffffffffffffffffff16908060010154908060020154908060030154908060040154905085565b6006818154811061155857600080fd5b90600052602060002090600302016000915090508060000154908060010154908060020154905083565b6000819050919050565b61159581611582565b82525050565b60006020820190506115b0600083018461158c565b92915050565b600080fd5b6115c481611582565b81146115cf57600080fd5b50565b6000813590506115e1816115bb565b92915050565b6000602082840312156115fd576115fc6115b6565b5b600061160b848285016115d2565b91505092915050565b600073ffffffffffffffffffffffffffffffffffffffff82169050919050565b6000819050919050565b600061165961165461164f84611614565b611634565b611614565b9050919050565b600061166b8261163e565b9050919050565b600061167d82611660565b9050919050565b61168d81611672565b82525050565b60006020820190506116a86000830184611684565b92915050565b60006116b982611614565b9050919050565b6116c9816116ae565b82525050565b600060a0820190506116e460008301886116c0565b6116f1602083018761158c565b6116fe604083018661158c565b61170b606083018561158c565b611718608083018461158c565b9695505050505050565b6000606082019050611737600083018661158c565b611744602083018561158c565b611751604083018461158c565b949350505050565b600060608201905061176e60008301866116c0565b61177b60208301856116c0565b611788604083018461158c565b949350505050565b60008115159050919050565b6117a581611790565b81146117b057600080fd5b50565b6000815190506117c28161179c565b92915050565b6000602082840312156117de576117dd6115b6565b5b60006117ec848285016117b3565b91505092915050565b7f4e487b7100000000000000000000000000000000000000000000000000000000600052601160045260246000fd5b600061182f82611582565b915061183a83611582565b9250827fffffffffffffffffffffffffffffffffffffffffffffffffffffffffffffffff0382111561186f5761186e6117f5565b5b828201905092915050565b7f4e487b7100000000000000000000000000000000000000000000000000000000600052603260045260246000fd5b600082825260208201905092915050565b7f4e6f7420796f7572207265776172640000000000000000000000000000000000600082015250565b60006118f0600f836118a9565b91506118fb826118ba565b602082019050919050565b6000602082019050818103600083015261191f816118e3565b9050919050565b7f4e6f7468696e6720746f20756e7374616b650000000000000000000000000000600082015250565b600061195c6012836118a9565b915061196782611926565b602082019050919050565b6000602082019050818103600083015261198b8161194f565b9050919050565b7f4e6f7420656e6f756768742062616c616e636520696e20636f6e747261637400600082015250565b60006119c8601f836118a9565b91506119d382611992565b602082019050919050565b600060208201905081810360008301526119f7816119bb565b9050919050565b6000604082019050611a1360008301856116c0565b611a20602083018461158c565b9392505050565b7f4e6f7420796f7572207374616b65000000000000000000000000000000000000600082015250565b6000611a5d600e836118a9565b9150611a6882611a27565b602082019050919050565b60006020820190508181036000830152611a8c81611a50565b9050919050565b7f546f206561726c79000000000000000000000000000000000000000000000000600082015250565b6000611ac96008836118a9565b9150611ad482611a93565b602082019050919050565b60006020820190508181036000830152611af881611abc565b9050919050565b6000611b0a82611582565b9150611b1583611582565b925082821015611b2857611b276117f5565b5b828203905092915050565b6000611b3e82611582565b9150611b4983611582565b9250817fffffffffffffffffffffffffffffffffffffffffffffffffffffffffffffffff0483118215151615611b8257611b816117f5565b5b828202905092915050565b6000611b9882611582565b91507fffffffffffffffffffffffffffffffffffffffffffffffffffffffffffffffff821415611bcb57611bca6117f5565b5b60018201905091905056fea26469706673582212201d665e1faaf104ccd8f6791c9248c35efd5a50074b2a171336943be56aa6234c64736f6c634300080a0033",
  "immutableReferences": {},
  "source": "\r\n// SPDX-License-Identifier: MIT\r\npragma solidity ^0.8.10;\r\n\r\n\r\n\r\ncontract StakingRewards {\r\n    ERC20 public stakingToken;\r\n\r\n\r\n    uint public _poolSize;\r\n    uint public _lockingPeriod;\r\n    uint public contractBalance;\r\n    \r\n    address private owner;\r\n\r\n    struct Stake {\r\n        address user;\r\n        uint amount;\r\n        uint sinceBlock;\r\n        uint untilBlock;   \r\n        uint reward;\r\n         }\r\n\r\n    struct Reward{\r\n        uint reward;\r\n        uint start;\r\n        uint end;\r\n    }\r\n\r\n    Stake[] public stakes;\r\n    Reward[] public rewards;\r\n   \r\n\r\n    constructor(address _stakingToken) {\r\n        stakingToken = ERC20(_stakingToken);\r\n        owner = msg.sender;\r\n    }\r\n\r\n    modifier _ownerOnly(){\r\n      require(msg.sender == owner);\r\n      _;\r\n    }\r\n\r\n    function ownerDeposit(uint _amount) public _ownerOnly{\r\n        stakingToken.transferFrom(msg.sender, address(this), _amount);\r\n        contractBalance += _amount;\r\n    }\r\n\r\n    function ownerWithdraw(uint _amount) public _ownerOnly{\r\n        stakingToken.transfer(msg.sender, _amount);\r\n        contractBalance -= _amount;\r\n    }\r\n\r\n    function stake(uint _amount) external  {\r\n        _poolSize += _amount;\r\n        stakingToken.transferFrom(msg.sender, address(this), _amount);\r\n        stakes.push(Stake(msg.sender, _amount, uint(block.timestamp), uint(block.timestamp + _lockingPeriod ), 0));\r\n        \r\n    }\r\n\r\n\r\n    function unstake (uint _id) external {\r\n        require(stakes[_id].user == msg.sender, 'Not your stake');\r\n        require(stakes[_id].amount > 0, 'Nothing to unstake');\r\n        require(stakes[_id].untilBlock < uint(block.timestamp), 'To early');\r\n\r\n        uint _amount = stakes[_id].amount;\r\n        stakes[_id].untilBlock= uint(block.timestamp);\r\n\r\n        calculateReward(_id); // Calculate Reward of the Stake\r\n\r\n        stakes[_id].amount= 0;\r\n        _poolSize-= _amount;\r\n        \r\n        stakingToken.transfer(msg.sender, _amount);\r\n        getReward(_id);\r\n        \r\n    }\r\n\r\n    function calculateReward(uint _id) public {\r\n        stakes[_id].reward =0;\r\n        uint end;\r\n\r\n        \r\n        if(stakes[_id].untilBlock> uint(block.timestamp)){\r\n            end = uint(block.timestamp);\r\n        }\r\n        else{\r\n            end = stakes[_id].untilBlock;\r\n        }\r\n        \r\n         for (uint i=0; i<rewards.length; i++){\r\n             \r\n            if ((rewards[i].start < stakes[_id].sinceBlock)  && (rewards[i].end == 0)){\r\n                stakes[_id].reward += (end - stakes[_id].sinceBlock) * rewards[i].reward * stakes[_id].amount; // if staking starts and ends without reward change\r\n            }\r\n\r\n            else if((rewards[i].start < stakes[_id].sinceBlock) && (rewards[i].end > stakes[_id].sinceBlock) && (rewards[i].end != 0)){\r\n                stakes[_id].reward += (rewards[i].end - stakes[_id].sinceBlock) * rewards[i].reward * stakes[_id].amount; //first feward rate\r\n            }\r\n\r\n            else if ((rewards[i].start > stakes[_id].sinceBlock) && (rewards[i].end < end) && (rewards[i].end != 0)  ){\r\n                stakes[_id].reward += (rewards[i].end - rewards[i].start) * rewards[i].reward * stakes[_id].amount; //reward rate during staking\r\n            }\r\n\r\n            else if ((rewards[i].start < end) && (rewards[i].start > stakes[_id].sinceBlock)  && (rewards[i].end == 0)){\r\n                stakes[_id].reward += (end - rewards[i].start) * rewards[i].reward * stakes[_id].amount; //last reward rate\r\n            }\r\n\r\n        }\r\n\r\n\r\n    }\r\n\r\n    function getReward(uint _id) public {\r\n\r\n        require(stakes[_id].user == msg.sender, 'Not your reward');\r\n        require(stakes[_id].reward > 0, 'Nothing to unstake');\r\n        require(stakes[_id].reward < contractBalance , 'Not enought balance in contract');\r\n\r\n        stakes[_id].reward = 0;\r\n        stakingToken.transfer(msg.sender, stakes[_id].reward);\r\n \r\n    }\r\n\r\n    function setRewardRate(uint rate) public _ownerOnly {\r\n        \r\n        rewards.push(Reward(rate, uint(block.timestamp), uint(0)));\r\n        if(rewards.length>1){\r\n            rewards[rewards.length -2].end = uint(block.timestamp);\r\n        }\r\n        \r\n    }  \r\n    \r\n    function setLockingPeriod(uint lockingPeriod) public _ownerOnly {\r\n        _lockingPeriod = lockingPeriod;\r\n    }\r\n\r\n    function untilLockingEnd(uint _id) public view returns(uint) {\r\n        return stakes[_id].untilBlock - uint(block.timestamp);\r\n    }\r\n\r\n}\r\n\r\ninterface ERC20 {\r\n\r\n    function balanceOf(address account) external view returns (uint);\r\n\r\n    function transfer(address recipient, uint amount) external returns (bool);\r\n\r\n    function allowance(address owner, address spender) external view returns (uint);\r\n\r\n    function approve(address spender, uint amount) external returns (bool);\r\n\r\n    function transferFrom(\r\n        address sender,\r\n        address recipient,\r\n        uint amount\r\n    ) external returns (bool);\r\n\r\n    event Transfer(address indexed from, address indexed to, uint value);\r\n    event Approval(address indexed owner, address indexed spender, uint value);\r\n}\r\n",
  "sourcePath": "C:\\Users\\WernerLiechti\\Documents\\GitHub\\StakingContract\\contracts\\stakingRewards.sol",
  "compiler": {
    "name": "solc",
    "version": "0.8.10+commit.fc410830.Emscripten.clang"
  },
  "schemaVersion": "3.4.3",
  "updatedAt": "2022-01-18T00:03:17.715Z",
  "networkType": "ethereum",
  "devdoc": {
    "kind": "dev",
    "methods": {},
    "version": 1
  },
  "userdoc": {
    "kind": "user",
    "methods": {},
    "version": 1
  }
}