{
  "contractName": "StakingRewards",
  "abi": [
    {
      "inputs": [
        {
          "internalType": "address",
          "name": "_stakingToken",
          "type": "address"
        }
      ],
      "stateMutability": "nonpayable",
      "type": "constructor"
    },
    {
      "inputs": [],
      "name": "lastUpdateTime",
      "outputs": [
        {
          "internalType": "uint256",
          "name": "",
          "type": "uint256"
        }
      ],
      "stateMutability": "view",
      "type": "function",
      "constant": true
    },
    {
      "inputs": [],
      "name": "rewardPerTokenStored",
      "outputs": [
        {
          "internalType": "uint256",
          "name": "",
          "type": "uint256"
        }
      ],
      "stateMutability": "view",
      "type": "function",
      "constant": true
    },
    {
      "inputs": [
        {
          "internalType": "address",
          "name": "",
          "type": "address"
        }
      ],
      "name": "rewards",
      "outputs": [
        {
          "internalType": "uint256",
          "name": "",
          "type": "uint256"
        }
      ],
      "stateMutability": "view",
      "type": "function",
      "constant": true
    },
    {
      "inputs": [],
      "name": "stakingToken",
      "outputs": [
        {
          "internalType": "contract ERC20",
          "name": "",
          "type": "address"
        }
      ],
      "stateMutability": "view",
      "type": "function",
      "constant": true
    },
    {
      "inputs": [
        {
          "internalType": "address",
          "name": "",
          "type": "address"
        }
      ],
      "name": "userRewardPerTokenPaid",
      "outputs": [
        {
          "internalType": "uint256",
          "name": "",
          "type": "uint256"
        }
      ],
      "stateMutability": "view",
      "type": "function",
      "constant": true
    },
    {
      "inputs": [
        {
          "internalType": "uint256",
          "name": "rate",
          "type": "uint256"
        }
      ],
      "name": "setRewardRate",
      "outputs": [],
      "stateMutability": "nonpayable",
      "type": "function"
    },
    {
      "inputs": [],
      "name": "checkRewardRate",
      "outputs": [
        {
          "internalType": "uint256",
          "name": "",
          "type": "uint256"
        }
      ],
      "stateMutability": "view",
      "type": "function",
      "constant": true
    },
    {
      "inputs": [],
      "name": "poolSize",
      "outputs": [
        {
          "internalType": "uint256",
          "name": "",
          "type": "uint256"
        }
      ],
      "stateMutability": "view",
      "type": "function",
      "constant": true
    },
    {
      "inputs": [],
      "name": "rewardPerToken",
      "outputs": [
        {
          "internalType": "uint256",
          "name": "",
          "type": "uint256"
        }
      ],
      "stateMutability": "view",
      "type": "function",
      "constant": true
    },
    {
      "inputs": [
        {
          "internalType": "address",
          "name": "account",
          "type": "address"
        }
      ],
      "name": "earned",
      "outputs": [
        {
          "internalType": "uint256",
          "name": "",
          "type": "uint256"
        }
      ],
      "stateMutability": "view",
      "type": "function",
      "constant": true
    },
    {
      "inputs": [
        {
          "internalType": "uint256",
          "name": "_amount",
          "type": "uint256"
        }
      ],
      "name": "stake",
      "outputs": [],
      "stateMutability": "nonpayable",
      "type": "function"
    },
    {
      "inputs": [
        {
          "internalType": "uint256",
          "name": "_amount",
          "type": "uint256"
        }
      ],
      "name": "withdraw",
      "outputs": [],
      "stateMutability": "nonpayable",
      "type": "function"
    },
    {
      "inputs": [],
      "name": "getReward",
      "outputs": [],
      "stateMutability": "nonpayable",
      "type": "function"
    }
  ],
  "bytecode": "0x60806040524760065534801561001457600080fd5b50604051610f6c380380610f6c83398181016040528101906100369190610120565b806000806101000a81548173ffffffffffffffffffffffffffffffffffffffff021916908373ffffffffffffffffffffffffffffffffffffffff16021790555033600160006101000a81548173ffffffffffffffffffffffffffffffffffffffff021916908373ffffffffffffffffffffffffffffffffffffffff1602179055505061014d565b600080fd5b600073ffffffffffffffffffffffffffffffffffffffff82169050919050565b60006100ed826100c2565b9050919050565b6100fd816100e2565b811461010857600080fd5b50565b60008151905061011a816100f4565b92915050565b600060208284031215610136576101356100bd565b5b60006101448482850161010b565b91505092915050565b610e108061015c6000396000f3fe608060405234801561001057600080fd5b50600436106100ce5760003560e01c80638b8763471161008c578063a694fc3a11610066578063a694fc3a146101ff578063c8f33c911461021b578063cd3daf9d14610239578063df136d6514610257576100ce565b80638b8763471461019557806394420889146101c55780639e447fc6146101e3576100ce565b80628cc262146100d35780630700037d146101035780632e1a7d4d146101335780633d18b9121461014f5780634ec18db91461015957806372f702f314610177575b600080fd5b6100ed60048036038101906100e89190610a5f565b610275565b6040516100fa9190610aa5565b60405180910390f35b61011d60048036038101906101189190610a5f565b610377565b60405161012a9190610aa5565b60405180910390f35b61014d60048036038101906101489190610aec565b61038f565b005b610157610549565b005b61016161071d565b60405161016e9190610aa5565b60405180910390f35b61017f610727565b60405161018c9190610b78565b60405180910390f35b6101af60048036038101906101aa9190610a5f565b61074b565b6040516101bc9190610aa5565b60405180910390f35b6101cd610763565b6040516101da9190610aa5565b60405180910390f35b6101fd60048036038101906101f89190610aec565b61076d565b005b61021960048036038101906102149190610aec565b6107d1565b005b61022361098d565b6040516102309190610aa5565b60405180910390f35b610241610993565b60405161024e9190610aa5565b60405180910390f35b61025f6109f6565b60405161026c9190610aa5565b60405180910390f35b6000600560008373ffffffffffffffffffffffffffffffffffffffff1673ffffffffffffffffffffffffffffffffffffffff16815260200190815260200160002054670de0b6b3a7640000600460008573ffffffffffffffffffffffffffffffffffffffff1673ffffffffffffffffffffffffffffffffffffffff16815260200190815260200160002054610308610993565b6103129190610bc2565b600960008673ffffffffffffffffffffffffffffffffffffffff1673ffffffffffffffffffffffffffffffffffffffff1681526020019081526020016000205461035c9190610bf6565b6103669190610c7f565b6103709190610cb0565b9050919050565b60056020528060005260406000206000915090505481565b33610398610993565b600381905550426002819055506103ae81610275565b600560008373ffffffffffffffffffffffffffffffffffffffff1673ffffffffffffffffffffffffffffffffffffffff16815260200190815260200160002081905550600354600460008373ffffffffffffffffffffffffffffffffffffffff1673ffffffffffffffffffffffffffffffffffffffff1681526020019081526020016000208190555081600760008282546104499190610bc2565b9250508190555081600960003373ffffffffffffffffffffffffffffffffffffffff1673ffffffffffffffffffffffffffffffffffffffff168152602001908152602001600020600082825461049f9190610bc2565b9250508190555060008054906101000a900473ffffffffffffffffffffffffffffffffffffffff1673ffffffffffffffffffffffffffffffffffffffff1663a9059cbb33846040518363ffffffff1660e01b8152600401610501929190610d15565b6020604051808303816000875af1158015610520573d6000803e3d6000fd5b505050506040513d601f19601f820116820180604052508101906105449190610d76565b505050565b33610552610993565b6003819055504260028190555061056881610275565b600560008373ffffffffffffffffffffffffffffffffffffffff1673ffffffffffffffffffffffffffffffffffffffff16815260200190815260200160002081905550600354600460008373ffffffffffffffffffffffffffffffffffffffff1673ffffffffffffffffffffffffffffffffffffffff168152602001908152602001600020819055506000600560003373ffffffffffffffffffffffffffffffffffffffff1673ffffffffffffffffffffffffffffffffffffffff1681526020019081526020016000205490506000600560003373ffffffffffffffffffffffffffffffffffffffff1673ffffffffffffffffffffffffffffffffffffffff1681526020019081526020016000208190555060008054906101000a900473ffffffffffffffffffffffffffffffffffffffff1673ffffffffffffffffffffffffffffffffffffffff1663a9059cbb33836040518363ffffffff1660e01b81526004016106d5929190610d15565b6020604051808303816000875af11580156106f4573d6000803e3d6000fd5b505050506040513d601f19601f820116820180604052508101906107189190610d76565b505050565b6000600754905090565b60008054906101000a900473ffffffffffffffffffffffffffffffffffffffff1681565b60046020528060005260406000206000915090505481565b6000600854905090565b600160009054906101000a900473ffffffffffffffffffffffffffffffffffffffff1673ffffffffffffffffffffffffffffffffffffffff163373ffffffffffffffffffffffffffffffffffffffff16146107c757600080fd5b8060088190555050565b336107da610993565b600381905550426002819055506107f081610275565b600560008373ffffffffffffffffffffffffffffffffffffffff1673ffffffffffffffffffffffffffffffffffffffff16815260200190815260200160002081905550600354600460008373ffffffffffffffffffffffffffffffffffffffff1673ffffffffffffffffffffffffffffffffffffffff16815260200190815260200160002081905550816007600082825461088b9190610cb0565b9250508190555081600960003373ffffffffffffffffffffffffffffffffffffffff1673ffffffffffffffffffffffffffffffffffffffff16815260200190815260200160002060008282546108e19190610cb0565b9250508190555060008054906101000a900473ffffffffffffffffffffffffffffffffffffffff1673ffffffffffffffffffffffffffffffffffffffff166323b872dd3330856040518463ffffffff1660e01b815260040161094593929190610da3565b6020604051808303816000875af1158015610964573d6000803e3d6000fd5b505050506040513d601f19601f820116820180604052508101906109889190610d76565b505050565b60025481565b60008060065414156109a857600090506109f3565b600754670de0b6b3a7640000600854600254426109c59190610bc2565b6109cf9190610bf6565b6109d99190610bf6565b6109e39190610c7f565b6003546109f09190610cb0565b90505b90565b60035481565b600080fd5b600073ffffffffffffffffffffffffffffffffffffffff82169050919050565b6000610a2c82610a01565b9050919050565b610a3c81610a21565b8114610a4757600080fd5b50565b600081359050610a5981610a33565b92915050565b600060208284031215610a7557610a746109fc565b5b6000610a8384828501610a4a565b91505092915050565b6000819050919050565b610a9f81610a8c565b82525050565b6000602082019050610aba6000830184610a96565b92915050565b610ac981610a8c565b8114610ad457600080fd5b50565b600081359050610ae681610ac0565b92915050565b600060208284031215610b0257610b016109fc565b5b6000610b1084828501610ad7565b91505092915050565b6000819050919050565b6000610b3e610b39610b3484610a01565b610b19565b610a01565b9050919050565b6000610b5082610b23565b9050919050565b6000610b6282610b45565b9050919050565b610b7281610b57565b82525050565b6000602082019050610b8d6000830184610b69565b92915050565b7f4e487b7100000000000000000000000000000000000000000000000000000000600052601160045260246000fd5b6000610bcd82610a8c565b9150610bd883610a8c565b925082821015610beb57610bea610b93565b5b828203905092915050565b6000610c0182610a8c565b9150610c0c83610a8c565b9250817fffffffffffffffffffffffffffffffffffffffffffffffffffffffffffffffff0483118215151615610c4557610c44610b93565b5b828202905092915050565b7f4e487b7100000000000000000000000000000000000000000000000000000000600052601260045260246000fd5b6000610c8a82610a8c565b9150610c9583610a8c565b925082610ca557610ca4610c50565b5b828204905092915050565b6000610cbb82610a8c565b9150610cc683610a8c565b9250827fffffffffffffffffffffffffffffffffffffffffffffffffffffffffffffffff03821115610cfb57610cfa610b93565b5b828201905092915050565b610d0f81610a21565b82525050565b6000604082019050610d2a6000830185610d06565b610d376020830184610a96565b9392505050565b60008115159050919050565b610d5381610d3e565b8114610d5e57600080fd5b50565b600081519050610d7081610d4a565b92915050565b600060208284031215610d8c57610d8b6109fc565b5b6000610d9a84828501610d61565b91505092915050565b6000606082019050610db86000830186610d06565b610dc56020830185610d06565b610dd26040830184610a96565b94935050505056fea2646970667358221220e672ad6291b33d6f1ddad5d7d60d56106bd928b6744799259d242d3881f64a1f64736f6c634300080a0033",
  "immutableReferences": {},
  "source": "\r\n// SPDX-License-Identifier: MIT\r\npragma solidity ^0.8.10;\r\n\r\ncontract StakingRewards {\r\n\r\n    ERC20 public stakingToken;\r\n\r\n    address private owner;\r\n\r\n    uint public lastUpdateTime;\r\n    uint public rewardPerTokenStored;\r\n\r\n    mapping(address => uint) public userRewardPerTokenPaid;\r\n    mapping(address => uint) public rewards;\r\n\r\n    uint private _contractBalance = address(this).balance;\r\n    uint private _poolSize;\r\n    uint private rewardRate;\r\n\r\n    mapping(address => uint) private _balances;\r\n\r\n    constructor(address _stakingToken) {\r\n        stakingToken = ERC20(_stakingToken);\r\n        owner = msg.sender;\r\n    }\r\n\r\n    modifier _ownerOnly(){\r\n      require(msg.sender == owner);\r\n      _;\r\n    }\r\n\r\n    function setRewardRate(uint rate) public _ownerOnly {\r\n\r\n        rewardRate = rate;\r\n    }\r\n\r\n    function checkRewardRate() public view returns (uint) {\r\n\r\n    return rewardRate;\r\n    }\r\n\r\n    function poolSize() public view returns (uint){\r\n\r\n    return _poolSize;\r\n    }\r\n\r\n\r\n    function rewardPerToken() public view returns (uint) {\r\n        if (_contractBalance == 0) {\r\n            return 0;\r\n        }\r\n        return\r\n            rewardPerTokenStored +\r\n            (((block.timestamp - lastUpdateTime) * rewardRate * 1e18) / _poolSize);\r\n    }\r\n\r\n    function earned(address account) public view returns (uint) {\r\n        return\r\n            ((_balances[account] *\r\n                (rewardPerToken() - userRewardPerTokenPaid[account])) / 1e18) +\r\n            rewards[account];\r\n    }\r\n\r\n    modifier updateReward(address account) {\r\n        rewardPerTokenStored = rewardPerToken();\r\n        lastUpdateTime = block.timestamp;\r\n\r\n        rewards[account] = earned(account);\r\n        userRewardPerTokenPaid[account] = rewardPerTokenStored;\r\n        _;\r\n    }\r\n\r\n    function stake(uint _amount) external updateReward(msg.sender) {\r\n        _poolSize += _amount;\r\n        _balances[msg.sender] += _amount;\r\n        stakingToken.transferFrom(msg.sender, address(this), _amount);\r\n    }\r\n\r\n    function withdraw(uint _amount) external updateReward(msg.sender) {\r\n        _poolSize-= _amount;\r\n        _balances[msg.sender] -= _amount;\r\n        stakingToken.transfer(msg.sender, _amount);\r\n    }\r\n\r\n    function getReward() external updateReward(msg.sender) {\r\n        uint reward = rewards[msg.sender];\r\n        rewards[msg.sender] = 0;\r\n        stakingToken.transfer(msg.sender, reward);\r\n    }\r\n}\r\n\r\ninterface ERC20 {\r\n\r\n    function balanceOf(address account) external view returns (uint);\r\n\r\n    function transfer(address recipient, uint amount) external returns (bool);\r\n\r\n    function allowance(address owner, address spender) external view returns (uint);\r\n\r\n    function approve(address spender, uint amount) external returns (bool);\r\n\r\n    function transferFrom(\r\n        address sender,\r\n        address recipient,\r\n        uint amount\r\n    ) external returns (bool);\r\n\r\n    event Transfer(address indexed from, address indexed to, uint value);\r\n    event Approval(address indexed owner, address indexed spender, uint value);\r\n}\r\n",
  "sourcePath": "C:\\Users\\WernerLiechti\\Documents\\GitHub\\StakingContract\\contracts\\stakingRewards.sol",
  "compiler": {
    "name": "solc",
    "version": "0.8.10+commit.fc410830.Emscripten.clang"
  },
  "schemaVersion": "3.4.3",
  "updatedAt": "2022-01-13T14:49:45.013Z",
  "networkType": "ethereum",
  "devdoc": {
    "kind": "dev",
    "methods": {},
    "version": 1
  },
  "userdoc": {
    "kind": "user",
    "methods": {},
    "version": 1
  }
}