{
  "contractName": "StakingRewards",
  "abi": [
    {
      "inputs": [
        {
          "internalType": "address",
          "name": "_stakingToken",
          "type": "address"
        },
        {
          "internalType": "uint256",
          "name": "lockingPeriod",
          "type": "uint256"
        }
      ],
      "stateMutability": "nonpayable",
      "type": "constructor"
    },
    {
      "inputs": [],
      "name": "_lockingPeriod",
      "outputs": [
        {
          "internalType": "uint256",
          "name": "",
          "type": "uint256"
        }
      ],
      "stateMutability": "view",
      "type": "function",
      "constant": true
    },
    {
      "inputs": [],
      "name": "_poolSize",
      "outputs": [
        {
          "internalType": "uint256",
          "name": "",
          "type": "uint256"
        }
      ],
      "stateMutability": "view",
      "type": "function",
      "constant": true
    },
    {
      "inputs": [],
      "name": "contractBalance",
      "outputs": [
        {
          "internalType": "uint256",
          "name": "",
          "type": "uint256"
        }
      ],
      "stateMutability": "view",
      "type": "function",
      "constant": true
    },
    {
      "inputs": [
        {
          "internalType": "uint256",
          "name": "",
          "type": "uint256"
        }
      ],
      "name": "rewards",
      "outputs": [
        {
          "internalType": "uint256",
          "name": "reward",
          "type": "uint256"
        },
        {
          "internalType": "uint256",
          "name": "start",
          "type": "uint256"
        },
        {
          "internalType": "uint256",
          "name": "end",
          "type": "uint256"
        }
      ],
      "stateMutability": "view",
      "type": "function",
      "constant": true
    },
    {
      "inputs": [
        {
          "internalType": "uint256",
          "name": "",
          "type": "uint256"
        }
      ],
      "name": "stakes",
      "outputs": [
        {
          "internalType": "address",
          "name": "user",
          "type": "address"
        },
        {
          "internalType": "uint256",
          "name": "amount",
          "type": "uint256"
        },
        {
          "internalType": "uint256",
          "name": "sinceBlock",
          "type": "uint256"
        },
        {
          "internalType": "uint256",
          "name": "untilBlock",
          "type": "uint256"
        },
        {
          "internalType": "uint256",
          "name": "reward",
          "type": "uint256"
        }
      ],
      "stateMutability": "view",
      "type": "function",
      "constant": true
    },
    {
      "inputs": [],
      "name": "stakingToken",
      "outputs": [
        {
          "internalType": "contract ERC20",
          "name": "",
          "type": "address"
        }
      ],
      "stateMutability": "view",
      "type": "function",
      "constant": true
    },
    {
      "inputs": [
        {
          "internalType": "uint256",
          "name": "_amount",
          "type": "uint256"
        }
      ],
      "name": "ownerDeposit",
      "outputs": [],
      "stateMutability": "nonpayable",
      "type": "function"
    },
    {
      "inputs": [
        {
          "internalType": "uint256",
          "name": "_amount",
          "type": "uint256"
        }
      ],
      "name": "ownerWithdraw",
      "outputs": [],
      "stateMutability": "nonpayable",
      "type": "function"
    },
    {
      "inputs": [
        {
          "internalType": "uint256",
          "name": "_amount",
          "type": "uint256"
        }
      ],
      "name": "stake",
      "outputs": [
        {
          "internalType": "uint256",
          "name": "",
          "type": "uint256"
        }
      ],
      "stateMutability": "nonpayable",
      "type": "function"
    },
    {
      "inputs": [
        {
          "internalType": "uint256",
          "name": "_id",
          "type": "uint256"
        }
      ],
      "name": "unstake",
      "outputs": [],
      "stateMutability": "nonpayable",
      "type": "function"
    },
    {
      "inputs": [
        {
          "internalType": "uint256",
          "name": "_id",
          "type": "uint256"
        }
      ],
      "name": "claimReward",
      "outputs": [],
      "stateMutability": "nonpayable",
      "type": "function"
    },
    {
      "inputs": [
        {
          "internalType": "uint256",
          "name": "rate",
          "type": "uint256"
        }
      ],
      "name": "setRewardRate",
      "outputs": [],
      "stateMutability": "nonpayable",
      "type": "function"
    },
    {
      "inputs": [
        {
          "internalType": "uint256",
          "name": "_id",
          "type": "uint256"
        }
      ],
      "name": "untilLockingEnd",
      "outputs": [
        {
          "internalType": "uint256",
          "name": "",
          "type": "uint256"
        }
      ],
      "stateMutability": "view",
      "type": "function",
      "constant": true
    }
  ],
  "bytecode": "0x60806040523480156200001157600080fd5b5060405162002246380380620022468339818101604052810190620000379190620001d4565b816000806101000a81548173ffffffffffffffffffffffffffffffffffffffff021916908373ffffffffffffffffffffffffffffffffffffffff16021790555033600460006101000a81548173ffffffffffffffffffffffffffffffffffffffff021916908373ffffffffffffffffffffffffffffffffffffffff16021790555080600281905550600660405180606001604052806064815260200142815260200160008152509080600181540180825580915050600190039060005260206000209060030201600090919091909150600082015181600001556020820151816001015560408201518160020155505050506200021b565b600080fd5b600073ffffffffffffffffffffffffffffffffffffffff82169050919050565b6000620001618262000134565b9050919050565b620001738162000154565b81146200017f57600080fd5b50565b600081519050620001938162000168565b92915050565b6000819050919050565b620001ae8162000199565b8114620001ba57600080fd5b50565b600081519050620001ce81620001a3565b92915050565b60008060408385031215620001ee57620001ed6200012f565b5b6000620001fe8582860162000182565b92505060206200021185828601620001bd565b9150509250929050565b61201b806200022b6000396000f3fe608060405234801561001057600080fd5b50600436106100cf5760003560e01c80638b7afe2e1161008c578063ade70abc11610066578063ade70abc146101fe578063ae169a501461021c578063d5a44f8614610238578063f301af421461026c576100cf565b80638b7afe2e146101945780639e447fc6146101b2578063a694fc3a146101ce576100cf565b806313a59eb9146100d4578063141833dc146100f25780632e17de781461010e57806333f707d11461012a578063484b46891461014657806372f702f314610176575b600080fd5b6100dc61029e565b6040516100e9919061179a565b60405180910390f35b61010c600480360381019061010791906117e6565b6102a4565b005b610128600480360381019061012391906117e6565b6103bb565b005b610144600480360381019061013f91906117e6565b610772565b005b610160600480360381019061015b91906117e6565b610887565b60405161016d919061179a565b60405180910390f35b61017e6108f8565b60405161018b9190611892565b60405180910390f35b61019c61091c565b6040516101a9919061179a565b60405180910390f35b6101cc60048036038101906101c791906117e6565b610922565b005b6101e860048036038101906101e391906117e6565b610a30565b6040516101f5919061179a565b60405180910390f35b610206610c6e565b604051610213919061179a565b60405180910390f35b610236600480360381019061023191906117e6565b610c74565b005b610252600480360381019061024d91906117e6565b610fd9565b6040516102639594939291906118ce565b60405180910390f35b610286600480360381019061028191906117e6565b61103f565b60405161029593929190611921565b60405180910390f35b60025481565b600460009054906101000a900473ffffffffffffffffffffffffffffffffffffffff1673ffffffffffffffffffffffffffffffffffffffff163373ffffffffffffffffffffffffffffffffffffffff16146102fe57600080fd5b60008054906101000a900473ffffffffffffffffffffffffffffffffffffffff1673ffffffffffffffffffffffffffffffffffffffff166323b872dd3330846040518463ffffffff1660e01b815260040161035b93929190611958565b6020604051808303816000875af115801561037a573d6000803e3d6000fd5b505050506040513d601f19601f8201168201806040525081019061039e91906119c7565b5080600360008282546103b19190611a23565b9250508190555050565b3373ffffffffffffffffffffffffffffffffffffffff16600582815481106103e6576103e5611a79565b5b906000526020600020906005020160000160009054906101000a900473ffffffffffffffffffffffffffffffffffffffff1673ffffffffffffffffffffffffffffffffffffffff161461046e576040517f08c379a000000000000000000000000000000000000000000000000000000000815260040161046590611b05565b60405180910390fd5b426005828154811061048357610482611a79565b5b906000526020600020906005020160030154106104d5576040517f08c379a00000000000000000000000000000000000000000000000000000000081526004016104cc90611b71565b60405180910390fd5b6000600582815481106104eb576104ea611a79565b5b9060005260206000209060050201600101541161053d576040517f08c379a000000000000000000000000000000000000000000000000000000000815260040161053490611bdd565b60405180910390fd5b61054681611079565b60006005828154811061055c5761055b611a79565b5b90600052602060002090600502016004015460035410156105a4576005828154811061058b5761058a611a79565b5b9060005260206000209060050201600101549050610666565b600582815481106105b8576105b7611a79565b5b906000526020600020906005020160040154600583815481106105de576105dd611a79565b5b9060005260206000209060050201600101546105fa9190611a23565b9050600582815481106106105761060f611a79565b5b906000526020600020906005020160040154600360008282546106339190611bfd565b925050819055506000600583815481106106505761064f611a79565b5b9060005260206000209060050201600401819055505b6005828154811061067a57610679611a79565b5b9060005260206000209060050201600101546001600082825461069d9190611bfd565b925050819055506000600583815481106106ba576106b9611a79565b5b90600052602060002090600502016001018190555060008054906101000a900473ffffffffffffffffffffffffffffffffffffffff1673ffffffffffffffffffffffffffffffffffffffff1663a9059cbb33836040518363ffffffff1660e01b815260040161072a929190611c31565b6020604051808303816000875af1158015610749573d6000803e3d6000fd5b505050506040513d601f19601f8201168201806040525081019061076d91906119c7565b505050565b600460009054906101000a900473ffffffffffffffffffffffffffffffffffffffff1673ffffffffffffffffffffffffffffffffffffffff163373ffffffffffffffffffffffffffffffffffffffff16146107cc57600080fd5b60008054906101000a900473ffffffffffffffffffffffffffffffffffffffff1673ffffffffffffffffffffffffffffffffffffffff1663a9059cbb33836040518363ffffffff1660e01b8152600401610827929190611c31565b6020604051808303816000875af1158015610846573d6000803e3d6000fd5b505050506040513d601f19601f8201168201806040525081019061086a91906119c7565b50806003600082825461087d9190611bfd565b9250508190555050565b6000426005838154811061089e5761089d611a79565b5b90600052602060002090600502016003015410156108bf57600090506108f3565b42600583815481106108d4576108d3611a79565b5b9060005260206000209060050201600301546108f09190611bfd565b90505b919050565b60008054906101000a900473ffffffffffffffffffffffffffffffffffffffff1681565b60035481565b600460009054906101000a900473ffffffffffffffffffffffffffffffffffffffff1673ffffffffffffffffffffffffffffffffffffffff163373ffffffffffffffffffffffffffffffffffffffff161461097c57600080fd5b6006604051806060016040528083815260200142815260200160008152509080600181540180825580915050600190039060005260206000209060030201600090919091909150600082015181600001556020820151816001015560408201518160020155505060016006805490501115610a2d574260066002600680549050610a069190611bfd565b81548110610a1757610a16611a79565b5b9060005260206000209060030201600201819055505b50565b6000808211610a74576040517f08c379a0000000000000000000000000000000000000000000000000000000008152600401610a6b90611ca6565b60405180910390fd5b60008060009054906101000a900473ffffffffffffffffffffffffffffffffffffffff1673ffffffffffffffffffffffffffffffffffffffff166323b872dd3330866040518463ffffffff1660e01b8152600401610ad493929190611958565b6020604051808303816000875af1158015610af3573d6000803e3d6000fd5b505050506040513d601f19601f82011682018060405250810190610b1791906119c7565b90506001151581151514610b60576040517f08c379a0000000000000000000000000000000000000000000000000000000008152600401610b5790611d12565b60405180910390fd5b8260016000828254610b729190611a23565b9250508190555060056040518060a001604052803373ffffffffffffffffffffffffffffffffffffffff16815260200185815260200142815260200160025442610bbc9190611a23565b81526020016000815250908060018154018082558091505060019003906000526020600020906005020160009091909190915060008201518160000160006101000a81548173ffffffffffffffffffffffffffffffffffffffff021916908373ffffffffffffffffffffffffffffffffffffffff160217905550602082015181600101556040820151816002015560608201518160030155608082015181600401555050600580549050915050919050565b60015481565b3373ffffffffffffffffffffffffffffffffffffffff1660058281548110610c9f57610c9e611a79565b5b906000526020600020906005020160000160009054906101000a900473ffffffffffffffffffffffffffffffffffffffff1673ffffffffffffffffffffffffffffffffffffffff1614610d27576040517f08c379a0000000000000000000000000000000000000000000000000000000008152600401610d1e90611d7e565b60405180910390fd5b4260058281548110610d3c57610d3b611a79565b5b90600052602060002090600502016003015410610d8e576040517f08c379a0000000000000000000000000000000000000000000000000000000008152600401610d8590611b71565b60405180910390fd5b60035460058281548110610da557610da4611a79565b5b9060005260206000209060050201600401541115610df8576040517f08c379a0000000000000000000000000000000000000000000000000000000008152600401610def90611dea565b60405180910390fd5b600060058281548110610e0e57610e0d611a79565b5b90600052602060002090600502016004015411610e60576040517f08c379a0000000000000000000000000000000000000000000000000000000008152600401610e5790611e56565b60405180910390fd5b600060058281548110610e7657610e75611a79565b5b90600052602060002090600502016001015414610ec8576040517f08c379a0000000000000000000000000000000000000000000000000000000008152600401610ebf90611ec2565b60405180910390fd5b600060058281548110610ede57610edd611a79565b5b9060005260206000209060050201600401549050600060058381548110610f0857610f07611a79565b5b90600052602060002090600502016004018190555060008054906101000a900473ffffffffffffffffffffffffffffffffffffffff1673ffffffffffffffffffffffffffffffffffffffff1663a9059cbb33836040518363ffffffff1660e01b8152600401610f78929190611c31565b6020604051808303816000875af1158015610f97573d6000803e3d6000fd5b505050506040513d601f19601f82011682018060405250810190610fbb91906119c7565b508060036000828254610fce9190611bfd565b925050819055505050565b60058181548110610fe957600080fd5b90600052602060002090600502016000915090508060000160009054906101000a900473ffffffffffffffffffffffffffffffffffffffff16908060010154908060020154908060030154908060040154905085565b6006818154811061104f57600080fd5b90600052602060002090600302016000915090508060000154908060010154908060020154905083565b60006005828154811061108f5761108e611a79565b5b906000526020600020906005020160040181905550600080640757b12c00905042600584815481106110c4576110c3611a79565b5b90600052602060002090600502016003015411156110e45742915061110d565b600583815481106110f8576110f7611a79565b5b90600052602060002090600502016003015491505b60005b60068054905081101561177b576005848154811061113157611130611a79565b5b9060005260206000209060050201600201546006828154811061115757611156611a79565b5b90600052602060002090600302016001015410801561119b575060006006828154811061118757611186611a79565b5b906000526020600020906003020160020154145b1561127c5781600585815481106111b5576111b4611a79565b5b906000526020600020906005020160010154600683815481106111db576111da611a79565b5b9060005260206000209060030201600001546005878154811061120157611200611a79565b5b9060005260206000209060050201600201548661121e9190611bfd565b6112289190611ee2565b6112329190611ee2565b61123c9190611f6b565b600585815481106112505761124f611a79565b5b906000526020600020906005020160040160008282546112709190611a23565b92505081905550611768565b600584815481106112905761128f611a79565b5b906000526020600020906005020160020154600682815481106112b6576112b5611a79565b5b90600052602060002090600302016001015410801561131e5750600584815481106112e4576112e3611a79565b5b9060005260206000209060050201600201546006828154811061130a57611309611a79565b5b906000526020600020906003020160020154115b8015611350575060006006828154811061133b5761133a611a79565b5b90600052602060002090600302016002015414155b1561145657816005858154811061136a57611369611a79565b5b906000526020600020906005020160010154600683815481106113905761138f611a79565b5b906000526020600020906003020160000154600587815481106113b6576113b5611a79565b5b906000526020600020906005020160020154600685815481106113dc576113db611a79565b5b9060005260206000209060030201600201546113f89190611bfd565b6114029190611ee2565b61140c9190611ee2565b6114169190611f6b565b6005858154811061142a57611429611a79565b5b9060005260206000209060050201600401600082825461144a9190611a23565b92505081905550611767565b6005848154811061146a57611469611a79565b5b906000526020600020906005020160020154600682815481106114905761148f611a79565b5b9060005260206000209060030201600101541180156114d3575082600682815481106114bf576114be611a79565b5b906000526020600020906003020160020154105b801561150557506000600682815481106114f0576114ef611a79565b5b90600052602060002090600302016002015414155b1561160b57816005858154811061151f5761151e611a79565b5b9060005260206000209060050201600101546006838154811061154557611544611a79565b5b9060005260206000209060030201600001546006848154811061156b5761156a611a79565b5b9060005260206000209060030201600101546006858154811061159157611590611a79565b5b9060005260206000209060030201600201546115ad9190611bfd565b6115b79190611ee2565b6115c19190611ee2565b6115cb9190611f6b565b600585815481106115df576115de611a79565b5b906000526020600020906005020160040160008282546115ff9190611a23565b92505081905550611766565b82600682815481106116205761161f611a79565b5b90600052602060002090600302016002015410801561168857506005848154811061164e5761164d611a79565b5b9060005260206000209060050201600201546006828154811061167457611673611a79565b5b906000526020600020906003020160010154115b156117655781600585815481106116a2576116a1611a79565b5b906000526020600020906005020160010154600683815481106116c8576116c7611a79565b5b906000526020600020906003020160000154600684815481106116ee576116ed611a79565b5b9060005260206000209060030201600101548661170b9190611bfd565b6117159190611ee2565b61171f9190611ee2565b6117299190611f6b565b6005858154811061173d5761173c611a79565b5b9060005260206000209060050201600401600082825461175d9190611a23565b925050819055505b5b5b5b808061177390611f9c565b915050611110565b50505050565b6000819050919050565b61179481611781565b82525050565b60006020820190506117af600083018461178b565b92915050565b600080fd5b6117c381611781565b81146117ce57600080fd5b50565b6000813590506117e0816117ba565b92915050565b6000602082840312156117fc576117fb6117b5565b5b600061180a848285016117d1565b91505092915050565b600073ffffffffffffffffffffffffffffffffffffffff82169050919050565b6000819050919050565b600061185861185361184e84611813565b611833565b611813565b9050919050565b600061186a8261183d565b9050919050565b600061187c8261185f565b9050919050565b61188c81611871565b82525050565b60006020820190506118a76000830184611883565b92915050565b60006118b882611813565b9050919050565b6118c8816118ad565b82525050565b600060a0820190506118e360008301886118bf565b6118f0602083018761178b565b6118fd604083018661178b565b61190a606083018561178b565b611917608083018461178b565b9695505050505050565b6000606082019050611936600083018661178b565b611943602083018561178b565b611950604083018461178b565b949350505050565b600060608201905061196d60008301866118bf565b61197a60208301856118bf565b611987604083018461178b565b949350505050565b60008115159050919050565b6119a48161198f565b81146119af57600080fd5b50565b6000815190506119c18161199b565b92915050565b6000602082840312156119dd576119dc6117b5565b5b60006119eb848285016119b2565b91505092915050565b7f4e487b7100000000000000000000000000000000000000000000000000000000600052601160045260246000fd5b6000611a2e82611781565b9150611a3983611781565b9250827fffffffffffffffffffffffffffffffffffffffffffffffffffffffffffffffff03821115611a6e57611a6d6119f4565b5b828201905092915050565b7f4e487b7100000000000000000000000000000000000000000000000000000000600052603260045260246000fd5b600082825260208201905092915050565b7f4e6f7420796f7572207374616b65000000000000000000000000000000000000600082015250565b6000611aef600e83611aa8565b9150611afa82611ab9565b602082019050919050565b60006020820190508181036000830152611b1e81611ae2565b9050919050565b7f546f6f206561726c790000000000000000000000000000000000000000000000600082015250565b6000611b5b600983611aa8565b9150611b6682611b25565b602082019050919050565b60006020820190508181036000830152611b8a81611b4e565b9050919050565b7f4e6f7468696e6720746f20756e7374616b650000000000000000000000000000600082015250565b6000611bc7601283611aa8565b9150611bd282611b91565b602082019050919050565b60006020820190508181036000830152611bf681611bba565b9050919050565b6000611c0882611781565b9150611c1383611781565b925082821015611c2657611c256119f4565b5b828203905092915050565b6000604082019050611c4660008301856118bf565b611c53602083018461178b565b9392505050565b7f4e6f7468696e6720746f207374616b6500000000000000000000000000000000600082015250565b6000611c90601083611aa8565b9150611c9b82611c5a565b602082019050919050565b60006020820190508181036000830152611cbf81611c83565b9050919050565b7f4572726f72207768696c65207472616e73666572000000000000000000000000600082015250565b6000611cfc601483611aa8565b9150611d0782611cc6565b602082019050919050565b60006020820190508181036000830152611d2b81611cef565b9050919050565b7f4e6f7420796f7572207265776172640000000000000000000000000000000000600082015250565b6000611d68600f83611aa8565b9150611d7382611d32565b602082019050919050565b60006020820190508181036000830152611d9781611d5b565b9050919050565b7f4e6f7420656e6f7567682066756e647320746f207061796f7574000000000000600082015250565b6000611dd4601a83611aa8565b9150611ddf82611d9e565b602082019050919050565b60006020820190508181036000830152611e0381611dc7565b9050919050565b7f4e6f7468696e6720746f207061796f7574000000000000000000000000000000600082015250565b6000611e40601183611aa8565b9150611e4b82611e0a565b602082019050919050565b60006020820190508181036000830152611e6f81611e33565b9050919050565b7f55736520756e7374616b65000000000000000000000000000000000000000000600082015250565b6000611eac600b83611aa8565b9150611eb782611e76565b602082019050919050565b60006020820190508181036000830152611edb81611e9f565b9050919050565b6000611eed82611781565b9150611ef883611781565b9250817fffffffffffffffffffffffffffffffffffffffffffffffffffffffffffffffff0483118215151615611f3157611f306119f4565b5b828202905092915050565b7f4e487b7100000000000000000000000000000000000000000000000000000000600052601260045260246000fd5b6000611f7682611781565b9150611f8183611781565b925082611f9157611f90611f3c565b5b828204905092915050565b6000611fa782611781565b91507fffffffffffffffffffffffffffffffffffffffffffffffffffffffffffffffff821415611fda57611fd96119f4565b5b60018201905091905056fea2646970667358221220896ce973aa672446387a14c1c730d5b0c9086c1c5331f389cb72eaf172fda3d564736f6c634300080a0033",
  "immutableReferences": {},
  "source": "\r\n// SPDX-License-Identifier: MIT\r\npragma solidity ^0.8;\r\n\r\n\r\n\r\ncontract StakingRewards {\r\n    ERC20 public stakingToken;\r\n\r\n\r\n    uint public _poolSize; //all stakes together\r\n    uint public _lockingPeriod; // time period in which each individual stake is locked in the contract\r\n    uint public contractBalance; // balance of the contract from which the rewards are payed\r\n    \r\n    address private owner;\r\n\r\n    struct Stake {\r\n        address user;\r\n        uint amount;\r\n        uint sinceBlock; // start of staking\r\n        uint untilBlock; // end of staking\r\n        uint reward;\r\n         }\r\n\r\n    struct Reward{\r\n        uint reward; // reward in promille\r\n        uint start; // start of reward period\r\n        uint end; // end of reward period\r\n    }\r\n\r\n    Stake[] public stakes;\r\n    Reward[] public rewards;\r\n   \r\n\r\n    constructor(address _stakingToken, uint lockingPeriod) {\r\n        stakingToken = ERC20(_stakingToken);\r\n        owner = msg.sender;\r\n        _lockingPeriod = lockingPeriod;\r\n        rewards.push(Reward(uint(100), uint(block.timestamp), uint(0))); //set first reward rate as 100\r\n    }\r\n\r\n    modifier _ownerOnly(){\r\n      require(msg.sender == owner);\r\n      _;\r\n    }\r\n\r\n    //function to deposit funds to the contract. Funds are used to pay the staking rewards\r\n    function ownerDeposit(uint _amount) external _ownerOnly{\r\n        stakingToken.transferFrom(msg.sender, address(this), _amount);\r\n        contractBalance += _amount;\r\n    }\r\n\r\n    //function to withdraw from the Contract\r\n    function ownerWithdraw(uint _amount) external _ownerOnly{\r\n        stakingToken.transfer(msg.sender, _amount);\r\n        contractBalance -= _amount;\r\n    }\r\n\r\n    //function to create an individual stake\r\n    function stake(uint _amount) external returns(uint) {\r\n        require(_amount > 0, 'Nothing to stake'); //check that you stake something\r\n\r\n        bool isTransfered = stakingToken.transferFrom(msg.sender, address(this), _amount);\r\n\r\n        require(isTransfered == true, \"Error while transfer\"); // breaks if an error occoured during transfer\r\n\r\n        _poolSize += _amount;\r\n        stakes.push(Stake(msg.sender, _amount, uint(block.timestamp), uint(block.timestamp + _lockingPeriod ), 0));\r\n        return stakes.length;\r\n                \r\n    }\r\n\r\n    //function to withdraw your funds\r\n    function unstake (uint _id) external  {\r\n        require(stakes[_id].user == msg.sender, 'Not your stake'); //check if its your stake\r\n        require(stakes[_id].untilBlock < uint(block.timestamp), 'Too early'); //check if locking period is over\r\n        require(stakes[_id].amount > 0, 'Nothing to unstake');\r\n        \r\n        calculateReward(_id); // Calculate Reward of the Stake\r\n        uint _amount;\r\n\r\n        if(contractBalance < stakes[_id].reward){ // if there is not enough balance to pay the reward, just pay the stake back. Prevent locked funds.\r\n            _amount = stakes[_id].amount;\r\n        }\r\n\r\n        else{\r\n            _amount = stakes[_id].amount + stakes[_id].reward; //add reward to the payout amount\r\n            contractBalance -= stakes[_id].reward; // reduce the contractBalance by the amount of the Reward\r\n            stakes[_id].reward =0; // empty the reward\r\n\r\n        }\r\n\r\n        _poolSize-= stakes[_id].amount; \r\n        stakes[_id].amount= 0;\r\n        stakingToken.transfer(msg.sender, _amount); //transfer the payout\r\n        \r\n        \r\n    }\r\n\r\n    function claimReward(uint _id) external {\r\n         require(stakes[_id].user == msg.sender, 'Not your reward');\r\n         require(stakes[_id].untilBlock < uint(block.timestamp), 'Too early');\r\n         require(stakes[_id].reward <= contractBalance, 'Not enough funds to payout' );\r\n         require(stakes[_id].reward > 0, 'Nothing to payout' );\r\n         require(stakes[_id].amount == 0, 'Use unstake' );\r\n\r\n         \r\n         uint _amount= stakes[_id].reward;\r\n         stakes[_id].reward = 0; //empty rewards.\r\n         stakingToken.transfer(msg.sender, _amount ); //transfer the payout\r\n         contractBalance -= _amount; // reduce the contract balance \r\n         \r\n      \r\n    }\r\n\r\n    //function to calculate the reward of each individual stake\r\n    function calculateReward(uint _id) internal {\r\n        stakes[_id].reward = 0; //set reward to 0 to prevent adding it everytime\r\n        uint end;\r\n        uint divisor = 31536000000; // 24*60*60(Days) * 365(year) * 1000 (promille)\r\n        \r\n\r\n        if(stakes[_id].untilBlock> uint(block.timestamp)){ //check if locking period is over now. If not, take the actual time to calculate it\r\n            end = uint(block.timestamp);\r\n        }\r\n        else{\r\n            end = stakes[_id].untilBlock;\r\n        }\r\n        \r\n         for (uint i=0; i<rewards.length; i++){\r\n             \r\n            if ((rewards[i].start < stakes[_id].sinceBlock)  && (rewards[i].end == 0)){\r\n                stakes[_id].reward +=((end - stakes[_id].sinceBlock) * rewards[i].reward * stakes[_id].amount)/divisor; // if staking starts and ends without reward change\r\n            }\r\n\r\n            else if((rewards[i].start < stakes[_id].sinceBlock) && (rewards[i].end > stakes[_id].sinceBlock) && (rewards[i].end != 0)){\r\n                stakes[_id].reward += ((rewards[i].end - stakes[_id].sinceBlock) * rewards[i].reward * stakes[_id].amount)/divisor; //first reward rate of the stake\r\n            }\r\n\r\n            else if ((rewards[i].start > stakes[_id].sinceBlock) && (rewards[i].end < end) && (rewards[i].end != 0)  ){\r\n                stakes[_id].reward += ((rewards[i].end - rewards[i].start) * rewards[i].reward * stakes[_id].amount)/divisor; //reward rate during staking\r\n            }\r\n\r\n            else if ((rewards[i].end < end) && (rewards[i].start > stakes[_id].sinceBlock)){\r\n                stakes[_id].reward += ((end - rewards[i].start) * rewards[i].reward * stakes[_id].amount)/divisor; //last reward rate of the stake\r\n            }\r\n\r\n        }\r\n\r\n\r\n    }\r\n\r\n    //function to set reward rate for current timeperiod\r\n    function setRewardRate(uint rate) public _ownerOnly {    \r\n        rewards.push(Reward(rate, uint(block.timestamp), uint(0))); // last reward rate has 0 as end as identifier. \r\n        if(rewards.length>1){\r\n            rewards[rewards.length -2].end = uint(block.timestamp); //set end of the previous reward rate to actual time\r\n        }\r\n        \r\n    }  \r\n\r\n    //function to check how long your funds are stil locked\r\n    function untilLockingEnd(uint _id) public view returns(uint) {\r\n        if(stakes[_id].untilBlock < block.timestamp){\r\n            return 0;\r\n        }\r\n        else{\r\n            return stakes[_id].untilBlock - uint(block.timestamp);\r\n\r\n        }\r\n    }\r\n\r\n}\r\n\r\ninterface ERC20 {\r\n\r\n    function balanceOf(address account) external view returns (uint);\r\n\r\n    function transfer(address recipient, uint amount) external returns (bool);\r\n\r\n    function allowance(address owner, address spender) external view returns (uint);\r\n\r\n    function approve(address spender, uint amount) external returns (bool);\r\n\r\n    function transferFrom(\r\n        address sender,\r\n        address recipient,\r\n        uint amount\r\n    ) external returns (bool);\r\n\r\n    event Transfer(address indexed from, address indexed to, uint value);\r\n    event Approval(address indexed owner, address indexed spender, uint value);\r\n}\r\n",
  "sourcePath": "C:\\Users\\WernerLiechti\\Documents\\GitHub\\StakingContract\\contracts\\stakingRewards.sol",
  "compiler": {
    "name": "solc",
    "version": "0.8.10+commit.fc410830.Emscripten.clang"
  },
  "schemaVersion": "3.4.3",
  "updatedAt": "2022-03-02T15:34:07.214Z",
  "networkType": "ethereum",
  "devdoc": {
    "kind": "dev",
    "methods": {},
    "version": 1
  },
  "userdoc": {
    "kind": "user",
    "methods": {},
    "version": 1
  }
}