{
  "contractName": "StakingRewards",
  "abi": [
    {
      "inputs": [
        {
          "internalType": "address",
          "name": "_stakingToken",
          "type": "address"
        },
        {
          "internalType": "uint256",
          "name": "lockingPeriod",
          "type": "uint256"
        }
      ],
      "stateMutability": "nonpayable",
      "type": "constructor"
    },
    {
      "inputs": [],
      "name": "_lockingPeriod",
      "outputs": [
        {
          "internalType": "uint256",
          "name": "",
          "type": "uint256"
        }
      ],
      "stateMutability": "view",
      "type": "function",
      "constant": true
    },
    {
      "inputs": [],
      "name": "_poolSize",
      "outputs": [
        {
          "internalType": "uint256",
          "name": "",
          "type": "uint256"
        }
      ],
      "stateMutability": "view",
      "type": "function",
      "constant": true
    },
    {
      "inputs": [],
      "name": "contractBalance",
      "outputs": [
        {
          "internalType": "uint256",
          "name": "",
          "type": "uint256"
        }
      ],
      "stateMutability": "view",
      "type": "function",
      "constant": true
    },
    {
      "inputs": [
        {
          "internalType": "uint256",
          "name": "",
          "type": "uint256"
        }
      ],
      "name": "rewards",
      "outputs": [
        {
          "internalType": "uint256",
          "name": "reward",
          "type": "uint256"
        },
        {
          "internalType": "uint256",
          "name": "start",
          "type": "uint256"
        },
        {
          "internalType": "uint256",
          "name": "end",
          "type": "uint256"
        }
      ],
      "stateMutability": "view",
      "type": "function",
      "constant": true
    },
    {
      "inputs": [
        {
          "internalType": "uint256",
          "name": "",
          "type": "uint256"
        }
      ],
      "name": "stakes",
      "outputs": [
        {
          "internalType": "address",
          "name": "user",
          "type": "address"
        },
        {
          "internalType": "uint256",
          "name": "amount",
          "type": "uint256"
        },
        {
          "internalType": "uint256",
          "name": "sinceBlock",
          "type": "uint256"
        },
        {
          "internalType": "uint256",
          "name": "untilBlock",
          "type": "uint256"
        },
        {
          "internalType": "uint256",
          "name": "reward",
          "type": "uint256"
        }
      ],
      "stateMutability": "view",
      "type": "function",
      "constant": true
    },
    {
      "inputs": [],
      "name": "stakingToken",
      "outputs": [
        {
          "internalType": "contract ERC20",
          "name": "",
          "type": "address"
        }
      ],
      "stateMutability": "view",
      "type": "function",
      "constant": true
    },
    {
      "inputs": [
        {
          "internalType": "uint256",
          "name": "_amount",
          "type": "uint256"
        }
      ],
      "name": "ownerDeposit",
      "outputs": [],
      "stateMutability": "nonpayable",
      "type": "function"
    },
    {
      "inputs": [
        {
          "internalType": "uint256",
          "name": "_amount",
          "type": "uint256"
        }
      ],
      "name": "ownerWithdraw",
      "outputs": [],
      "stateMutability": "nonpayable",
      "type": "function"
    },
    {
      "inputs": [
        {
          "internalType": "uint256",
          "name": "_amount",
          "type": "uint256"
        }
      ],
      "name": "stake",
      "outputs": [
        {
          "internalType": "uint256",
          "name": "",
          "type": "uint256"
        }
      ],
      "stateMutability": "nonpayable",
      "type": "function"
    },
    {
      "inputs": [
        {
          "internalType": "uint256",
          "name": "_id",
          "type": "uint256"
        }
      ],
      "name": "unstake",
      "outputs": [],
      "stateMutability": "nonpayable",
      "type": "function"
    },
    {
      "inputs": [
        {
          "internalType": "uint256",
          "name": "_id",
          "type": "uint256"
        }
      ],
      "name": "calculateReward",
      "outputs": [],
      "stateMutability": "nonpayable",
      "type": "function"
    },
    {
      "inputs": [
        {
          "internalType": "uint256",
          "name": "rate",
          "type": "uint256"
        }
      ],
      "name": "setRewardRate",
      "outputs": [],
      "stateMutability": "nonpayable",
      "type": "function"
    },
    {
      "inputs": [
        {
          "internalType": "uint256",
          "name": "_id",
          "type": "uint256"
        }
      ],
      "name": "untilLockingEnd",
      "outputs": [
        {
          "internalType": "uint256",
          "name": "",
          "type": "uint256"
        }
      ],
      "stateMutability": "view",
      "type": "function",
      "constant": true
    }
  ],
  "bytecode": "0x60806040523480156200001157600080fd5b5060405162001b3738038062001b3783398181016040528101906200003791906200016c565b816000806101000a81548173ffffffffffffffffffffffffffffffffffffffff021916908373ffffffffffffffffffffffffffffffffffffffff16021790555033600460006101000a81548173ffffffffffffffffffffffffffffffffffffffff021916908373ffffffffffffffffffffffffffffffffffffffff160217905550806002819055505050620001b3565b600080fd5b600073ffffffffffffffffffffffffffffffffffffffff82169050919050565b6000620000f982620000cc565b9050919050565b6200010b81620000ec565b81146200011757600080fd5b50565b6000815190506200012b8162000100565b92915050565b6000819050919050565b620001468162000131565b81146200015257600080fd5b50565b60008151905062000166816200013b565b92915050565b60008060408385031215620001865762000185620000c7565b5b600062000196858286016200011a565b9250506020620001a98582860162000155565b9150509250929050565b61197480620001c36000396000f3fe608060405234801561001057600080fd5b50600436106100cf5760003560e01c80638b7afe2e1161008c578063ade70abc11610066578063ade70abc146101fe578063d2d7231f1461021c578063d5a44f8614610238578063f301af421461026c576100cf565b80638b7afe2e146101945780639e447fc6146101b2578063a694fc3a146101ce576100cf565b806313a59eb9146100d4578063141833dc146100f25780632e17de781461010e57806333f707d11461012a578063484b46891461014657806372f702f314610176575b600080fd5b6100dc61029e565b6040516100e9919061136f565b60405180910390f35b61010c600480360381019061010791906113bb565b6102a4565b005b610128600480360381019061012391906113bb565b6103bb565b005b610144600480360381019061013f91906113bb565b610734565b005b610160600480360381019061015b91906113bb565b610849565b60405161016d919061136f565b60405180910390f35b61017e610883565b60405161018b9190611467565b60405180910390f35b61019c6108a7565b6040516101a9919061136f565b60405180910390f35b6101cc60048036038101906101c791906113bb565b6108ad565b005b6101e860048036038101906101e391906113bb565b6109bb565b6040516101f5919061136f565b60405180910390f35b610206610bad565b604051610213919061136f565b60405180910390f35b610236600480360381019061023191906113bb565b610bb3565b005b610252600480360381019061024d91906113bb565b6112b6565b6040516102639594939291906114a3565b60405180910390f35b610286600480360381019061028191906113bb565b61131c565b604051610295939291906114f6565b60405180910390f35b60025481565b600460009054906101000a900473ffffffffffffffffffffffffffffffffffffffff1673ffffffffffffffffffffffffffffffffffffffff163373ffffffffffffffffffffffffffffffffffffffff16146102fe57600080fd5b60008054906101000a900473ffffffffffffffffffffffffffffffffffffffff1673ffffffffffffffffffffffffffffffffffffffff166323b872dd3330846040518463ffffffff1660e01b815260040161035b9392919061152d565b6020604051808303816000875af115801561037a573d6000803e3d6000fd5b505050506040513d601f19601f8201168201806040525081019061039e919061159c565b5080600360008282546103b191906115f8565b9250508190555050565b3373ffffffffffffffffffffffffffffffffffffffff16600582815481106103e6576103e561164e565b5b906000526020600020906005020160000160009054906101000a900473ffffffffffffffffffffffffffffffffffffffff1673ffffffffffffffffffffffffffffffffffffffff161461046e576040517f08c379a0000000000000000000000000000000000000000000000000000000008152600401610465906116da565b60405180910390fd5b6000600582815481106104845761048361164e565b5b906000526020600020906005020160010154116104d6576040517f08c379a00000000000000000000000000000000000000000000000000000000081526004016104cd90611746565b60405180910390fd5b42600582815481106104eb576104ea61164e565b5b9060005260206000209060050201600301541061053d576040517f08c379a0000000000000000000000000000000000000000000000000000000008152600401610534906117b2565b60405180910390fd5b61054681610bb3565b60006005828154811061055c5761055b61164e565b5b90600052602060002090600502016004015460035410156105a4576005828154811061058b5761058a61164e565b5b9060005260206000209060050201600101549050610628565b600582815481106105b8576105b761164e565b5b906000526020600020906005020160040154600583815481106105de576105dd61164e565b5b9060005260206000209060050201600101546105fa91906115f8565b90506000600583815481106106125761061161164e565b5b9060005260206000209060050201600401819055505b6005828154811061063c5761063b61164e565b5b9060005260206000209060050201600101546001600082825461065f91906117d2565b9250508190555060006005838154811061067c5761067b61164e565b5b90600052602060002090600502016001018190555060008054906101000a900473ffffffffffffffffffffffffffffffffffffffff1673ffffffffffffffffffffffffffffffffffffffff1663a9059cbb33836040518363ffffffff1660e01b81526004016106ec929190611806565b6020604051808303816000875af115801561070b573d6000803e3d6000fd5b505050506040513d601f19601f8201168201806040525081019061072f919061159c565b505050565b600460009054906101000a900473ffffffffffffffffffffffffffffffffffffffff1673ffffffffffffffffffffffffffffffffffffffff163373ffffffffffffffffffffffffffffffffffffffff161461078e57600080fd5b60008054906101000a900473ffffffffffffffffffffffffffffffffffffffff1673ffffffffffffffffffffffffffffffffffffffff1663a9059cbb33836040518363ffffffff1660e01b81526004016107e9929190611806565b6020604051808303816000875af1158015610808573d6000803e3d6000fd5b505050506040513d601f19601f8201168201806040525081019061082c919061159c565b50806003600082825461083f91906117d2565b9250508190555050565b600042600583815481106108605761085f61164e565b5b90600052602060002090600502016003015461087c91906117d2565b9050919050565b60008054906101000a900473ffffffffffffffffffffffffffffffffffffffff1681565b60035481565b600460009054906101000a900473ffffffffffffffffffffffffffffffffffffffff1673ffffffffffffffffffffffffffffffffffffffff163373ffffffffffffffffffffffffffffffffffffffff161461090757600080fd5b60066040518060600160405280838152602001428152602001600081525090806001815401808255809150506001900390600052602060002090600302016000909190919091506000820151816000015560208201518160010155604082015181600201555050600160068054905011156109b857426006600260068054905061099191906117d2565b815481106109a2576109a161164e565b5b9060005260206000209060030201600201819055505b50565b60008082116109ff576040517f08c379a00000000000000000000000000000000000000000000000000000000081526004016109f69061187b565b60405180910390fd5b8160016000828254610a1191906115f8565b9250508190555060008054906101000a900473ffffffffffffffffffffffffffffffffffffffff1673ffffffffffffffffffffffffffffffffffffffff166323b872dd3330856040518463ffffffff1660e01b8152600401610a759392919061152d565b6020604051808303816000875af1158015610a94573d6000803e3d6000fd5b505050506040513d601f19601f82011682018060405250810190610ab8919061159c565b5060056040518060a001604052803373ffffffffffffffffffffffffffffffffffffffff16815260200184815260200142815260200160025442610afc91906115f8565b81526020016000815250908060018154018082558091505060019003906000526020600020906005020160009091909190915060008201518160000160006101000a81548173ffffffffffffffffffffffffffffffffffffffff021916908373ffffffffffffffffffffffffffffffffffffffff1602179055506020820151816001015560408201518160020155606082015181600301556080820151816004015550506005805490509050919050565b60015481565b600060058281548110610bc957610bc861164e565b5b90600052602060002090600502016004018190555060004260058381548110610bf557610bf461164e565b5b9060005260206000209060050201600301541115610c1557429050610c3e565b60058281548110610c2957610c2861164e565b5b90600052602060002090600502016003015490505b60005b6006805490508110156112b15760058381548110610c6257610c6161164e565b5b90600052602060002090600502016002015460068281548110610c8857610c8761164e565b5b906000526020600020906003020160010154108015610ccc5750600060068281548110610cb857610cb761164e565b5b906000526020600020906003020160020154145b15610da25760058381548110610ce557610ce461164e565b5b90600052602060002090600502016001015460068281548110610d0b57610d0a61164e565b5b90600052602060002090600302016000015460058581548110610d3157610d3061164e565b5b90600052602060002090600502016002015484610d4e91906117d2565b610d58919061189b565b610d62919061189b565b60058481548110610d7657610d7561164e565b5b90600052602060002090600502016004016000828254610d9691906115f8565b9250508190555061129e565b60058381548110610db657610db561164e565b5b90600052602060002090600502016002015460068281548110610ddc57610ddb61164e565b5b906000526020600020906003020160010154108015610e44575060058381548110610e0a57610e0961164e565b5b90600052602060002090600502016002015460068281548110610e3057610e2f61164e565b5b906000526020600020906003020160020154115b8015610e765750600060068281548110610e6157610e6061164e565b5b90600052602060002090600302016002015414155b15610f715760058381548110610e8f57610e8e61164e565b5b90600052602060002090600502016001015460068281548110610eb557610eb461164e565b5b90600052602060002090600302016000015460058581548110610edb57610eda61164e565b5b90600052602060002090600502016002015460068481548110610f0157610f0061164e565b5b906000526020600020906003020160020154610f1d91906117d2565b610f27919061189b565b610f31919061189b565b60058481548110610f4557610f4461164e565b5b90600052602060002090600502016004016000828254610f6591906115f8565b9250508190555061129d565b60058381548110610f8557610f8461164e565b5b90600052602060002090600502016002015460068281548110610fab57610faa61164e565b5b906000526020600020906003020160010154118015610fee57508160068281548110610fda57610fd961164e565b5b906000526020600020906003020160020154105b8015611020575060006006828154811061100b5761100a61164e565b5b90600052602060002090600302016002015414155b1561111b57600583815481106110395761103861164e565b5b9060005260206000209060050201600101546006828154811061105f5761105e61164e565b5b906000526020600020906003020160000154600683815481106110855761108461164e565b5b906000526020600020906003020160010154600684815481106110ab576110aa61164e565b5b9060005260206000209060030201600201546110c791906117d2565b6110d1919061189b565b6110db919061189b565b600584815481106110ef576110ee61164e565b5b9060005260206000209060050201600401600082825461110f91906115f8565b9250508190555061129c565b81600682815481106111305761112f61164e565b5b90600052602060002090600302016001015410801561119857506005838154811061115e5761115d61164e565b5b906000526020600020906005020160020154600682815481106111845761118361164e565b5b906000526020600020906003020160010154115b80156111c957506000600682815481106111b5576111b461164e565b5b906000526020600020906003020160020154145b1561129b57600583815481106111e2576111e161164e565b5b906000526020600020906005020160010154600682815481106112085761120761164e565b5b9060005260206000209060030201600001546006838154811061122e5761122d61164e565b5b9060005260206000209060030201600101548461124b91906117d2565b611255919061189b565b61125f919061189b565b600584815481106112735761127261164e565b5b9060005260206000209060050201600401600082825461129391906115f8565b925050819055505b5b5b5b80806112a9906118f5565b915050610c41565b505050565b600581815481106112c657600080fd5b90600052602060002090600502016000915090508060000160009054906101000a900473ffffffffffffffffffffffffffffffffffffffff16908060010154908060020154908060030154908060040154905085565b6006818154811061132c57600080fd5b90600052602060002090600302016000915090508060000154908060010154908060020154905083565b6000819050919050565b61136981611356565b82525050565b60006020820190506113846000830184611360565b92915050565b600080fd5b61139881611356565b81146113a357600080fd5b50565b6000813590506113b58161138f565b92915050565b6000602082840312156113d1576113d061138a565b5b60006113df848285016113a6565b91505092915050565b600073ffffffffffffffffffffffffffffffffffffffff82169050919050565b6000819050919050565b600061142d611428611423846113e8565b611408565b6113e8565b9050919050565b600061143f82611412565b9050919050565b600061145182611434565b9050919050565b61146181611446565b82525050565b600060208201905061147c6000830184611458565b92915050565b600061148d826113e8565b9050919050565b61149d81611482565b82525050565b600060a0820190506114b86000830188611494565b6114c56020830187611360565b6114d26040830186611360565b6114df6060830185611360565b6114ec6080830184611360565b9695505050505050565b600060608201905061150b6000830186611360565b6115186020830185611360565b6115256040830184611360565b949350505050565b60006060820190506115426000830186611494565b61154f6020830185611494565b61155c6040830184611360565b949350505050565b60008115159050919050565b61157981611564565b811461158457600080fd5b50565b60008151905061159681611570565b92915050565b6000602082840312156115b2576115b161138a565b5b60006115c084828501611587565b91505092915050565b7f4e487b7100000000000000000000000000000000000000000000000000000000600052601160045260246000fd5b600061160382611356565b915061160e83611356565b9250827fffffffffffffffffffffffffffffffffffffffffffffffffffffffffffffffff03821115611643576116426115c9565b5b828201905092915050565b7f4e487b7100000000000000000000000000000000000000000000000000000000600052603260045260246000fd5b600082825260208201905092915050565b7f4e6f7420796f7572207374616b65000000000000000000000000000000000000600082015250565b60006116c4600e8361167d565b91506116cf8261168e565b602082019050919050565b600060208201905081810360008301526116f3816116b7565b9050919050565b7f4e6f7468696e6720746f20756e7374616b650000000000000000000000000000600082015250565b600061173060128361167d565b915061173b826116fa565b602082019050919050565b6000602082019050818103600083015261175f81611723565b9050919050565b7f546f6f206561726c790000000000000000000000000000000000000000000000600082015250565b600061179c60098361167d565b91506117a782611766565b602082019050919050565b600060208201905081810360008301526117cb8161178f565b9050919050565b60006117dd82611356565b91506117e883611356565b9250828210156117fb576117fa6115c9565b5b828203905092915050565b600060408201905061181b6000830185611494565b6118286020830184611360565b9392505050565b7f4e6f7468696e6720746f207374616b6500000000000000000000000000000000600082015250565b600061186560108361167d565b91506118708261182f565b602082019050919050565b6000602082019050818103600083015261189481611858565b9050919050565b60006118a682611356565b91506118b183611356565b9250817fffffffffffffffffffffffffffffffffffffffffffffffffffffffffffffffff04831182151516156118ea576118e96115c9565b5b828202905092915050565b600061190082611356565b91507fffffffffffffffffffffffffffffffffffffffffffffffffffffffffffffffff821415611933576119326115c9565b5b60018201905091905056fea2646970667358221220c3197f092c8914c998ea97453d1983d107ec9cb8351b1b8fd1b5fca20950c57864736f6c634300080a0033",
  "immutableReferences": {},
  "source": "\r\n// SPDX-License-Identifier: MIT\r\npragma solidity ^0.8.10;\r\n\r\n\r\n\r\ncontract StakingRewards {\r\n    ERC20 public stakingToken;\r\n\r\n\r\n    uint public _poolSize; //all stakes together\r\n    uint public _lockingPeriod; // timeperiod in which each individual stake is locked in the contract\r\n    uint public contractBalance; // balance of the contract from which the rewards are payed\r\n    \r\n    address private owner;\r\n\r\n    struct Stake {\r\n        address user;\r\n        uint amount;\r\n        uint sinceBlock; // start of staking\r\n        uint untilBlock; // end of staking\r\n        uint reward;\r\n         }\r\n\r\n    struct Reward{\r\n        uint reward;\r\n        uint start;\r\n        uint end;\r\n    }\r\n\r\n    Stake[] public stakes;\r\n    Reward[] public rewards;\r\n   \r\n\r\n    constructor(address _stakingToken, uint lockingPeriod) {\r\n        stakingToken = ERC20(_stakingToken);\r\n        owner = msg.sender;\r\n        _lockingPeriod = lockingPeriod; //* 1 days;\r\n    }\r\n\r\n    modifier _ownerOnly(){\r\n      require(msg.sender == owner);\r\n      _;\r\n    }\r\n\r\n    //function to deposit funds to the contract. Funds are used to pay the staking rewards\r\n    function ownerDeposit(uint _amount) public _ownerOnly{\r\n        stakingToken.transferFrom(msg.sender, address(this), _amount);\r\n        contractBalance += _amount;\r\n    }\r\n\r\n    //function to withdraw from the Contract\r\n    function ownerWithdraw(uint _amount) public _ownerOnly{\r\n        stakingToken.transfer(msg.sender, _amount);\r\n        contractBalance -= _amount;\r\n    }\r\n\r\n    //function to create an individual stake\r\n    function stake(uint _amount) external returns(uint) {\r\n        require(_amount > 0, 'Nothing to stake'); //check that you stake something\r\n        _poolSize += _amount;\r\n        stakingToken.transferFrom(msg.sender, address(this), _amount);\r\n        stakes.push(Stake(msg.sender, _amount, uint(block.timestamp), uint(block.timestamp + _lockingPeriod ), 0));\r\n        return stakes.length;\r\n    }\r\n\r\n    //function to withdraw your funds\r\n    function unstake (uint _id) external {\r\n        require(stakes[_id].user == msg.sender, 'Not your stake'); //check if its your stake\r\n        require(stakes[_id].amount > 0, 'Nothing to unstake'); //check if something is staked\r\n        require(stakes[_id].untilBlock < uint(block.timestamp), 'Too early'); //check if locking period is over\r\n        \r\n        calculateReward(_id); // Calculate Reward of the Stake\r\n        uint _amount;\r\n        if(contractBalance < stakes[_id].reward){ // if there is not enough balance to pay the reward, just pay the stake back. Prevent locked funds.\r\n            _amount = stakes[_id].amount;\r\n        }\r\n        else{\r\n            _amount = stakes[_id].amount + stakes[_id].reward; //add reward to the payout amount\r\n            stakes[_id].reward =0; // empty the reward\r\n\r\n        }\r\n        _poolSize-= stakes[_id].amount; \r\n        stakes[_id].amount= 0;\r\n        stakingToken.transfer(msg.sender, _amount); //transfer the payout\r\n        \r\n        \r\n    }\r\n\r\n    //function to calculate the reward of each individual stake\r\n    function calculateReward(uint _id) public {\r\n        stakes[_id].reward =0; //set reward to 0 to prevent adding it everytime\r\n        uint end;\r\n\r\n        if(stakes[_id].untilBlock> uint(block.timestamp)){ //check if locking period is over now. If not, take the actual time to calculate it\r\n            end = uint(block.timestamp);\r\n        }\r\n        else{\r\n            end = stakes[_id].untilBlock;\r\n        }\r\n        \r\n         for (uint i=0; i<rewards.length; i++){\r\n             \r\n            if ((rewards[i].start < stakes[_id].sinceBlock)  && (rewards[i].end == 0)){\r\n                stakes[_id].reward += (end - stakes[_id].sinceBlock) * rewards[i].reward * stakes[_id].amount; // if staking starts and ends without reward change\r\n            }\r\n\r\n            else if((rewards[i].start < stakes[_id].sinceBlock) && (rewards[i].end > stakes[_id].sinceBlock) && (rewards[i].end != 0)){\r\n                stakes[_id].reward += (rewards[i].end - stakes[_id].sinceBlock) * rewards[i].reward * stakes[_id].amount; //first feward rate\r\n            }\r\n\r\n            else if ((rewards[i].start > stakes[_id].sinceBlock) && (rewards[i].end < end) && (rewards[i].end != 0)  ){\r\n                stakes[_id].reward += (rewards[i].end - rewards[i].start) * rewards[i].reward * stakes[_id].amount; //reward rate during staking\r\n            }\r\n\r\n            else if ((rewards[i].start < end) && (rewards[i].start > stakes[_id].sinceBlock)  && (rewards[i].end == 0)){\r\n                stakes[_id].reward += (end - rewards[i].start) * rewards[i].reward * stakes[_id].amount; //last reward rate\r\n            }\r\n\r\n        }\r\n\r\n\r\n    }\r\n\r\n    //function to set reward rate for current timeperiod\r\n    function setRewardRate(uint rate) public _ownerOnly {\r\n        \r\n        rewards.push(Reward(rate, uint(block.timestamp), uint(0)));\r\n        if(rewards.length>1){\r\n            rewards[rewards.length -2].end = uint(block.timestamp);\r\n        }\r\n        \r\n    }  \r\n\r\n    //function to check how long your funds are stil locked\r\n    function untilLockingEnd(uint _id) public view returns(uint) {\r\n\r\n        return stakes[_id].untilBlock - uint(block.timestamp);\r\n    }\r\n\r\n}\r\n\r\ninterface ERC20 {\r\n\r\n    function balanceOf(address account) external view returns (uint);\r\n\r\n    function transfer(address recipient, uint amount) external returns (bool);\r\n\r\n    function allowance(address owner, address spender) external view returns (uint);\r\n\r\n    function approve(address spender, uint amount) external returns (bool);\r\n\r\n    function transferFrom(\r\n        address sender,\r\n        address recipient,\r\n        uint amount\r\n    ) external returns (bool);\r\n\r\n    event Transfer(address indexed from, address indexed to, uint value);\r\n    event Approval(address indexed owner, address indexed spender, uint value);\r\n}\r\n",
  "sourcePath": "C:\\Users\\WernerLiechti\\Documents\\GitHub\\StakingContract\\contracts\\stakingRewards.sol",
  "compiler": {
    "name": "solc",
    "version": "0.8.10+commit.fc410830.Emscripten.clang"
  },
  "schemaVersion": "3.4.3",
  "updatedAt": "2022-01-20T14:18:25.848Z",
  "networkType": "ethereum",
  "devdoc": {
    "kind": "dev",
    "methods": {},
    "version": 1
  },
  "userdoc": {
    "kind": "user",
    "methods": {},
    "version": 1
  }
}